:020000040800F2
:1000000060190020A1010008491C000841170008E0
:10001000451C00080B030008D9250008000000005B
:100020000000000000000000000000008F20000819
:100030000F030008000000008D2000089120000838
:10004000BB010008BB010008BB010008BB010008A0
:10005000BB010008BB010008BB010008BB01000890
:10006000BB010008BB010008BB010008BB01000880
:10007000BB010008BB010008BB010008BB01000870
:10008000BB010008BB010008BB010008BB01000860
:10009000BB010008BB010008BB010008BB01000850
:1000A000BB010008BB010008BB010008BB01000840
:1000B000BB010008BB010008BB010008BB01000830
:1000C000BB010008BB010008BB010008BB01000820
:1000D000BB010008C9250008BB010008BB010008DE
:1000E000BB010008BB010008BB010008BB01000800
:1000F000BB010008BB010008BB010008BB010008F0
:10010000BB010008BB010008BB010008BB010008DF
:10011000BB010008BB010008BB010008BB010008CF
:10012000BB010008BB010008BB010008BB010008BF
:10013000BB010008BB010008BB010008BB010008AF
:10014000BB010008BB010008BB010008BB0100089F
:10015000BB010008BB010008BB010008BB0100088F
:10016000BB010008BB010008BB010008BB0100087F
:10017000BB010008BB010008BB0100080000000033
:10018000BB010008BB010008DFF810D000F07CF8CC
:100190000048004735260008AFF3008060190020B2
:1001A0000648804706480047FEE7FEE7FEE7FEE711
:1001B000FEE7FEE7FEE7FEE7FEE7FEE74D2100086B
:1001C000890100082DE9F05F0546002092469B4614
:1001D00088460646814640241BE02846414647465D
:1001E000224600F041F853465A46C01A914110D3B6
:1001F00011461846224600F028F82D1A67EB010830
:100200004F4622460120002100F01FF817EB00099D
:100210004E41201EA4F10104DFDC484631462A4647
:100220004346BDE8F09FD2B201E000F8012B491E21
:10023000FBD270470022F6E710B513460A46044683
:100240001946FFF7F0FF204610BD202A04DB203AB4
:1002500000FA02F1002070479140C2F1200320FA19
:1002600003F3194390407047202A04DB203A21FA17
:1002700002F00021704721FA02F3D040C2F12002BF
:100280009140084319467047064C074D06E0E06868
:1002900040F0010394E8070098471034AC42F6D3CD
:1002A000FFF776FF1C2700083C27000870B58D1863
:1002B00010F8014B14F0030201D110F8012B2311A7
:1002C00006D110F8013B03E010F8016B01F8016B57
:1002D000521EF9D1ABB110F8012B04F00C048A1AAC
:1002E0000C2C03D0A2EB84129B1C08E010F8014BED
:1002F000A2EB0422F8E712F8014B01F8014B5B1E58
:10030000F9D5A942D4D3002070BD00BFFEE77047E5
:1003100072B600BFFEE770B50446A56D00F084F923
:10032000064694F83500022808D08020606500BF9A
:10033000002084F8340000BF012070BD20680068F0
:1003400020F01600216808602068406920F08000D5
:1003500021684861206C08B9A06C28B12068006849
:1003600020F00800216808602068006820F0010083
:100370002168086010E000F057F9801B05280BD9B0
:1003800020206065032084F8350000BF002084F839
:10039000340000BF0320D0E72068006800F00100AF
:1003A0000028E8D194F85C103F208840A860012024
:1003B00084F8350000BF002084F8340000BF00BF7F
:1003C000BBE7014691F83500022803D0802048653C
:1003D00001207047052081F835000868006820F08A
:1003E00001000A6810600020F3E7000070B50446C1
:1003F00000F01AF906462546681C10B1044800783A
:10040000054400BF00F010F9801BA842FAD370BD6C
:1004100008000020F8B502460B4600250024002005
:100420000021D6E0012606FA01F51E6806EA050459
:10043000AC4274D11E7906F00306012E04D01E7959
:1004400006F00306022E13D190684F000326BE402B
:10045000B0434F00DE68BE403043906050680126D4
:100460008E40B0431E79C6F300168E403043506074
:100470001E7906F00306032E09D0D0684F0003262C
:10048000BE40B0434F009E68BE403043D0601E79EE
:1004900006F00306022E13D1CF0802F1200656F80B
:1004A00027004E07F70E0F26BE40B0434F07FF0E42
:1004B0001E69BE403043CF0802F1200646F82700EF
:1004C00010684F000326BE40B0431E7906F00306B5
:1004D0004F00BE40304310605E6806F44036002E88
:1004E00076D000BF002600963C4E366846F4804623
:1004F0003A4F3E603E46366806F48046009600BF9E
:1005000000BF374E8F0856F827008E07370F0F268B
:10051000BE40B043334EB24202D1002624E057E041
:10052000314EB24201D101261EE0304EB24201D11D
:10053000022619E02E4EB24201D1032614E02D4EC0
:10054000B24201D104260FE02B4EB24201D1052662
:100550000AE02A4EB24201D1062605E0284EB242F8
:1005600001D1072600E008268F073F0FBE40304329
:100570001B4E8F0846F82700224E3068A0435E6865
:1005800006F4801606B120431E4E3060361D3068DA
:10059000A0435E6806F4001606B12043194E361DCE
:1005A0003060184E361F3068A0435E6806F400368F
:1005B00006B12043134E361F3060361F3068A0430B
:1005C0005E6806F4803606B120430E4E083E306069
:1005D000491C1029FFF426AFF8BD00004438024042
:1005E00008380140000002400004024000080240B8
:1005F000000C0240001002400014024000180240AB
:10060000001C0240083C014010B5426921EA020387
:1006100002EA010443EA0443836110BD0AB1816127
:1006200001E00B04836170470148006870470000D7
:100630000000002070B504460CB9012070BD94F88C
:100640003D0028B9002084F83C00204600F08CF9D9
:10065000242084F83D002068006820F00100216813
:1006600008602068006840F4004021680860206845
:10067000006820F400402168086000F05BFB05463C
:100680005C496068884206D85B48854201D20120F7
:1006900007E0002005E05948854201D2012000E032
:1006A0000020012800D1C9E75548B5FBF0F62068C5
:1006B000406820F03F003043216848604D49606841
:1006C000884201D8701C07E04FF4967070434FF4D5
:1006D0007A71B0FBF1F0401C2168096A21F03F01FA
:1006E00008432168086243496068884214D8681E3C
:1006F00061684900B0FBF1F0401CC0F30B00042816
:1007000001D204203DE0681E61684900B0FBF1F0B1
:10071000401CC0F30B0034E0A06838B9681E616863
:1007200001EB4101B0FBF1F0401C0AE0681E61687A
:1007300001EBC10202EB0111B0FBF1F0401C40F4EF
:100740008040C0F30B0008B901201AE0A06848B946
:10075000681E616801EB4101B0FBF1F0401CC0F381
:100760000B000CE0681E616801EBC10202EB011195
:10077000B0FBF1F0401CC0F30B0040F4804040F4AB
:1007800000402168C9694CF6FF7291430843216813
:10079000C861D4E9070108432168096821F0C00154
:1007A000084321680860D4E9031008432168896878
:1007B00048F2FF329143084321688860D4E905017B
:1007C00008432168C96821F0FF0108432168C86017
:1007D0002068006840F00100216808600020206463
:1007E000202084F83D000020206384F83E0000BFF4
:1007F00024E70000A086010080841E0000093D005F
:1008000040420F002DE9FC5F04460F469046994692
:10081000DDE90CAB0E9EFFF707FF054694F83D009F
:1008200020287DD1192301224D492046009501F051
:100830004CF810B10220BDE8FC9F00BF94F83C00CA
:10084000012801D10220F6E7012084F83C0000BF16
:100850002068006800F0010028B92068006840F0B6
:100860000100216808602068006820F400602168A9
:100870000860212084F83D00402084F83E000020DC
:100880002064C4F824A0A4F82AB0608D20853548DF
:10089000E0624B46424639462046CDE9006500F00D
:1008A00071FF08B10120C6E731E02A4631462046F3
:1008B00001F0E7F850B1206C042805D120680068E9
:1008C00040F40070216808600120B4E7606A007895
:1008D00021680861606A401C6062208D401E20858E
:1008E000608D401E608520684069C0F3800070B153
:1008F000208D60B1606A007821680861606A401CE0
:100900006062208D401E2085608D401E6085208D98
:100910000028CAD12A463146204600F0A3FF00E055
:100920001CE050B1206C042805D12068006840F418
:1009300000702168086001207DE72068006840F4AD
:10094000007021680860202084F83D00002084F8B1
:100950003E0000BF84F83C0000BF6CE702206AE75D
:10096000020010000000FFFF10B586B004461421FD
:1009700001A8FFF75FFC1B492068884230D100BF07
:10098000002000901848006840F0020016490860F6
:100990000846006800F00200009000BF00BF4FF45E
:1009A00040600190122002900020039003200490E8
:1009B0000420059001A90D48FFF72CFD00BF002081
:1009C000009009481030006840F48000064910315A
:1009D00008600846006800F48000009000BF00BF77
:1009E00006B010BD005800403038024000040240FC
:1009F00003480068034909780844014908607047C2
:100A0000000000200800002010B50D48006840F4E8
:100A100000700B4908600846006840F48060086078
:100A20000846006840F480700860032000F0A6F8D3
:100A30000F2000F007F800F02BF8002010BD000098
:100A4000003C024070B504460E4800784FF47A71BD
:100A5000B1FBF0F00C490968B1FBF0F5284600F055
:100A60002FFC08B1012070BD102C07D200222146B6
:100A7000501E00F045F80548046001E00120F2E74F
:100A80000020F0E7080000200C00002004000020F7
:100A900008B500BF002000900E48006840F4804078
:100AA0000C4908600846006800F48040009000BFD0
:100AB00000BF00BF00200090081F006840F0805079
:100AC000091F08600846006800F08050009000BFD1
:100AD00000BF08BD443802400146084600280DDB2F
:100AE00000BF00BF00F01F0301229A4043099B0092
:100AF00003F1E023C3F8002100BF00BF00BF70472F
:100B00002DE9F05F80460D461646002701F066FD90
:100B1000074639462A46334601F00700C0F1070A66
:100B2000BAF1040F02D94FF0040A01E0C0F1070A3C
:100B3000D14600F1040ABAF1070F02D24FF0000AC1
:100B400001E0A0F1030AD4464FF0010A0AFA09FABB
:100B5000AAF1010A0AEA020A0AFA0CFA4FF0010B9A
:100B60000BFA0CFBABF1010B0BEA030B4AEA0B048B
:100B70002146404601F03AFDBDE8F09F00BF00F07D
:100B80000702064B19684FF6FF031940044B0B434D
:100B900043EA0221014B196000BF70470CED00E0F1
:100BA0000000FA0570B504460D460CB9012070BD71
:100BB0005848006800F00700A84209D255490D7056
:100BC0000846006800F00700A84201D00120EEE7C7
:100BD000207800F0020002281DD1207800F00400E7
:100BE000042805D14C48006840F4E0504A490860A8
:100BF000207800F00800082805D14748006840F434
:100C00006040454908604448006820F0F000A16851
:100C1000084341490860207800F00100A8B36068EB
:100C2000012807D13C4808380068C0F34040B8B9F3
:100C30000120BCE76068022802D06068032807D161
:100C4000354808380068C0F3406048B90120AEE775
:100C5000314808380068C0F3400008B90120A6E711
:100C60002D48006820F00300616808432A490860A5
:100C7000FFF7DAFC064609E0FFF7D6FC801B41F2DD
:100C80008831884202D9032091E707E022480068B2
:100C900000F00C006168B0EB810FEDD11D480068D9
:100CA00000F00700A84209D91A490D7008460068EB
:100CB00000F00700A84201D0012078E7207800F07A
:100CC0000400042807D11448006820F4E050E168CB
:100CD000084311490860207800F00800082808D16E
:100CE0000D48006820F46040216940EAC1000A49CB
:100CF000086000F03FF808490968C1F30311074A8A
:100D0000515CC8400649086006480068FFF79AFE33
:100D100000204CE7003C024008380240E82600086A
:100D20000C0000200400002001480068704700000B
:100D30000C00002000B5FFF7F7FF04490968C1F374
:100D40008221034A515CC84000BD000008380240BF
:100D5000F826000800B5FFF7E7FF04490968C1F36A
:100D60004231034A515CC84000BD000008380240CF
:100D7000F82600082DE9F047002400250026A146AA
:100D80002548006800F00C0020B1042805D0082890
:100D90003AD105E0DFF8849039E0DFF8849036E05E
:100DA0001D48001F006800F03F041B48001F00683A
:100DB00000F4800078B11A481749091F0968C1F387
:100DC0008811A0FB01700146224600233846FFF738
:100DD000F9F905460EE011480F49091F0968C1F3EA
:100DE0008811A0FB01700146224600233846FFF718
:100DF000E9F905460848001F0068C0F30140401C9F
:100E00004600B5FBF6F902E0DFF8109000BF00BF26
:100E10004846BDE8F0870000083802400024F4008E
:100E200000127A00F8B504460CB90120F8BD20780C
:100E300000F00100002874D0F948006800F00C00B0
:100E400004280DD0F648006800F00C00082813D1E3
:100E5000F348001F006800F48000B0F5800F0BD14C
:100E6000EF4808380068C0F34040002859D0606857
:100E7000002856D10120D9E700BF6068B0F5803F57
:100E800008D1E7480838006840F48030E449083960
:100E900008601EE06068B0F5A02F0DD1E04808386A
:100EA000006840F48020DE49083908600846006880
:100EB00040F4803008600CE0D9480838006820F41D
:100EC0008030D749083908600846006820F480203F
:100ED000086000BF606890B1FFF7A6FB054606E01A
:100EE000FFF7A2FB401B642801D903209EE7CC48F2
:100EF00008380068C0F340400028F1D011E0FFF747
:100F000093FB054606E0FFF78FFB401B642801D9E1
:100F100003208BE7C24808380068C0F3404000282F
:100F2000F1D1207800F0020002285FD1BC480068AF
:100F300000F00C0058B1BA48006800F00C00082816
:100F40001CD1B748001F006800F48000B0B9B44855
:100F500008380068C0F3400020B1E068012801D0E3
:100F6000012063E7AE480838006820F0F8002169E6
:100F700040EAC100AA490839086037E0E06800B3D8
:100F80000120A8490860FFF74FFB054606E0FFF780
:100F90004BFB401B022801D9032047E7A048083833
:100FA0000068C0F340000028F1D09D480838006870
:100FB00020F0F800216940EAC10099490839086029
:100FC00014E0002097490860FFF72EFB054606E075
:100FD000FFF72AFB401B022801D9032026E790488F
:100FE00008380068C0F340000028F1D1207800F0F4
:100FF000080008282CD16069A8B101208A4908603E
:10100000FFF712FB054606E0FFF70EFB401B022828
:1010100001D903200AE782486C300068C0F3400021
:101020000028F1D014E000207F490860FFF7FCFAA7
:10103000054606E0FFF7F8FA401B022801D9032015
:10104000F4E677486C300068C0F340000028F1D126
:10105000207800F00400042870D100277048383050
:10106000006800F0805090B900BF002000906C48EC
:101070003830006840F080506949383108600846CF
:10108000006800F08050009000BF00BF0127674853
:10109000006800F48070B0B96448006840F4807063
:1010A00062490860FFF7C0FA054606E0FFF7BCFAA0
:1010B000401B022801D90320B8E65C48006800F410
:1010C00080700028F2D000BFA068012808D15448E1
:1010D0006830006840F001005149683108601DE047
:1010E000A06805280DD14E486830006840F0040023
:1010F0004B49683108600846006840F0010008600C
:101100000CE047486830006820F00100444968312D
:1011100008600846006820F00400086000BFA0686E
:10112000A8B1FFF781FA054609E0FFF77DFA401BF9
:1011300041F28831884202D9032077E626E0384818
:1011400068300068C0F340000028EED013E0FFF7DD
:101150006BFA054608E0FFF767FA401B41F2883159
:10116000884201D9032061E62D4868300068C0F349
:1011700040000028EFD1012F07D1294838300068FE
:1011800020F0805026493831086000BFA06900284F
:1011900045D02348006800F00C0008285DD0A06905
:1011A000022845D100201F490866FFF73DFA054691
:1011B00006E0FFF739FA401B022801D9032035E683
:1011C000174808380068C0F340600028F1D1D4E91E
:1011D00007010843616A40EA81110122A06AC2EB5B
:1011E000500041EA00412C20005D41EA00600C49BA
:1011F000091F086001200B490866FFF715FA05462C
:1012000006E0FFF711FA401B022801D903200DE682
:10121000034808380068C0F340600028F1D049E076
:101220000838024000004742800E474200700040EC
:10123000002021490866FFF7F7F9054606E0FFF7A9
:10124000F3F9401B022801D90320EFE51B48006891
:10125000C0F340600028F2D12CE0A069012800D141
:10126000E4E51648001D0668A069012820D006F4B0
:101270008001E06981421BD106F03F01206A814272
:1012800016D147F6C0703040616AB0EB811F0FD1B4
:1012900006F440310122A06AC2EB5000B1EB004FCE
:1012A00006D106F070612C20005DB1EB006F01D01B
:1012B0000120BBE50020B9E50000474200380240AC
:1012C00070B504462546681EB0F1807F01D3012029
:1012D0000FE0681E4FF0E02148610F214FF0FF3012
:1012E00001F084F900204FF0E021886107200861B7
:1012F000002070BD704770472DE9F84F0446206804
:1013000005682068C668206847694FF00009CA462A
:1013100005F00F09B9F1000F0AD105F0200038B12E
:1013200006F0200020B1204600F06AFFBDE8F88FEB
:10133000B9F1000F7CD007F0010018B906F49070E5
:10134000002875D005F0010030B106F4807018B1A6
:10135000606C40F00100606405F0040030B107F0FB
:10136000010018B1606C40F00200606405F00200FA
:1013700030B107F0010018B1606C40F00400606407
:1013800005F0080048B106F0200010B907F0010090
:1013900018B1606C40F008006064606C002846D0B2
:1013A00005F0200028B106F0200010B1204600F022
:1013B00027FF20684069C0F3801A606C00F00800C5
:1013C00010B9BAF1000F2DD0204600F0D3FE2068EE
:1013D000406900F04000402820D100BF00BF2168D4
:1013E000143151E8001F21F040002168143141E818
:1013F0000002002AF3D100BFE06B50B17748E16BE7
:101400000865E06BFEF7DDFF88B1E06B016D884792
:101410000DE02046FFF76FFF09E009E02046FFF7E7
:101420006AFF04E02046FFF766FF002060647DE766
:10143000206B012878D105F01000002874D006F048
:1014400010000028FAD000BF00200090206800683B
:10145000009020684068009000BF00BF206840698D
:1014600000F04000402860D1E06B006840681FFA3F
:1014700080F8B8F1000F56D0A08D404553DDA4F898
:101480002E80E06BC069B0F5807F43D000BF00BF05
:1014900021680C3151E8001F21F4807021680C3163
:1014A00041E80002002AF3D100BF00BF00BF21685D
:1014B000143151E8001F21F001002168143141E886
:1014C0000002002AF3D100BF00BF00BF2168143121
:1014D00051E8001F21F040002168143141E800026A
:1014E000002AF3D100BF202084F8420000202063AE
:1014F00000BF00BF21680C3151E8001F21F010002F
:1015000021680C3141E80002002AF3D100BFE06BF2
:10151000FEF701FF02206063A08DE28D801A81B288
:101520002046FFF7E7FE01E742E0A08DE18D401A7B
:101530001FFA80F8E08DD0B3B8F1000F37D000BFAC
:1015400000BF21680C3151E8001F21F49070216820
:101550000C3141E80002002AF3D100BF00BF00BFF8
:101560002168143151E8001F21F001002168143175
:1015700041E80002002AF3D100BF202084F8420095
:101580000020206300BF00BF21680C3151E8001F1C
:1015900021F0100021680C3141E80002002AF3D14B
:1015A00000BF0220606341462046FFF7A3FEBDE670
:1015B00005F0800030B106F0800018B1204600F040
:1015C000D3FFB3E605F0400030B106F0400018B19B
:1015D000204600F005FEA9E600BFA7E6612100084D
:1015E00010B504460CB9012010BDA06900B100E09F
:1015F00000BF94F8410028B9002084F8400020463C
:1016000000F02AF8242084F841002068C06820F403
:1016100000502168C860204600F070FE2068006914
:1016200020F49040216808612068406920F02A0079
:10163000216848612068C06840F400502168C86093
:1016400000206064202084F8410084F842000020DB
:10165000606300BFC8E7000010B586B004461421DF
:1016600001A8FEF7E7FD1F492068884238D100BF76
:10167000002000901C48006840F010001A490860E3
:101680000846006800F01000009000BF00BF00BFD7
:101690000020009014481438006840F001001249FE
:1016A000143908600846006800F00100009000BF8F
:1016B00000BF4FF4C0600190022002900020039010
:1016C000032004900720059001A90848FEF7A2FE18
:1016D000002211462520FFF713FA2520FFF7FCF919
:1016E00006B010BD00100140443802400000024026
:1016F00070B504460D46164694F8420020280BD1DA
:1017000005B10EB9012070BD002020633246294684
:10171000204600F009FFF6E70220F4E770470000DA
:1017200010B504460448844205D100224FF480617C
:101730000248FEF773FF10BD14150020000C024094
:1017400000BFFEE7014608684069C0F38020B0B1E1
:101750006FF480600A68506100200863202081F8DF
:101760003D00002081F83E00086C40F00400086451
:1017700000BF002081F83C0000BF0120704700201E
:10178000FCE700002DE9F8430446884615469946D3
:10179000DDE908672068006840F48070216808600F
:1017A000334600224FF001112046009700F08DF8DB
:1017B00060B12068006800F48070B0F5807F02D1CD
:1017C0004FF4007020640320BDE8F88308F0FE00A9
:1017D000216808613B4632462149204600F0D4F892
:1017E00008B10120F0E700BF0020009020684069A8
:1017F000009020688069009000BF00BF3A463146E3
:10180000204600F03EF950B1206C042805D1206834
:10181000006840F40070216808600120D4E7B9F145
:10182000010F03D1E8B22168086117E0C5F3072072
:10183000216808613A463146204600F022F950B14D
:10184000206C042805D12068006840F400702168ED
:1018500008600120B8E7E8B2216808610020B3E71A
:101860000200010070B504460D46164625E02046EC
:10187000FFF768FF08B1012070BD681CE8B1FEF7F2
:10188000D3FE801BA84200D8BDB920684069C0F3D0
:10189000800090B900202063202084F83D000020C3
:1018A00084F83E00206C40F02000206400BF00203F
:1018B00084F83C0000BF0120DEE720684069C0F3E7
:1018C00080000028D3D00020D6E72DE9F04104465F
:1018D0000D4617461E46DDF8188038E0701CA8B388
:1018E000FEF7A2FEA0EB0800B04200D876BBC5F31D
:1018F000074001280AD120684069A9B20840A9B26E
:10190000884201D101200BE0002009E020688069B5
:10191000A9B20840A9B2884201D1012000E000200C
:10192000B84214D100202063202084F83D0000201C
:1019300084F83E00206C40F02000206400BF0020AE
:1019400084F83C0000BF0120BDE8F081FFE7C5F34B
:10195000074001280AD120684069A9B20840A9B20D
:10196000884201D101200BE0002009E02068806955
:10197000A9B20840A9B2884201D1012000E00020AC
:10198000B842ABD00020DFE72DE9F04104460D4618
:1019900016461F4658E020684069C0F38020E8B131
:1019A0002068006840F40070216808606FF480606F
:1019B0002168486100202063202084F83D00002039
:1019C00084F83E00206C40F00400206400BF00203A
:1019D00084F83C0000BF0120BDE8F081701C90B38A
:1019E000FEF722FEC01BB04200D866BBC5F307401D
:1019F00001280AD120684069A9B20840A9B28842EA
:101A000001D101200BE0002009E020688069A9B223
:101A10000840A9B2884201D1012000E0002090B91D
:101A200000202063202084F83D00002084F83E0040
:101A3000206C40F02000206400BF002084F83C00AF
:101A400000BF0120C8E7FFE7C5F3074001280AD11E
:101A500020684069A9B20840A9B2884201D101209A
:101A60000BE0002009E020688069A9B20840A9B213
:101A7000884201D1012000E0002000288BD0002006
:101A8000AAE770B504460D46164625E02046FFF746
:101A900059FE08B1012070BD681CE8B1FEF7C4FD15
:101AA000801BA84200D8BDB920684069C0F3C010AF
:101AB00090B900202063202084F83D00002084F8A5
:101AC0003E00206C40F02000206400BF002084F81D
:101AD0003C0000BF0120DEE720684069C0F3C01071
:101AE0000028D3D00020D6E700B587B0142102A883
:101AF000FEF7A0FB00BF002001903248006840F0D4
:101B00008000304908600846006800F080000190BD
:101B100000BF00BF00BF002001900846006840F0F1
:101B2000020008600846006800F00200019000BF53
:101B300000BF00BF002001900846006840F001008F
:101B400008600846006800F00100019000BF00BF77
:101B5000002289151C48FEF761FD002260211B4808
:101B6000FEF75CFD4FF4807002900120039000208E
:101B70000490059002A91448FEF74CFC60200290E6
:101B80000120039000200490059002A90F48FEF761
:101B900041FC4FF4806002901220039000200490DA
:101BA000032005900420069002A90848FEF732FCA5
:101BB0004FF40060029002A90448FEF72BFC07B026
:101BC00000BD000030380240000002400004024026
:101BD00010B50B480B4908600B48486000210948C4
:101BE0008160C1604FF480410161002141618161E8
:101BF000C1610162FEF71EFD08B1FEF789FB10BD51
:101C000000580040C0140020801A060010B50B4890
:101C10000B4908604FF4E1304860002108488160BA
:101C2000C16001610C21416100218161C161FFF747
:101C3000D7FC08B1FEF76CFB10BD0000001001409E
:101C40001415002000BFFEE700BFFEE72DE9F047B6
:101C500005460E4690464FF00009B8F1010F09D035
:101C6000B8F1020F1DD0B8F1030F31D0B8F1040F55
:101C700030D12EE0002411E03219D1B2E8B200F0E8
:101C800057F9002707E0102101FB0471134A505C4B
:101C900000F0E8F97F1C102FF5DB641C022CEBDB55
:101CA00018E0002411E03219D1B2E8B200F040F996
:101CB000002707E0102101FB0471094A505C00F085
:101CC000D1F97F1C102FF5DB641C022CEBDB01E04B
:101CD00000E000BF00BFBDE8F0870000280800203A
:101CE000480800202DE9F04706460F46914600259A
:101CF000B9F1010F09D0B9F1020F3CD0B9F1030FCE
:101D000070D0B9F1040F35D1A2E0002414E03A19E3
:101D1000D1B2F0B200F00CF94FF0000808E0202139
:101D200001FB0481674A505C00F09CF908F101084E
:101D3000B8F1100FF3DB641C042CE8DB002517E07E
:101D40007A19D1B206F11002D0B200F0F1F84FF0DA
:101D5000000809E0202101FB05811031594A505C3F
:101D600000F080F908F10108B8F1100FF2DB6D1CEA
:101D7000042DE5DBA2E0002414E03A19D1B2F0B260
:101D800000F0D6F84FF0000808E0202101FB0481A4
:101D90004D4A505C00F066F908F10108B8F1100FE7
:101DA000F3DB641C042CE8DB002517E07A19D1B2C0
:101DB00006F11002D0B200F0BBF84FF0000809E0C5
:101DC000202101FB058110313F4A505C00F04AF9A7
:101DD00008F10108B8F1100FF2DB6D1C042DE5DBF2
:101DE0006CE0FFE7002414E03A19D1B2F0B200F041
:101DF0009FF84FF0000808E0202101FB0481334ADE
:101E0000505C00F02FF908F10108B8F1100FF3DB76
:101E1000641C042CE8DB002517E07A19D1B206F126
:101E20001002D0B200F084F84FF0000809E0202141
:101E300001FB05811031254A505C00F013F908F1CF
:101E40000108B8F1100FF2DB6D1C042DE5DB35E065
:101E5000002414E03A19D1B2F0B200F069F84FF062
:101E6000000808E0202101FB0481194A505C00F0C1
:101E7000F9F808F10108B8F1100FF3DB641C042C29
:101E8000E8DB002517E07A19D1B206F11002D0B2D2
:101E900000F04EF84FF0000809E0202101FB058119
:101EA00010310B4A505C00F0DDF808F10108B8F180
:101EB000100FF2DB6D1C042DE5DB00BF00BFBDE899
:101EC000F087000068080020E80800204012002089
:101ED0004013002070B5002415E004F1B001C8B231
:101EE00000F0ACF8002000F0A9F8102000F0A6F8EF
:101EF000002504E0002000F0B5F8681CC5B2802D74
:101F0000F8DB601CC4B2082CE7DB70BD10B56420A0
:101F1000FEF76CFA002405E00449085D00F08EF835
:101F2000601CC4B2192CF7DB10BD000000270008AC
:101F300070B504460D4605F1B001C8B200F07EF858
:101F400004F00F0000F07AF8102141EA141000F0BC
:101F500075F870BD2DE9F04707460D4690469A4644
:101F60004FF0000900240026BAF1010F03D0BAF1A6
:101F7000020F5BD124E01EE018F80600203800F0C4
:101F8000FF097E2F01DD00276D1CE9B23846FFF7FF
:101F9000CFFF002409E009EB4901264A02EB410189
:101FA000085D00F05FF8601CC4B2062CF3DBB81DBE
:101FB000C7B2701CC6B218F806000028DCD135E0A4
:101FC0002FE018F80600203800F0FF09782F01DD17
:101FD00000276D1CE9B23846FFF7AAFF002407E08E
:101FE00004EB0911144A505C00F03CF8601CC4B2C8
:101FF000082CF5DB681CC1B23846FFF799FF0024B6
:1020000008E004EB091108310B4A505C00F02AF893
:10201000601CC4B2082CF4DB07F10800C7B2701CC6
:10202000C6B218F806000028CBD100BF00BFBDE83B
:10203000F087000010000020900B00201FB5044620
:1020400003944FF6FF70012103AA0B46CDE900214E
:102050000290002278210248FEF7D4FB1FBD000049
:10206000C01400201FB5044603944FF6FF700121F1
:1020700003AA0B46CDE900210290402278210248B4
:10208000FEF7C0FB1FBD0000C01400207047704762
:1020900010B5FEF7ADFC10BD00B593B0302107A818
:1020A000FEF7C8F8142102A8FEF7C4F800BF00200C
:1020B00001902448006840F080502249086008469A
:1020C000006800F08050019000BF00BF00BF0020FA
:1020D00001901D48006840F480401B490860084694
:1020E000006800F48040019000BF00BF012007900D
:1020F0000004089002200D9041050E9104210F91DB
:10210000A8211091022111910421129107A8FEF734
:1021100089FE08B1FEF7FCF80F2002900220039020
:10212000002004904FF4A05005904FF4805006908A
:10213000052102A8FEF736FD08B1FEF7E9F813B055
:1021400000BD0000403802400070004003480068B5
:1021500040F47000014908607047000088ED00E01D
:1021600070B50546AC6B0020E085E0842046FFF7A3
:10217000C2F870BD00BF00BF02680C3252E8002FE9
:1021800022F4907102680C3242E80013002BF3D164
:1021900000BF00BF00BF0268143252E8002F22F0D7
:1021A00001010268143242E80013002BF3D100BF92
:1021B000016B01290ED100BF00BF02680C3252E84A
:1021C000002F22F0100102680C3242E80013002BAD
:1021D000F3D100BF202180F8421000210163704735
:1021E00010B504462068C06820F040002168C8602F
:1021F000202084F841002046FFF792FA002010BD0D
:10220000F8B5044694F84200222875D1A068B0F5CC
:10221000805F0CD1206950B90025A66A206840680B
:10222000C0F308003080A06A801CA06215E0A56A97
:102230000026A068B0F5805F03D0A06828B92069A7
:1022400018B920684068287004E02068406800F0F1
:102250007F002870A06A401CA062E08D401E80B202
:10226000E085002846D12068C06820F02000216861
:10227000C8602068C06820F480702168C860206849
:10228000406920F0010021684861202084F8420064
:1022900000206063206B012826D10020206300BF4E
:1022A00000BF21680C3151E8001F21F010002168A7
:1022B0000C3141E80002002AF3D100BF2068006819
:1022C00000F0100010280AD100BF00200090206804
:1022D0000068009020684068009000BF00BFA18D9A
:1022E0002046FFF707F802E02046FFF717FA002024
:1022F000F8BD01E00020FBE70220F9E72DE9F84FE7
:1023000004462068006920F44050E16808432168D1
:1023100008612169A068084361690843E1690843CD
:1023200000902068C06849F20C6188430099084316
:102330002168C8602068406920F44070A1690843A2
:102340002168486176492068884203D07549206831
:10235000884203D1FEF7FEFC814602E0FEF7EAFC6C
:102360008146E069B0F5004F6CD102206168A0FBA6
:10237000015003461920A9FB007001462A46384641
:10238000FDF720FF6421B0FBF1F04FEA001A0220B4
:102390006168A0FB01510B461920A9FB00712A4678
:1023A0003846FDF70FFF834602206168A0FB01500D
:1023B00003461920A9FB00712A463846FDF702FFA3
:1023C0006421B0FBF1F000EBC00101EB0010ABEBBE
:1023D0008000322101EBC0006421B0FBF1F000F07D
:1023E000F8000AEB400A02206168A0FB0150034696
:1023F0001920A9FB007001462A463846FDF7E2FE87
:10240000834602206168A0FB015003461920A9FB06
:1024100000712A463846FDF7D5FE6421B0FBF1F085
:1024200000EBC00101EB0010ABEB8000322101EBAF
:10243000C0006421B0FBF1F000F0070050442168B7
:1024400088606AE004206168A0FB015003461920FF
:10245000A9FB007001462A463846FDF7B3FE8246C6
:1024600004206168A0FB015003461920A9FB0070FD
:1024700001462A463846FDF7A5FE6421B0FBF1F07F
:1024800000EBC00101EB0010AAEB8000322101EB50
:1024900000106421B0FBF1F000F0F00A0420616844
:1024A000A0FB017003461920A9FB00513A462846BB
:1024B000FDF788FE6421B0FBF1F00AEB001A04205E
:1024C0006168A0FB01510B461920A9FB00712A4647
:1024D0003846FDF777FE834604206168A0FB015073
:1024E00003461920A9FB007001462A463846FDF72D
:1024F00069FE6421B0FBF1F000EBC00101EB0010BC
:10250000ABEB8000322101EB00106421B0FBF1F055
:1025100000F00F00504421688860BDE8F88F00008B
:10252000001001400014014010B5034699629A85DD
:10253000DA8500205864222083F84200186928B107
:102540001868C06840F480701C68E06018684069D2
:1025500040F001001C6860611868C06840F020000D
:102560001C68E060002010BD014691F84100212860
:1025700028D18868B0F5805F0BD1086948B90A6A2C
:102580001088C0F308000B685860086A801C086255
:1025900005E00B6A581C086218780B685860C88CF4
:1025A000401E80B2C88458B90868C06820F0800016
:1025B0000B68D8600868C06840F040000B68D860BD
:1025C000002070470220FCE710B50248FEF794FE99
:1025D00010BD00001415002000BFFEE7024800688F
:1025E000C0F30220704700000CED00E010B5002899
:1025F00004DB0A07130E054A135406E00A07140EFB
:10260000034A00F00F031B1FD45410BD00E400E088
:1026100018ED00E002E008C8121F08C1002AFAD134
:1026200070477047002001E001C1121F002AFBD152
:1026300070470000FEF7E8F9FFF72EFDFFF754FAA8
:10264000FFF7E4FAFFF7C4FA642222492248FFF7B1
:102650004FF864221F492048FFF74AF81E480068D7
:10266000C06840F010001C490968C860FFF74EFCC4
:10267000FFF730FC012200212020FFF7E7FA0222B9
:1026800000214020FFF7E2FA042200210846FFF76C
:1026900029FB012311A205210020FFF75BFC022387
:1026A0000EA206210020FFF755FC02220021602027
:1026B000FFF718FB012204214820FFF713FB07E076
:1026C0004FF480710748FDF79FFF6420FDF78EFEF1
:1026D000F6E70000C0130020141500203132333417
:1026E0006173640000000240000000000000000070
:1026F00001020304060708090000000001020304A8
:10270000AED580A83FD300408D102002A1C8DA12B8
:1027100081F0D971DB00A4A6AF0000003C270008BF
:1027200000000020C0130000AC020008AC3000081C
:10273000C0130020A005000024260008120001128A
:102740001004220109700424F40001222F1A120738
:1027500002100400147F02201700242A7F2A12008E
:1027600062640813230036495522500000050335E2
:1027700010041C22412F100441221C2A1007083E7D
:1027800008140008061208131004A060000C1101C0
:1027900010040000600B1012002010080402003E1C
:1027A0005149453E0000427F400510216151494694
:1027B000002141454B31001814127F100027454578
:1027C0004539003C4A494930000171096220103600
:1027D0004949493600064949291E000036369B22E0
:1027E000560623081478221401217E30171408009D
:1027F000020151090600324959513E007C12111262
:102800007C007F3C10083E41414122007F05321C84
:1028100012100841007F0909090118100649497A78
:10282000007FA3127FC0127F4E10062040413F015F
:1028300012215B137F4001300D007F020C027F00EC
:102840007F0408107F48323E3C12063C10045121A0
:102850005E0C10061929460046A2100A310001013B
:102860007F0101003F3610083F001F2040201F0C51
:1028700012380C100D631408146300070870080761
:1028800000EF20044543008B10050000552A02117B
:102890007812417D20070402010204007115152100
:1028A0000B2013002054545478007F4844443800CF
:1028B0003844444420061005487F003818100D188D
:1028C00000087E0901020018A4A4A4E41409080465
:1028D00004780000447D5010054080847D5F24040E
:1028E00010284492256210047C04181E327C242196
:1028F00048100A3800FC2424241800180532FC185B
:1029000010040800486C10102000043F44402000D0
:102910003C4040207C001CC0121C0C200730403C76
:102920000044284F540D1CA0A0A07C004464544CCB
:10293000441474F10152F8083A33401004100C02A8
:1029400003811E100440C0780311EC133F040310F0
:10295000180000708888FC08300000182020FF2133
:102960001E00F008F08060183E1005310C031E10A8
:1029700011111B887035E00C1E21232C1927211002
:1029800000120E703004E01804601004071820FCD8
:102990003005020418E0681B2018B4154D1404809B
:1029A000F080C140070202010F01028831201301AB
:1029B000011173010146C390705632010181B87351
:1029C00030307113C038B832605F117E10051008C6
:1029D00008107220070F102020100FF14610011070
:1029E0000620203F2020E029FB12F040100528247B
:1029F0002221E812300F21D22C05182021212C038E
:102A0000200500804030312C0D060524243F24246D
:102A100000F88888882B0310061920202011EC1C50
:102A200006E0108888909D03130F1111161F2811BE
:102A30003F2668213F003EAC0343708850431C2270
:102A40005043F008902006011222221190C0040089
:102A5000C0C0C2668038510F1E409103396F130801
:102A600010B05A407F3202011D60036C05102040F7
:102A700080B6031172437048C0115026370C1405FC
:102A800030C828E8003408071827282F28171E25E3
:102A900080200A203C23020227382008D0119F25DD
:102AA0000D21D026C000270838AD1530400508009C
:102AB00008F8B03120154021303004E8081030A06B
:102AC00004232018102E00670431403638ED20050D
:102AD00020221E02401D04041009F808203F210195
:102AE000012125220852857F5200111C05C08080DB
:102AF00080620321602005C0281808704005012667
:102B00003820405200A0132030201004F800F85460
:102B10002006203F013E014F4004F830C0601220E3
:102B2000E4363FEF21B025EF41B045E0318093011D
:102B300000203006282830504FC0250131C0340411
:102B40000C3020B021C14A380032189F421882311F
:102B5000A041D01D3C0435F010080878880000C85A
:102B60003815140407380E7F12089F22002414051C
:102B7000033E013E11401408186880806818082040
:102B8000302C03032C30200838C82F5150218F21BE
:102B90003F38072038262120203836FED83E00DA7C
:102BA000041D88035A381F20040001060B15F83E47
:102BB000FEA803274040302D95042D8904ED7503B0
:102BC000528001F2001E21151D0F06140519242440
:102BD0001240400410F000104B3F11D061212A0E2A
:102BE000D042114A1E90200321F02210B331561119
:102BF000101DA0041A245094078080E0909020D0EB
:102C000041774008006B949494936060110F158095
:102C100041F3AC048098987F03216131125901116E
:102C20009031311406203F2406298FEDAF0361D780
:102C3000214B2103112BC16071A045A031202165DA
:102C400083FF91E02D630321E03391FF4C31501954
:102C5000A13E205E0751C02233E03219E045312504
:102C60000252104D7680106140293D430C035D21D6
:102C7000123009010E300C07380601CD31A144068F
:102C8000310E2E31200D21751005818678181F51C7
:102C9000D13C06000021302C800429024AFC012F7F
:102CA000013E68065C040000FFB90521084C0402DF
:102CB00002FCA7054E405F041D4E0715E29DC005AE
:102CC0003D39061C09E4041F6484453684700610EF
:102CD0000A437848497A494C4A79071F47407705A3
:102CE0001C06504C4344484A0442F8513C0C44D81A
:102CF000414620382720000F4081034DB30563C0B3
:102D00004001700D5CF8C84044485878404060402D
:102D1000642EFF8E071D1A032AFCE92C089FF8E099
:102D2000B01C0F06AA0435D93C1B180C07F9F0108B
:102D3000111216F6F314141212F1F1101011F3FB24
:102D400016060C0FCB03121001D31F1F0621058896
:102D500004181810BF1C05E0781C281C06457A369C
:102D6000C0C36D0A04200810181C16131090481CCC
:102D7000051811870FA406A7FFFF2715381DC006E9
:102D80002409013E380080701F07D3977F3F471CFE
:102D90000508381818A5054C08080C040605040495
:102DA00045051182BC0430703F27030DFF58090D03
:102DB000FF58090D3758093DC6031004100C0603CF
:102DC000DD57095E4057093D58093D57091D680800
:102DD0004EFF47091EF029091DDC0BEF211C580985
:102DE0002E2458090F3F101658095EF05709AE1FE0
:102DF00057090F1380B058090E120158091DF9091F
:102E00001E0458092DB6040D105809DD57093D5808
:102E1000092D59088D58094C04888848480A4D687E
:102E2000063FC020DA052F070458092DDE035D5840
:102E3000098E2158095E18580921104E3828072D8F
:102E4000AA060E120058096DE8090F1D0031580935
:102E50000F12806058095DF004430004010D1458FE
:102E6000092D280A1D5809BF360158090C05C92427
:102E700023140B580915600D3A58091D5A030E51B9
:102E80003858091DF3092EF85D091F033CEC0E0F9D
:102E9000403C0358090F200C3058090D1159090DF9
:102EA0001B58092D7808180719242222223F000DEB
:102EB0001E58091D5A084388F810BD5809113F2FA4
:102EC000221358091AF0420E1618580931600D29BC
:102ED0005809153B6D58092F022D580919300D441A
:102EE00058099EA1380A5D58090E2EA058090E13E4
:102EF00000580931411D49093E0847093E00A9090A
:102F00001E0F66095C040C300F69093D58099F2E9D
:102F10000E58090C051680818E7058095F807C61FF
:102F20000E0E103F58091D59093E7C080B2DC00696
:102F30002DFB072F0601590975E41E40BA101FF436
:102F400002A6046708FF3ABD2F08FC10084482411E
:102F50003F00206321213F21293360900B1C062074
:102F600010E8242799090C061124342C20E0950F31
:102F70001C0480601FB1101E09B61000041149899D
:102F80007F201DCB06000B11545556547C545655CA
:102F9000547C1E1DD80543FD4501BEFD180F0D10C4
:102FA000190C3C070040E0E06000350E8C05808085
:102FB00060607509200A0090B2666EECC983021D3C
:102FC0001C060C0C010307D50E834080E45C0A1834
:102FD0003B3766EEEECC88808F0E31013DC40E1D6E
:102FE000EE0E1DFA071C043E007E2A0810077E0024
:102FF0007E003C420113007E06527E1415F17009DA
:10300000C0E0E0E0F0F0F0F801110D11133DDE0931
:10301000133E3F0170089FCFE7E7F3F3F901200764
:10302000F3F3E7E7CF9F1A3E3E4110120F01400E27
:103030000703E3F1F9F9F8F8F9F9F1E30312D58B95
:103040003004070F1F01B11912FF01233F1F3F106A
:103050000483C3E1411008F9F1E1C18303072C2384
:103060003F7F1C300AFF1F1F3C7870F8FCFE0D22CA
:103070007F16123F171008FEFCF8E070703B0B4AF9
:10308000E0AD1301037510080C1C3838181C0E4DE8
:103090003E030C0733C0FC3612FCD111CF5EC024B6
:0C30A0000413C0C0F152F0530000000007
:040000050800018965
:00000001FF
