:020000040800F2
:10000000B02600209D010008052B00085528000897
:10001000012B000831060008293600080000000006
:10002000000000000000000000000000AF01000818
:1000300041060008000000009D020008530200086D
:10004000B7010008B7010008B7010008B7010008B0
:10005000B7010008B7010008450600084D06000872
:10006000B7010008B701000855060008B7010008ED
:10007000B7010008B7010008B7010008B701000880
:10008000B7010008B701000855050008B7010008CE
:10009000B7010008B7010008B7010008B701000860
:1000A000B7010008B7010008B7010008B701000850
:1000B000B7010008B7010008B7010008B701000840
:1000C000B7010008B7010008B7010008B701000830
:1000D000B7010008B70100081D360008B701000885
:1000E000B7010008B7010008B7010008B701000810
:1000F000B7010008B7010008B7010008B701000800
:10010000B7010008B7010008B7010008B7010008EF
:10011000B7010008B7010008D1320008B701000894
:1001200035060008B7010008B7010008B70100084C
:10013000B7010008B7010008B7010008B7010008BF
:10014000B7010008B7010008B7010008B7010008AF
:10015000B7010008B7010008B7010008B70100089F
:10016000B7010008B7010008B7010008B70100088F
:10017000B7010008B7010008B7010008000000003F
:10018000B7010008B7010008DFF80CD000F0D0F983
:10019000004800479D410008B026002006488047DF
:1001A00006480047FEE7FEE7FEE7FEE7FEE7FEE75C
:1001B000FEE7FEE7FEE7FEE7BD3200088901000822
:1001C00004170020B0260020000000088817002037
:1001D00000000008001000E03F9002000000FF4017
:1001E00072B65FF824005FF8241001F10401016089
:1001F0004FF0E0205FF83010C0F8081D5FF83400C1
:100200005FF83410096801605FF83800016841F058
:10021000010101604FF0E0205FF8441041614FF0B0
:10022000070101614FF00001C0F8181D4FF07F4138
:10023000C0F81C1D5FF85C10C0F8201D7047FFF768
:10024000FEBFFFF7FEBFFFF7FEBF01B5BDE80140EF
:10025000704701B500F094F8BDE801407047FFF722
:10026000FEBFFFF7FEBF000000000000000000001E
:100270004FF000002A4A1060EFF3148020F00400D1
:1002800080F3148862B64FF080504FF0E021C1F83F
:10029000040DBFF34F8FBFF36F8FFEE72148224A53
:1002A0004FF00003016891B10360EFF3098C2CE972
:1002B000F00F1EF0100F01D12CED108A1B4C4CF8E2
:1002C00004ED2568C1F808C00DB18D61236072B6D8
:1002D0001168B1B1016062B64F68154C8D6907F1C4
:1002E00001074F602560D1F808C05CF804EB1EF0F0
:1002F000100F01D1BCEC108ABCE8F00F8CF3098818
:10030000704772B61168016009B962B6F9E74FF03B
:1003100000674FF0E028C8F8047D62B6DCE770475C
:10032000C8000020B0000020B4000020D800002049
:10033000D8000020000000000000000000000000C5
:10034000026922F00702A2F144026FF00203136077
:100350004FF0000353609360D36013615361936166
:10036000D361136253629362D362136353634FF09A
:10037000FF339363D1634FF08073136482607047DF
:100380002249086800F101000860214B1A683AB15F
:10039000A2F101021A601AB91E4B4FF00100186059
:1003A0001D490868026822B11C4B4FF001021A6017
:1003B00008E000F104001A4B1A68904201D1194B71
:1003C00018680860184B1A6812B918490868D0B143
:1003D0002DE901401649086808B103F0B5FC154B3A
:1003E0001A6872B103F05CFC1348016849B91348FC
:1003F0000168134A136813484FF08052994200D0A5
:100400000260BDE80140BFF34F8F7047D400002069
:10041000D8000020DC000020EC000020E0000020DC
:10042000F0000020E8000020DC000020E0000020B8
:10043000E0000020DC000020C8000020B000002008
:10044000B400002004ED00E02DE9F05F0546002037
:1004500092469B4688460646814640241BE0284635
:1004600041464746224600F053F853465A46C01AC2
:10047000914110D311461846224600F03AF82D1A41
:1004800067EB01084F4622460120002100F031F8B9
:1004900017EB00094E41201EA4F10104DFDC4846A1
:1004A00031462A464346BDE8F09F40EA01039B07D8
:1004B00003D009E008C9121F08C0042AFAD203E0D9
:1004C00011F8013B00F8013B521EF9D27047D2B23D
:1004D00001E000F8012B491EFBD270470022F6E72D
:1004E00010B513460A4604461946FFF7F0FF2046AA
:1004F00010BD202A04DB203A00FA02F100207047E8
:100500009140C2F1200320FA03F319439040704751
:10051000202A04DB203A21FA02F00021704721FA58
:1005200002F3D040C2F120029140084319467047BF
:10053000064C074D06E0E06840F0010394E8070030
:1005400098471034AC42F6D3FFF722FEC8420008A9
:10055000E842000841F6BC40C2F2000000F028B9B1
:1005600080B586B040F2081300204FF48062C2F2DA
:1005700000031421CDE90032049040F2085040F20B
:10058000B5524FF0010CCDE90211C2F2000005A1F5
:10059000C0F600020023CDF814C003F0CDF806B079
:1005A00080BD00BF4C454420424C5545205441532A
:1005B0004B0000000024C4F2020400BF4FF47A7024
:1005C00003F0A4F920464FF4807100F079FDF5E7BF
:1005D00080B586B041F26860C2F20000002140F2AE
:1005E000B852017101604FF48050C2F20002CDE9AF
:1005F000002041F2B85040F261524FF0010C0491DA
:10060000C2F2000006A1C0F600020023CDE902CC30
:10061000CDF814C003F090F8002006B080BD00BFF4
:10062000415050205354415254205441534B0000E8
:10063000FEE7000041F60450C2F2000000F0AEBA3E
:1006400070470000012000F051BC0000022000F0C3
:100650004DBC0000102000F049BC000072B600BF85
:10066000FEE700007047000070B581B000220092E4
:1006700090F83C20012A03D10221084601B070BD48
:10068000D1F800E00122BEF10A0F80F83C200BD324
:100690001FFA8EF25200066812FA8EF2A2F11E03C1
:1006A00006F10C0205E000BF06680EEB4E0306F1F2
:1006B00010024FF0070C15680CFA03F4A5431560FF
:1006C0008D68146805FA03F323431360496806290B
:1006D00006D801EB8101053906F134020AE000BFBA
:1006E0000C2901EB810187BF413906F12C02233926
:1006F00006F130021F2314688B4024EA030342F200
:10070000043C1360C4F2010C1FFA8EF3146803FA60
:1007100001F1ACF5417321439E4211603ED1BEF11F
:10072000120F07D1DCF8001041F48001CCF8001062
:1007300034E000BF2EF0010110292FD1DCF80010A9
:10074000BEF1100F41F40001CCF8001026D140F2A8
:100750000C01C2F2000109684DF68362C4F21B323B
:10076000A1FB0212910C01EB81014900009100995B
:10077000A1B1009901390091009979B1009901392D
:100780000091009951B1009901390091009929B166
:1007900000990139009100990029EAD1002180F8DF
:1007A0003C10084601B070BD704700007047000063
:1007B00070B50446006806684568B10717D515F09E
:1007C000200114D0216CC90603D4216C41F40071BE
:1007D0002164816811F0405F02D1217E002969D037
:1007E0002046FFF7E1FF20686FF0120101607107FA
:1007F00014D515F0800111D0216CC90603D4216CE9
:1008000041F400512164816811F4401F22D0204638
:10081000FFF728FF20686FF00C010160F10706D098
:1008200015F040011CBF01685FEAC17134D1B10607
:100830000FD515F0806108BF70BD616C6FF02005A9
:1008400041F00201616405602046FFF7AFFF2068B8
:10085000056070BD816B11F4401F02D081684905AD
:10086000D5D441684905D2D4816811F0405FCED11A
:10087000217E0029CBD1416821F080014160206CAC
:1008800020F480502064206CC005C0D4206C40F05F
:1008900001002064BBE700BF206C40F4803020647E
:1008A000204600F0D1F820686FF001010160B10628
:1008B000BFD4CEE7C16A11F4700F03D08168490537
:1008C0003FF58EAF416821F020014160206C20F49B
:1008D00080702064206CC0043FF582AF206C40F033
:1008E000010020647CE70000002804BF012070475D
:1008F00010B50446006C00283ED0206CC00645D4DC
:10090000206C41F202118843023042F2043120642B
:10091000C4F20101086820F4403008600A6894E8D5
:1009200009101A43D4F810E00A604168012321F449
:10093000807141604168C0F6007341EA0E21416058
:10094000416821F040714160416841EA0C01416019
:10095000816821F400618160E168826811438160EF
:10096000A16A8268994222F070628260826813D123
:1009700022F0405119E000BF204600F067F8002047
:10098000606484F83C00206CC006B9D501200021C9
:1009900084F83C1010BD00BF11438160816821F0D4
:1009A00040518160E16A826811438160816821F071
:1009B000020181608168227E94F8203041EA420180
:1009C0008160416883B141F40061416041684EF249
:1009D000000221F460414160616ACFF6FF72436812
:1009E00002EB4131194301E021F400614160C16A29
:1009F00040F2000C21F47001C162E2696169CFF636
:100A0000F07CC36A0CEB02521A43C262826822F481
:100A10000072826094F83020836843EA4222826048
:100A2000826822F480628260826842EA8121816069
:100A300000206064216C012262F301012164002125
:100A400084F83C1010BD000070470000B0B582B0C3
:100A50000446006842F20001C4F2010188421CBF52
:100A600002B0B0BD002043F644010190C4F202017F
:100A70000A6841F6045542F480720A600968C2F2BD
:100A8000000501F480710191019946F21041C4F210
:100A900002014FF48062C5E9001005F110014FF426
:100AA00000634FF4005C4FF4807E81E80C504FF4FB
:100AB0008031C5E90200C5E90810284600F04EF96A
:100AC000002818BFFFF7CAFD122001210022A563EC
:100AD000AC6300F0BDFB122002B0BDE8B04000F0F6
:100AE000A7BB000070B5866D044600F0F7FA94F8D5
:100AF000351002292ED105462068216C026822F0AB
:100B000016020260426922F08002426109B9A16CBA
:100B100019B1016821F008010160016821F00101AB
:100B200001600068C00708D000F0D8FA401B052813
:100B300018D820680068C007F6D1E06D3F2101FA9F
:100B400000F0B060012084F835000020002184F816
:100B5000341070BD802060650120002184F83410BD
:100B600070BD00BF20206065032084F8350000219F
:100B700084F8341070BD000090F83510022909D1B6
:100B8000052180F835100068016821F0010101603D
:100B9000002070478021416501207047F0B581B089
:100BA00004460020009040F20C00C2F200000268EF
:100BB000D4E9166048F2B51337680821C1F64E3300
:100BC00081403942A2FB03250CD0226813685B07E1
:100BD00008D5136823F004031360B160616D41F020
:100BE0000101616501218140394208D022685269C2
:100BF000120604D5B160616D41F002016165042106
:100C00008140394208D022681268920704D5B16049
:100C1000616D41F00401616510218140394217D0B6
:100C200020680268120713D5B16002680168520398
:100C300008D4C90508D4016821F008010160216CBD
:100C400021B905E0080343D4216C09B12046884747
:100C5000E16D202000FA01F23A4245D02068036895
:100C6000DB0641D5B26094F835300268052B1FD100
:100C700022F016020260426922F080024261226C78
:100C80000AB9A26C1AB1026822F0080202603F2081
:100C90008840B060012084F83500216D00200029D3
:100CA00084F8340058D02046884701B0F0BD00BF1A
:100CB0000168520310D4C90512D4016821F0100153
:100CC0000160012084F83500002084F8340007E03A
:100CD000A16C0029BAD1BBE7080301D4616C00E024
:100CE000E16B09B120468847606DA8B3606DC0070D
:100CF0002ED0052084F835002068A90A026822F069
:100D000001020260009A01328A4200921AD80268F7
:100D1000D20717D0009A01328A42009212D8026894
:100D2000D2070FD0009A01328A4200920AD8026894
:100D3000D20707D0009A01328A42009202D8026894
:100D4000D207DFD1012084F83500002084F8340078
:100D5000E16C09B12046884701B0F0BD2DE9F041B2
:100D6000044600F0BBF9002C4ED00546022084F862
:100D700035000020216884F83400086820F0010064
:100D800008600868C00708D000F0A8F9401B0528D3
:100D90006CD821680868C007F6D1086848F23F029D
:100DA000CFF21002D4E90135024004F10C0E9EE8A6
:100DB000C1511A432A4310433043384340EA0800E4
:100DC000626A40EA0C00042A40EA0E0320D1D4E90A
:100DD0000A5E206B4EEA0302104308604869BEF1C8
:100DE000000F20F0030040EA050040F0040C15D08D
:100DF000B8F5005F42D0B8F1000F51D1022D52D0AA
:100E0000012D47D055B94EE00120BDE8F08100BF6B
:100E10000B60486920F0070040EA020C6FF00F00F9
:100E20004AF6AB2250FA81F0CAF6AA22A0FB0223AE
:100E30001A0944F2AC23C0F600039A5C40F2FF3377
:100E40005F284FF03F00C1F814C021EA030100FA07
:100E500002F088BF0431C4E9161288600023012221
:100E60000020636584F83520BDE8F081032220234B
:100E70000320636584F83520BDE8F081032DCDD8CB
:100E8000012240230120DFE805F0030E030500BF27
:100E9000E7E700BFAEF1C070B0FA80F0400904E0AF
:100EA000032D04D3BAD1CEF300600028B6D00122BE
:100EB00040230120636584F83520BDE8F0810000FF
:100EC000B0B5044600F00AF9054640F20400C2F24B
:100ED00000000078611C18BF044400BF00F0FEF859
:100EE000401BA042FAD3B0BD7047000043F6144146
:100EF000C4F201010A68024214BF08607047FFF79C
:100F0000F3BF00002DE9F04F82B000F13E4241F600
:100F1000004502F1FF77C4F2020508224FEAB72626
:100F2000A84208BF0722072E38BF4FEAB7224FF06A
:100F3000010A002400274FF00008009208E000BFDB
:100F4000023708F10108202F04F1040400F0B480F6
:100F50000E680AFA08F916EA090FF1D0D1F804A0D0
:100F60000AF0030BABF10106012E17D803228668A5
:100F700002FA07FECA6826EA0E06BA4032438260C9
:100F80004268CAF3001522EA090205FA08F54FEA99
:100F9000480C6FEA0E062A4342600BE00322BA4077
:100FA000D643BBF1030FBC4604D1BC464FF0030B44
:100FB00022E000BFC2688D68324005FA0CF52A4372
:100FC000BBF1020FC26017D16FF0030202EA5802B0
:100FD000024404F01C030F25D2F820E005FA03FABE
:100FE0000D692EEA0A0E05FA03F343EA0E031362B3
:100FF000D1F804A00AF0030B02680BFA0CF332409C
:101000001A431AF4403F4FF0010A026098D00022C0
:1010100043F644030192C4F202031A6843F6004EF9
:1010200042F480421A601A68C4F2010E02F480424F
:101030000192019A28F003024FF6084C7244CFF651
:10104000FF7C52F80C3004F00C060F25B540AB4382
:10105000009D05FA06F6334342F80C30DEF808200E
:101060004B6842EA090643F60C4CDD0258BF22EAFF
:101070000906CEF80860C4F2010CDCF800209D02DD
:1010800042EA090658BF22EA0906CCF80060DEF8F9
:1010900004209D0342EA090658BF22EA0906CEF859
:1010A0000460DEF80020DB0342EA090658BF22EAAA
:1010B0000906CEF8006043E702B0BDE8F08F0000FB
:1010C000426902EA0103914341EA034181617047A9
:1010D000002A08BF090481617047000042F2AC2079
:1010E000C2F200000068704740F2040042F2AC21F6
:1010F000C2F20000C2F2000100780A6810440860E1
:101100007047000080B543F60040C4F20200016859
:1011100041F400710160016841F48061016001687F
:1011200041F480710160032000F0BEF80F2000F050
:1011300005F800F061F8002080BD000070B586B0B1
:10114000002543F640010195C4F202010A680446F5
:1011500042F010020A60096801A801F01001019133
:101160000199694600F060F9049E002E18BF01261F
:1011700000F07AF94DF68361B040C4F21B31A0FB58
:1011800001014FF0FF3000EB914141F6E85041F290
:101190000002C2F20000C4F2000240F2E733C0E9EC
:1011A0000021C0E902530561856100F05DFE05463E
:1011B00010B1284606B070BD41F6E850C2F20000FA
:1011C00000F082FE05460028F3D1362000F030F80A
:1011D0000F2C0DD8362021460022002500F038F8CB
:1011E00040F20800C2F200000460284606B070BD5C
:1011F0000125284606B070BD82B0002043F64001AC
:101200000190C4F202014A6842F480424A604A688E
:1012100002F480420192019A0090086840F08050E8
:101220000860086800F080500090009802B0704795
:10123000002848BF704700F01F01012202FA01F1A7
:101240004EF200124009CEF2000242F82010704720
:1012500010B54EF60C5CCEF2000CDCF80030C3F397
:10126000022E8EF00704042C28BF0424BEF10303D1
:101270004FF0FF3E0EFA04F438BF0023A14399401B
:101280000EFA03F39A4300F00F03043B1143634447
:1012900009010C3300F16042B0F1FF3FC8BF02F515
:1012A0006443197010BD00004EF60C51CEF20001DF
:1012B0000A684FF6FF031A4060F30A2242F080608A
:1012C00040F0FD70086070472DE9F041002800F003
:1012D0008B8043F60808C4F202080446D8F8F803E5
:1012E0000D4600F00700884207D288F8F853D8F876
:1012F000F80300F00700A84276D12068810717D5CF
:10130000410705D5D8F8001041F4E051C8F80010A5
:10131000010705D5D8F8001041F46041C8F8001065
:10132000D8F80010A26821F0F0011143C8F80010AD
:10133000C0073FD1D8F8F80300F00700A84207D94A
:1013400088F8F853D8F8F80300F00700A8424BD10A
:101350002068410707D5D8F80010E26821F4E05171
:101360001143C8F80010000708D5D8F8000021691B
:1013700020F4604040EAC100C8F8000000F09CF88A
:10138000D8F8001044F29422C1F30311C0F6000211
:10139000515C40F20C0220FA01F140F20800C2F266
:1013A00000000068C2F200021160FFF7C7FE0020D3
:1013B000BDE8F0816068811E022907D258F8081C38
:1013C00089015CBF0120BDE8F08111E0012807D14F
:1013D00058F8081C89035CBF0120BDE8F08107E0D4
:1013E00058F8081C890703D40120BDE8F08100BF2C
:1013F000D8F8001021F003010843C8F80000FFF7F7
:101400006DFE064641F28837D8F80000616800F0AA
:101410000C00B0EB810F8DD0FFF760FE801BB8424F
:10142000F2D90320BDE8F0810F22026043F60802E2
:10143000C4F20202136803F003034360136803F06D
:10144000F0038360136803F4E053C360D2F800C074
:101450004FF4E05303EADC030361D2F8F80300F031
:10146000070008607047000040F20C0043F60801D6
:10147000C2F20000C4F202010068096844F2A4222A
:10148000C1F38221C0F60002515CC84070470000E1
:1014900040F20C0043F60801C2F20000C4F202015F
:1014A0000068096844F2A422C1F34231C0F6000288
:1014B000515CC8407047000010B543F60404C4F204
:1014C0000204606800F00C0142F200400829C0F2FA
:1014D000F40007D0042918BF10BD41F20020C0F26B
:1014E0007A0010BD216801F03F022168236849029B
:1014F000C3F3881106D4A1FB00010023FEF7A4FF6B
:1015000007E000BF41F20020C0F27A004843B0FB80
:10151000F2F021680222C1F3014102EB4101B0FB6C
:10152000F1F010BD2DE9F04182B000286AD00446E8
:10153000007843F60006C007C4F202060BD0B0687C
:1015400000F00C00042840F0A1803068800302D530
:101550006068002856D0207880071AD5B06810F04F
:101560000C0F09D0B06800F00C00082840F0A880EB
:101570007068400200F1A4803068800702D5E068FE
:1015800001283FD13068216920F0F80040EAC1000D
:1015900030602078000739D4207840074ED4A56900
:1015A0005DB3B06800F00C00082840F0BD80012D4C
:1015B00028D07068E16900F480028A4222D1216A51
:1015C00000F03F028A421DD147F6C071626A0140B5
:1015D000B1EB821F16D1A26A0023CFF6FF7303EB93
:1015E000C23200F440316FF30F0291420AD1E16A36
:1015F00000F07060B0EB016F04D1002002B0BDE8D4
:10160000F08100BF012002B0BDE8F08160690028D0
:1016100040F20000C4F2472076D00121C0F8801EBD
:10162000FFF75CFD054600BF706F8007B4D4FFF77D
:1016300055FD401B0228F7D9DDE000BF306C10F0EB
:1016400080580AD100200190306C40F08050306406
:10165000306C00F080500190019847F20007C4F20E
:1016600000073868C00541D4386840F4807038609D
:10167000FFF734FD054600BF3868C00536D4FFF7D4
:101680002DFD401B0228F7D9B5E000BFB06800F07F
:101690000C00082803D1706840023FF556AF60681F
:1016A000B0F5803F07D0B0F5A02F40F08D803068B6
:1016B00040F480203060306840F4803030608DE04D
:1016C000E068002852D00020C4F2472001210160C8
:1016D000FFF704FD054600BF306880073FF552AFB5
:1016E000FFF7FCFC401B0228F6D984E0A068012823
:1016F00005D005284ED1306F40F004003067306FC0
:1017000040F0010030674FE00021C0F8801EFFF775
:10171000E5FC0546706F80077FF53EAFFFF7DEFC06
:10172000401B0228F6D966E00027C4F247270020B4
:101730003866FFF7D3FC022D05460BD130688001D7
:101740005ED5FFF7CBFC401B02284FF00300F5D914
:1017500054E700BF306880017FF54FAFFFF7BEFC54
:10176000401B02284FF00300F4D947E70020C4F2E1
:10177000472000210160FFF7B1FC05463068800773
:101780007FF507AFFFF7AAFC401B02284FF00300CC
:10179000F4D933E7316F002821F001013167316F4F
:1017A00021F0040131674DD0FFF798FC054641F266
:1017B000883700BF306F800756D4FFF78FFC401B7F
:1017C000B842F7D917E000BF3168002821F4803112
:1017D0003160316821F4802131604FD0FFF77EFC09
:1017E000054600BF306880033FF5B5AEFFF776FCD5
:1017F000401B6428F6D9032002B0BDE8F08100BF89
:1018000004F11C052FCD08430021CFF6FF7140EAFB
:10181000821001EBC3316FF30F0140EA056008430A
:10182000706001203866FFF759FC0446306880017B
:101830003FF5E3AEFFF752FC001B02284FF0030018
:10184000F4D9DBE6FFF74AFC054641F2883700BFD2
:10185000306F800708D5FFF741FC401BB8424FF0BE
:101860000300F5D9CAE600BFB8F1000F7FF497AEC8
:10187000306C20F08050306491E600BFFFF72EFC02
:10188000054600BF306880037FF565AEFFF726FC94
:10189000401B64284FF00300F4D9AFE62DE9F04176
:1018A00086B00446032084F83400606C8846032820
:1018B00022D14FF08050A16B40F2FF560843A06345
:1018C000A06BC0F2400600283ED020680125866348
:1018D00084F834504FF4007101F0A8F928B1216860
:1018E00001258E63A16B0843A0630121284684F87B
:1018F000341006B0BDE8F081B8F1000F36D0B8F56D
:10190000805FD6D0B8F5006F46D1002120680591E0
:101910000491002101F010F9800141D404A920466E
:1019200001F0FCFB0028C6D19DF81600400730D519
:10193000216D2068090401F023F90028BBD120683B
:10194000022101F07FF9B6E794E80F00D4E90557CA
:10195000CDE90085029701F0F3F8206800254FF4E7
:10196000007101F063F90028B9D1BEE700212068B9
:1019700005910491002101F0DFF8800110D404A941
:10198000204601F0CBFB002895D19DF81600C0073A
:101990000AD14FF080608EE74FF000608BE700BF08
:1019A0004FF4006087E700BF216D2068090401F053
:1019B000E7F800287FF47FAF2068002101F042F9AA
:1019C00079E7000080B5D0E9193ED0F844C09A0FFD
:1019D0000A70C3F383624A70C3F301628A701A0CFF
:1019E000CA701A0A0A714FEA1E524B71CA80CEF3AE
:1019F00003420A72CEF3C0324A72CEF380328A7248
:101A0000CEF34032CA72CEF300320A730022BCF128
:101A1000010F4A7336D0BCF1000F40F0878040F6CA
:101A2000FC72C36E02EA8E0242EA93720A61C26ECF
:101A3000C2F3C2630B75C2F302634B75C2F3425328
:101A40008B75C2F38243CB75C2F3C2330B76D1F8E8
:101A500010C00B7E0CF1010C03F0070302330CFAEB
:101A600003FCC0F854C00B7A03F00F0E012303FAF5
:101A70000EF383655B0A03FB0CF3C3654FF400733D
:101A800012E000BFB0F86E200EF03F0342EA0342BE
:101A90000A610A694FF4806303EB82224FF40073FA
:101AA000C0E91523C265C26E0366C2F380334B766C
:101AB000C2F3C61302F07F028B76CA76006FC20FA4
:101AC0000A77C0F341724A77C0F382628A77C0F323
:101AD0008352CA77C0F3405281F820200022C0F31D
:101AE000004381F8212081F82230C0F3C03381F80F
:101AF0002330C0F3803381F82430C0F3403381F8C1
:101B00002530C0F3003381F82630C0F3812381F8FB
:101B10002730C0F30123C0B2400881F8283081F893
:101B20002900012081F82A00104680BD016840F29A
:101B3000FF52C0F240028A63816B012241F0805162
:101B4000816380F83420104680BD000010B5D8B104
:101B5000044690F8340020B900202077204600F099
:101B60002DF9032084F83400204600F00FF80028F7
:101B70004FF0010018BF10BD0021A163216384F85C
:101B80003400002010BD00BF012010BDF0B58FB0A3
:101B900004460068762100260291002100220023DD
:101BA0000096019600F0CCFF4FF0010510B12846D9
:101BB0000FB0F0BD48F2A007C4F225273E602068B0
:101BC00000F0D4FF02203D60FFF77AF90496206808
:101BD00001F044F840B1012584F83450A16B08436A
:101BE000A06328460FB0F0BD206801F067F868B127
:101BF00020680021A16401F031F80028EBD1A06C2D
:101C000004F14406012805D00CE000BF0120A064C7
:101C100004F144062068002100F0B2FF10B14FF03B
:101C20008050D8E704994FF6FE70814226D80025EF
:101C3000CCF210154FF6FF772068002100F0A0FFCE
:101C40000028C8D12068294600F0A6FF0028E6D168
:101C50002068002100F070FF0499002801F10101C3
:101C60000491049901D4B942E6D304994FF6FE7267
:101C7000914206D8400007D5012006E00499814230
:101C800002D94FF08070A6E700203060206801255F
:101C9000ADF80E5000F04CFF90B1606C032813D1EA
:101CA0002068042100F048FF000DE06404A92046EC
:101CB000FFF788FE002855D04FF080508CE700BF1A
:101CC0004FF0806088E700BF206801F057F80028D7
:101CD0007FF482AF2068002100F02EFF216860674A
:101CE0000846042100F028FF2168A0670846082163
:101CF00000F022FF2168E06708460C2100F01CFF7D
:101D0000616CC4F880000329CAD020680DF10E016F
:101D100001F0E2F800287FF45FAF606C0328BFD0C9
:101D2000BDF80E1020682165090401F077F800283D
:101D30007FF452AF2068002100F0FEFE216860664B
:101D40000846042100F0F8FE2168A0660846082134
:101D500000F0F2FE2168E06608460C2100F0ECFE7F
:101D600020679DE7216D20680A04002300F0FAFF38
:101D700000287FF431AF94E88F00D4E90565CDE900
:101D80000076029500F0DCFE20684FF4007100F050
:101D90004DFF78B1216840F2FF52C0F240028A63E1
:101DA000A16B01250843A06384F8345028460FB086
:101DB000F0BD00BF002528460FB0F0BD2DE9F0436F
:101DC00085B0006842F60045C4F20105A84203D080
:101DD00005B0BDE8F08300BF002643F63000009652
:101DE000C4F2020041696C4641F4006141614169FD
:101DF0004FF0020801F4006100910099009601681B
:101E00004FF0030941F00401016001680C2701F063
:101E10000401009100990096016841F008010160F9
:101E20000068214600F00800009000984FF4F85038
:101E3000009005F55C40CDE90186CDF80C90049743
:101E4000FFF760F80420CDE9000805F56040214661
:101E5000CDE902690497FFF755F805B0BDE8F083B6
:101E60007047000070470000002804BF0120704741
:101E700010B5044690F83D0028B9002084F83C00D5
:101E8000204600F01FF8022084F83D002068211D44
:101E900001F024FA012084F8460084F83E0084F81A
:101EA0003F0084F8400084F8410084F8420084F840
:101EB000430084F8440084F8450084F83D00002085
:101EC00010BD00007047000090F83D1001291CBFB4
:101ED00001207047022180F83D10006841F2FF7236
:101EE000C168C4F20002904241F00101C1600DDC02
:101EF00040F2FF71C4F20001884215DCB0F1804F5E
:101F00002AD040F20041C4F2000123E040F2FF3148
:101F1000C4F20101884213DC41F60001C4F2000161
:101F2000884219D0002113E040F60001C4F20001FC
:101F3000884211D040F60041C4F200010AE000BF1F
:101F400044F20001C4F20101884205D040F2004190
:101F5000C4F20101884206D1816801F00701062917
:101F600004BF00207047016841F0010101600020BA
:101F70007047000070470000B0B504460068C168B3
:101F8000026902EA0105A90720D4680734D42807AA
:101F90004AD4E80660D4E80777D1280600F17F80AC
:101FA000680606D520686FF040010161204600F008
:101FB0008FF8A80658BFB0BD21686FF020022046F8
:101FC0000A61BDE8B040FFF74DBF00BF6FF00201EE
:101FD0000161012121778069800703D02046FFF746
:101FE000C9FF05E0204600F065F8204600F064F8DF
:101FF000002020776807CAD520686FF004010161CE
:1020000002212177806910F4407F03D02046FFF73A
:10201000B1FF05E0204600F04DF8204600F04CF8F6
:10202000002020772807B4D520686FF008010161EF
:1020300004212177C069800704D02046FFF79AFF6A
:1020400006E000BF204600F035F8204600F034F8E6
:1020500000202077E8069ED520686FF0100101610E
:1020600008212177C06910F4407F03D02046FFF794
:1020700081FF05E0204600F01DF8204600F01CF826
:1020800000202077E8073FF488AF20686FF0010157
:102090000161204600F012F828067FF581AF206824
:1020A0006FF0800101612046FFF7DAFE68067FF5D8
:1020B00080AF77E77047000070470000006841F28A
:1020C0000001C4F20001884208BFFFF70DB8704755
:1020D0007047000081B090F84230202B08D10029D1
:1020E0004FF0010318BF002A06D1184601B070470F
:1020F0000223184601B070470123036300234363A2
:10210000816222218285C285436480F8421002697F
:1021100001681AB1CA6842F48072CA604A6942F022
:1021200001024A61CA6842F02002CA60026B012AB9
:1021300038D1002300930A6800924A680092009AFE
:1021400051E8031FD0F800C041F010014CE8031221
:10215000002ACAD0016851E8031F026841F010014B
:1021600042E8031313B3016851E8031F026841F00A
:10217000100142E80313CBB1016851E8031F026864
:1021800041F0100142E8031383B1016851E8031FD5
:10219000026841F0100142E80313002B4FF00003E6
:1021A000D8D1A2E70123184601B070470023184692
:1021B00001B0704710B540F21804C2F200040120CB
:1021C00004F8010B41F26860C2F2000004302146BD
:1021D0006422FEF76AF941F63060C2F2000021463F
:1021E0001422BDE81040FFF775BF000070470000E3
:1021F000B0B582B0056804462968EA68686901F0EC
:102200002F03202B02F0200306D12BB1204602B071
:10221000BDE8B04001F00EB95FEA017C1EBF00F0DE
:10222000010E02F4907010EB0E002FD1236B02EA26
:102230000100C10618D5012B16D100200190286895
:1022400001906868019001986869400628D4A08DC3
:10225000E18DE28D002A1CBF411A5FEA014040F087
:10226000D78102B0B0BD00BF010600F1D3804006A7
:10227000F7D5E868202120F04000E860204684F887
:10228000411002B0BDE8B04000F0E2BAC80718BF84
:1022900012F4807040F0D280480700F1D580DAE077
:1022A000E06B01684A6893B2002BDAD0A18D8B42B3
:1022B000D7D2E285C069B0F5807F00F0A08055E8F4
:1022C000030F216820F4807041E80302F2B1206816
:1022D00050E8030F216820F4807041E80302AAB19E
:1022E000206850E8030F216820F4807041E8030261
:1022F00062B1206850E8030F216820F4807041E843
:1023000003021AB1206850E8030FDAE7206850E8AA
:10231000050F216820F0010041E80502BAB32068EA
:1023200050E8050F216820F0010041E8050272B372
:10233000206850E8050F216820F0010041E80502FF
:102340002AB3206850E8050F216820F0010041E819
:102350000502002ADAD11AE0206850E8050F21684A
:1023600020F0400041E80502DAB1206850E8050F8E
:10237000216820F0400041E8050292B1206850E851
:10238000050F216820F0400041E805024AB12068AD
:1023900050E8050F216820F0400041E80502002ABE
:1023A000DAD1202084F8420000202063206850E821
:1023B000030F216820F0100041E80302DAB1206821
:1023C00050E8030F216820F0100041E8030292B1A9
:1023D000206850E8030F216820F0100041E8030254
:1023E0004AB1206850E8030F216820F0100041E84E
:1023F0000302002ADAD1E06BFEF774FBA18D022004
:102400006063E08D081A81B2204602B0BDE8B0409A
:10241000FFF7D0BE94F8410021287FF422AFA068D6
:10242000B0F5805F03D12069002800F08981206A1F
:10243000411C21620078686089E100BF606C40F057
:1024400001006064480706D5BEF1000F03D0606C40
:1024500040F002006064880706D5BEF1000F03D08B
:10246000606C40F004006064BCF1000F06D55EEAC9
:10247000030003D0606C40F008006064606C0028CA
:102480003FF4EFAE02EA0100800603D5204600F0DB
:10249000D1FF25686869616C00F0400001F0080117
:1024A000401800F0AD8055E8030F00BF216820F40C
:1024B000907041E80302D2B3206850E8030F21680E
:1024C00020F4907041E803028AB3206850E8030FBB
:1024D000216820F4907041E8030242B3206850E87C
:1024E000030F216820F4907041E80302FAB12068DC
:1024F00050E8030FDAE700BF206850E8050F2168B5
:1025000020F0010041E80502DAB1206850E8050F2B
:10251000216820F0010041E8050292B1206850E8EE
:10252000050F216820F0010041E805024AB120684A
:1025300050E8050F216820F0010041E80502002A5B
:10254000DAD1206B012824D1206850E8030F2168DC
:1025500020F0100041E80302DAB1206850E8030FD0
:10256000216820F0100041E8030292B1206850E891
:10257000030F216820F0100041E803024AB12068EF
:1025800050E8030F216820F0100041E80302002A00
:10259000DAD1202084F842000020206320684169BD
:1025A000490640F1C78050E8050F216820F040003F
:1025B00041E80502002A00F0AB80206850E8050FD2
:1025C000216820F0400041E80502002A00F0A080C8
:1025D000206850E8050F216820F0400041E805021E
:1025E000002A00F09580206850E8050F216820F04F
:1025F000400041E80502002A00F08A802068D2E706
:102600002046FFF7F3FD0020606402B0B0BD00BFBC
:1026100055E8030F226820F4907042E80303D3B317
:10262000206850E8030F226820F4907042E803030A
:102630008BB3206850E8030F226820F4907042E8C2
:10264000030343B3206850E8030F226820F490701E
:1026500042E80303FBB1206850E8030FDAE700BF4C
:10266000206850E8050F226820F0010042E80503C9
:10267000DBB1206850E8050F226820F0010042E835
:10268000050393B1206850E8050F226820F001008F
:1026900042E805034BB1206850E8050F226820F09E
:1026A000010042E80503002BDAD1202084F8420023
:1026B00000202063206850E8030F226820F01000FB
:1026C00042E80303DBB1206850E8030F226820F0E2
:1026D000100042E8030393B1206850E8030F22681A
:1026E00020F0100042E803034BB1206850E8030FCC
:1026F000226820F0100042E80303002BDAD1022206
:1027000089B22046626302B0BDE8B040FFF752BD17
:10271000E06B78B143F22941C0F600010165FEF794
:102720002BFA00283FF49DADE06B016D02B0BDE8CF
:10273000B0400847204602B0BDE8B040FFF756BDA4
:10274000206A30F8021B6FF35F2169602062E08C21
:1027500001380104E0847FF484ADE86820F0800053
:10276000E860E86840F04000E86002B0B0BD0000FA
:10277000002804BF0120704710B5044690F84100BE
:1027800028B9002084F84000204600F021F82420D9
:1027900084F841002068C16821F40051C1602046DE
:1027A00000F0CAFE2068016921F49041016141698D
:1027B00021F02A014161C16841F40051C16000204B
:1027C0002021606484F8411084F84210606310BDD9
:1027D00080B586B0016844F20040C4F20000814236
:1027E00002D006B080BD00BF002143F63002019147
:1027F000C4F20202136900F5DE3043F400331361C2
:10280000136903F400330193019B0191136843F0B2
:1028100001031360126802F001020192019A0C2276
:1028200001920222CDE902210321049107210591A1
:1028300001A9FEF767FB262000210022FEF708FD14
:102840002620FEF7F5FC06B080BD000070470000B2
:1028500070470000FEE7000010B584B041F6BC40B0
:1028600001220021C2F2000042F2000CC0F6007208
:10287000C4F2010C4FF480330124C0E90A21022282
:102880000391047680F82010C26180F83010C0E90E
:1028900000C3C0E90211C0E90444FEF725F800288E
:1028A00018BFFDF7DBFE1020CDE9000407200290E1
:1028B00041F6BC40C2F200006946FDF7D5FE002893
:1028C00018BFFDF7CBFE112000900220019041F6C9
:1028D000BC40C2F200006946FDF7C6FE002818BFE2
:1028E000FDF7BCFE04B010BD80B582B000200190A1
:1028F00043F63000C4F202000168002241F4800176
:1029000001600068002100F48000019001983820E7
:10291000FEF79EFC382002B0BDE88040FEF788BC80
:102920002DE9F04F87B0002443F63000CDE905448F
:102930000194C4F20200016840F2000841F08001F5
:1029400001600168C4F2020801F08001019101995F
:102950000194016808F5006641F001010160016819
:10296000002201F0010101910199019401684FF0E9
:10297000200941F004010160016801F004010191A6
:1029800001990194016841F002010160016801F0C0
:102990000201019101990194016841F0080101606F
:1029A0000068202100F00800019001983046FEF7F1
:1029B0008FFB08F5806A504604210022FEF788FB51
:1029C00040464FF4807101220125FEF781FB4FF450
:1029D000881002AF03904FF0020B40463946029533
:1029E000CDF810B0FEF78EFA122002904FF40410CA
:1029F000CDE9030540463946FEF784FA30463946AC
:102A0000CDE90295CDE90444FEF77CFA0420CDE936
:102A1000020550463946CDE90444FEF773FA4FF4F7
:102A20008070CDE9020540463946CDE9044BFEF7FA
:102A300069FA062002210022FEF70AFC0620FEF7B2
:102A4000F7FB072003210022FEF702FC0720FEF718
:102A5000EFFB0A2002210022FEF7FAFB0A20FEF714
:102A6000E7FB07B0BDE8F08F80B541F6645042F651
:102A70000041C2F20000C4F2010100224FF40063E1
:102A80004FF0010CC0E90012C0E90222C0E9043293
:102A9000C0F818C0FFF75AF8002818BFFDF7DEFD90
:102AA00041F66450C2F200004FF40061FEF7F6FEFA
:102AB000002808BF80BDBDE88040FDF7CFBD000005
:102AC00000F012BE80B541F6306044F20041C2F21F
:102AD0000000C4F2000100234FF00C0C4FF4E1326F
:102AE00080E80E00C0E90333C0E905C3C361FFF706
:102AF0003FFE002808BF80BDBDE88040FDF7AEBDA9
:102B0000FEE70000FEE7000080B5024691E80950AC
:102B10005062936208694EEA0C0318434969D36A0C
:102B2000084323F0F70101430020D16280BD00007B
:102B3000006800F0030070470844406970470000D7
:102B400010B58446DDE90240114319432143DDF805
:102B500010E00843DCF8041047F6FF6240EA0E007C
:102B6000914301430020CCF8041010BD014603221C
:102B700000200A6070470000D0F880007047000015
:102B80008160C36840F2774161F30B03372141F262
:102B90008832C36000F00CBA41F0004141F480116A
:102BA0008160C16840F2694262F30B01C16040F28A
:102BB0000C01C2F20001096844F6D352C1F262026C
:102BC000A1FB0212510A6FF0030241F2883301FBAC
:102BD000132100BF043125D0426B12F0450F02D003
:102BE00012F4006214D0426B12F0450F02D012F4BE
:102BF00000620DD0426B12F0450F02D012F4006259
:102C000006D0426B12F0450FE4D012F40062E1D11D
:102C1000416B042211F0040108BFC52282630846FB
:102C2000704700BF4FF00041084670478160C3689D
:102C30004FF48A6161F30B03102141F28832C360C3
:102C400000F0B6B98160C36840F2464161F30B03FE
:102C5000062141F28832C36000F0AAB900218160E8
:102C6000C1684FF4806262F30B01C16040F20C0155
:102C7000C2F20001096844F6D352C1F26202A1FB1C
:102C80000212510A6FF0030241F2883301FB132153
:102C9000043104BF4FF000407047426B120609D464
:102CA000426B12065CBF426B5FEA026202D4426B67
:102CB0001206EDD5C5218163002070474FF4D57110
:102CC0008160C1684FF4896262F30B01C16040F218
:102CD0000C01C2F20001096844F6D352C1F262024B
:102CE000A1FB0212510A6FF0030241F2883301FB8B
:102CF000132100BF04312DD0426B12F0450F02D0DA
:102D000012F4006214D0426B12F0450F02D012F49C
:102D100000620DD0426B12F0450F02D012F4006237
:102D200006D0426B12F0450FE4D012F40062E1D1FC
:102D3000416B49070AD4416BC9070FD1416B490662
:102D400044BF40218163002108467047042181630C
:102D5000084670474FF000410846704701218163E3
:102D6000084670478260C36840F2474161F30B0335
:102D7000072141F28832C36000F01AB90021816056
:102D8000C16840F2C24262F30B01C16040F20C0123
:102D9000C2F20001096844F6D352C1F26202A1FBFB
:102DA0000212510A6FF0030241F2883301FB132132
:102DB00004312BD0426B12F0450F02D012F40062A6
:102DC00014D0426B12F0450F02D012F400620DD005
:102DD000426B12F0450F02D012F4006206D0426B33
:102DE00012F0450FE4D012F40062E1D1416B4907C3
:102DF00008D4416BC9070DD1C52181630021084664
:102E0000704700BF04218163084670474FF00041BE
:102E10000846704701218163084670478160C16898
:102E200040F2C94262F30B01C16040F20C01C2F2F0
:102E30000001096844F6D352C1F26202A1FB0212FA
:102E4000510A6FF0030241F2883301FB132100BFE6
:102E500004312BD0426B12F0450F02D012F4006205
:102E600014D0426B12F0450F02D012F400620DD064
:102E7000426B12F0450F02D012F4006206D0426B92
:102E800012F0450FE4D012F40062E1D1416B490722
:102E900008D4416BC9070DD1C521816300210846C3
:102EA000704700BF04218163084670474FF000411E
:102EB0000846704701218163084670470021816000
:102EC000C36840F2734161F30B03332141F288324E
:102ED000C36000F06DB8000000228260C26840F25A
:102EE000434363F30B02C26040F20C02C2F20002E1
:102EF000126844F6D353C1F26203A2FB03235A0AB9
:102F00006FF0030C41F2883302FB13C2043241D04C
:102F1000436B13F0450F02D013F4006314D0436BDE
:102F200013F0450F02D013F400630DD0436B13F080
:102F3000450F02D013F4006306D0436B13F0450F26
:102F4000E4D013F40063E1D1426B52071ED4426B0C
:102F5000D20723D10269D2B2032A1EBF012108463B
:102F60007047C5228263406910F4604F1AD0410453
:102F700042BF4FF400510846704700044FF480519F
:102F800058BF4FF480310846704700BF0421816369
:102F9000084670474FF000410846704701218163A1
:102FA00008467047000C0880002108467047000062
:102FB00040F20C03C2F20003D3F800C044F6D3532E
:102FC000C1F26203ACFB033C03464FEA5C20504372
:102FD000002804BF4FF0004070475A6B12F0450FB5
:102FE00002D012F400621DD0012800F093805A6BC9
:102FF00012F0450F02D012F4006213D0022800F044
:1030000089805A6B12F0450F02D012F4006209D089
:103010000438421C7ED05A6B12F0450FD8D012F4FF
:103020000062D5D1586B400742BF042098637047B7
:10303000586BC0071EBF012098637047C520986376
:103040001869C0B288421CBF0120704758694EF20F
:103050000801CFF6FF51084204BF00207047002846
:1030600044BF4FF000707047410044BF402070479C
:10307000810044BF80207047C10044BF4FF480707E
:103080007047010144BF4FF400707047410144BFD5
:103090004FF480607047C10144BF4FF40060704737
:1030A000010244BF4FF480507047410244BF4FF4C7
:1030B00000507047810244BF4FF480407047C10206
:1030C00044BF4FF400407047410344BF4FF4003009
:1030D0007047810344BF4FF480207047C10344BF51
:1030E0004FF400207047010444BF4FF48010704734
:1030F000410444BF4FF400107047810444BF4FF4B3
:103100008000704700074FF4000058BF4FF4803034
:10311000704700BF4FF00040704700002DE9F041BC
:1031200088B00C460546FDF7D9FF06460021286801
:10313000019100910821FFF779FD014620B1084671
:1031400008B0BDE8F08100BF296D28680904FFF7C9
:1031500017FD01460028F2D14FF0FF300290082001
:103160000390302004900220059000200690012159
:103170002868079102A9FFF7C7FC2868FFF79EFEA1
:1031800001460028DBD10027E8460BE0FFF7F4FCFE
:1031900048F827000137FDF7A1FF801B01304FF0F1
:1031A0000041CCD02868416B11F02A0F05D1416B4A
:1031B0008902EBD4416B8904EDD4416B09075CBFF4
:1031C000416B5FEA815105D508218163084608B04B
:1031D000BDE8F081416B890710D4416B890613D497
:1031E00040F23A518163DDE9001000BA09BAC4E93E
:1031F00000010021084608B0BDE8F081022181638A
:10320000084608B0BDE8F08120218163084608B077
:10321000BDE8F081B0B592B0002443F64000CDE99E
:103220000A44CDE908440594CDE90344CDE90144BD
:103230000094C4F202000168022541F0805101604F
:10324000006800F080500090009847F20000009461
:10325000C4F20000016841F480410160006800F49C
:10326000804000900098012006904FF48030079035
:103270004FF480000D9004200E90A820CDE90F059A
:103280000720119006A80C95FEF74CF910B172B604
:10329000FEE700BF0F20CDE901054FF4A0500490D8
:1032A0004FF48050059001A805210394FEF70CF817
:1032B00010B172B6FEE700BF12B0B0BD4EF6885036
:1032C000CEF20000016841F4700101607047000017
:1032D00041F6E850C2F20000FEF74EBE10B540F6CF
:1032E000FF3E0368C4F2000E40F2004C7045C4F289
:1032F000010C27DCB0F1804F31D040F20042C4F223
:10330000000290422BD040F60002C4F2000290422C
:1033100025D041F6FF72C4F20002904229DC7045CC
:103320003CDCB0F1804F5FD040F20042C4F20002BA
:10333000904259D040F60002C4F20002904253D0AD
:1033400056E000BF40F60042C4F20002904206D0B0
:10335000604504D00022C4F201029042D9D14A68EB
:1033600023F07003134341F6FF72C4F2000290424F
:10337000D5DD43F6FF72C4F20102904222DC42F234
:103380000002C4F2000290422ED00022C4F20102D8
:10339000904229D0604527D02AE000BF40F6004285
:1033A000C4F2000290421FD041F60002C4F20002B3
:1033B000904219D041F60042C4F20002904213D06C
:1033C00016E000BF44F20002C4F2010290420BD0AA
:1033D00044F60002C4F20102904205D044F20042D9
:1033E000C4F20102904203D1CA6823F4407313432C
:1033F00023F080024B69D1F800E08C681A43026028
:10340000C46240F48062C0F828E0624504BF0969E4
:103410000163012141610169C90708BF10BD01694C
:1034200021F00101016110BD806B0021C185C184C3
:10343000FEF7DCBE81B090F84210222920D18368CB
:10344000B3F5805F08D10169002957D000F1280148
:103450000A6803685B680AE0014651F8282F13B92F
:103460000369002BF5D003685B6803F07F031370DA
:103470000A6801320A60C18D01390A04C18501D090
:1034800001B070470168CA6822F02002CA60CA68A9
:1034900022F48072CA604A6922F001024A61202245
:1034A00080F8422000224263036B012B30D102637B
:1034B00051E8031F026821F0100142E803135BB3D7
:1034C000016851E8031F026821F0100142E803136C
:1034D00013B3016851E8031F026821F0100142E8AC
:1034E0000313CBB1016851E8031F026821F01001FA
:1034F00042E8031383B10168DAE700BF0168826A1A
:1035000049686FF35F2122F8021B8262B3E700BFB4
:1035100001B0FFF79BB900BF01680A68D20606D563
:10352000002200920A680092496800910099818DFA
:1035300001B0FEF73FBE000010B504460068D4E9B4
:1035400002C22369016921F440511143016162699A
:1035500043EA0C01E3691143C268194349F20C6361
:103560009A431143C1604169A26921F4407141F25B
:103570000043114340F48062C4F201039A42416166
:1035800002D1FDF785FF01E0FDF76EFFE169636899
:103590001922B1F5004FA0FB02011FD15A00DB0F29
:1035A000FCF752FF48F21F51C5F2EB11A0FB0123BB
:1035B0005A096FF0630302FB0300322303EBC000E0
:1035C000A0FB01014FF4F87000EA111000EB0210AB
:1035D000C1F3421122680843906010BD9A009B0F0E
:1035E000FCF732FF48F21F51C5F2EB11A0FB01239B
:1035F0005A096FF0630302FB0300322303EB001050
:10360000A0FB0101F02000EA511000EB0210C1F311
:10361000431122680843906010BD000041F63060FD
:10362000C2F20000FEF7E4BDFEE70000F0B581B095
:103630000F4634211D4616460446FCF74FFF25F081
:103640000300A0F10801A1600221C4E90660E16065
:1036500030444EF6EE616760C4E9046640F8086DD8
:10366000CFF6FF714460C6E9000145F245410020F4
:10367000C4F259212062EFF3108072B6216040F24B
:10368000A401C2F200010A6840F2A003C2F20003E2
:1036900032B11F683E6B3C6306F12C0302E000BFB1
:1036A0002746264601321C60C4E90B760A6080F387
:1036B0001088002001B0F0BD80B500F0DDF800F00A
:1036C00055FB40F28000C2F200000021C0E9001169
:1036D000C0E90211C0E90411C0E90611C0E90811EE
:1036E000C0E90A1180BD000010B540F21004C2F21A
:1036F0000004206810F10F3F0DD04FF0F030206033
:10370000FCF76EFDFFF7D8FF40F2C800C2F20000E0
:103710000168013101604FF0F030206041F2047027
:10372000C2F20000006800F063FD00202060BDE8E8
:103730001040FCF79DBD00002DE9F04F81B0DDE9A0
:103740000A5993460F46DDF838A00C9E04462846D9
:103750004946EF229846FCF7BAFE2046B021FCF716
:10376000BDFE09EB05010139C4E903510D99202083
:103770008E423146C4E911B8C4E90A76C4E9059A13
:10378000C4F81CA018BF0021C4F89C0003202063CB
:1037900043F61150E163C4E92561C0F6000043F629
:1037A000B101C4E91504C0F600012046FCF7C8FDCC
:1037B00045F24421C5F24841EFF3108072B6216012
:1037C00040F2C401C2F200010A6840F2C003C2F232
:1037D00000033AB11F68D7F88C60C7F88C4006F137
:1037E000880301E02746264601320A6040F2C801FC
:1037F0001C60C4E92276C2F200010F9D0A68012D07
:1038000002F101020A6019D140F21001C2F2000176
:103810000968EFF305821143B1F1F03F4FF0000565
:103820001CD340F2B401C2F2000109680026B1B114
:10383000CA6ACE6B0D46CA6311E000BF80F31088E0
:10384000EFF3108072B60A68013A0A6080F31088BC
:1038500000F0A6F8002001B0BDE8F08F002680F34C
:103860001088204600F0C2F8002D18BFEE6300203B
:1038700001B0BDE8F08F0000B0B540F2B004C2F274
:10388000000400252020C4E9025041F20870C2F271
:1038900000008021C4E90055FCF720FEC4E904556E
:1038A000A561206AE56140F085702062B0BD00002E
:1038B00010B540F2B000C2F200000468D4E9111063
:1038C000884740F2CC00C2F20000016809B12046EE
:1038D00088470121EFF3108072B62163A1630021B4
:1038E000E16440F2C801C2F200010A6801320A60D4
:1038F00080F31088EFF3148020F0040080F3148824
:103900002046BDE8104000F00BB9000010B540F2B1
:10391000B002EFF3108172B6C2F2000214686CB10B
:1039200040F21002C2F200021268EFF305831A435C
:1039300008D081F31088132010BD00BF81F31088D8
:10394000132010BD41F60C02C2F2000294420BD0CB
:1039500070B140F2C802C2F20002136863B181F391
:103960001088132010BD00BF81F31088132010BDF4
:1039700081F31088002010BD042323630123A36377
:103980000023C4F88430E06410680130106081F3D3
:103990001088204600F0C4F8D4F8840010BD000060
:1039A00040F2C800C2F20000006808B1704700BFD2
:1039B00040F2B00040F2B401C2F20000C2F20001D5
:1039C000006809688842F1D04EF60450CEF200003B
:1039D0004FF080510160EFF30580002818BF704759
:1039E000EFF3108062B680F310887047F0B581B0B5
:1039F000EFF3108572B60446406E002804F14C00C7
:103A000002D000F03FFA01E00021016040F2C8005E
:103A1000C2F20000016801390160A16B226B00292C
:103A200040F2B401C2F2000108D0013A022A0CD3DC
:103A3000626B32B90022A263226306E02AB1626B94
:103A400022B3002203232363626340F2B002C2F276
:103A50000002126885F3108809688A4201D0006864
:103A600010B101B0F0BD00BF4EF60450CEF2000020
:103A70004FF080510160EFF305800028F1D1EFF3A2
:103A8000108062B680F3108801B0F0BDE26A41F2A6
:103A9000087CC2F2000C5CF822304FF0000EC4F833
:103AA00030E02BB15A6A5C621462C4E90832CCE798
:103AB0004CF8224040F2B80E40F2BC0CC2F2000EAC
:103AC000C2F2000C0123DEF80060DCF800709340C5
:103AD0003343BA42C4E90844CEF80030B5D20B688B
:103AE000CCF80020D3B1DB6B9A42AED20C6085F3E8
:103AF000108800680028B4D14EF60450CEF20000C1
:103B00004FF080510160EFF305800028A9D1EFF359
:103B1000108062B680F3108801B0F0BD0C6094E7AD
:103B200070B5044640F2B000C2F200000668EFF340
:103B3000108572B6A6420DD1204650F84C1F0131B7
:103B4000022928BF00F070F9E06940F2D801C2F202
:103B50000001086040F2C800C2F20000016840F2B3
:103B6000B40C01390160A16BC2F2000C012916D11D
:103B7000236AE26A0021A342A1631BD0616A41F279
:103B8000087E59620B62C2F2000E5EF82210A1425A
:103B900008BF4EF82230DCF80010A1422AD085F38D
:103BA0001088DCF800108E4202D00068002845D052
:103BB00070BD00BF41F20873C2F2000343F8221047
:103BC00040F2B803C2F200034FF0010E19680EFA7A
:103BD00002F291430029196042D040F2BC0291FAEE
:103BE000A1F1C2F20002B1FA81F11160DCF800101B
:103BF000A142D4D140F2BC01C2F20001096841F2F5
:103C00000872C2F2000252F82110CCF8001085F3BD
:103C1000108800680028CBD14EF60450CEF2000088
:103C20004FF080510160EFF305800028C0D1EFF321
:103C3000108062B680F3108870BD00BF4EF604504D
:103C4000CEF200004FF080510160EFF305800028B4
:103C500018BF70BDEFF3108062B680F3108870BD9E
:103C600040F2BC01C2F2000120220A600021CCF81F
:103C7000001085F310880068002899D14EF6045092
:103C8000CEF200004FF080510160EFF30580002874
:103C90007FF48EAFEFF3108062B680F3108870BDB2
:103CA00040F2B000C2F20000016840F2DC02EFF323
:103CB000108072B6C2F200020023136009B10A6BD1
:103CC00012B180F310887047D1E9073240F2D80C66
:103CD000C2F2000C8A428B61CCF80030F1D0CB6A82
:103CE000C96B8B42EDD140F2BC0141F2087CC2F2BB
:103CF0000001C2F2000C09684CF823205CF8211086
:103D000040F2B402C2F20002116080F310887047E2
:103D1000EFF3108272B6016B04290BD140F2C80197
:103D2000C2F200010B6801330B6082F31088FFF7C9
:103D30005DBE00BF836ED0F8AC1082F31088002BFC
:103D400008BF70471847000040F2C801EFF3108029
:103D500072B6C2F200010A6801320A6080F310886C
:103D600041F60C00C2F20000FFF740BE2DE9F0431F
:103D700087B041F28C7640F2D404C2F2000644F6D9
:103D80004D18C2F20004002530468021C4F25418B8
:103D90002560C4E90155C4E90355FCF79FFB41F6D2
:103DA000BC0106F18000C2F200014FF4806204F110
:103DB0001C0327C38DE8260041F60C0044F2B42111
:103DC00043F6C162C2F20000C0F60001C0F6000274
:103DD0004346C4E90566CDE903550595FFF7ACFCFC
:103DE000E0B141F60C0944F2B42643F6C167C2F2D1
:103DF0000009C0F60006C0F6000700BF04F120026B
:103E000007CACDE903258DE80700484631463A4602
:103E100043460595FFF790FC0028EFD1C4E90B5508
:103E200007B0BDE8F083000001684A1C022A27D3CE
:103E30008269002A18BF70474A1E202940F2EC010F
:103E4000C2F20001096888BF1F2201EB820140F223
:103E5000F002C2F20002126840F2E803C2F200036C
:103E60008A1A1B6828BF99180A682AB153695061D9
:103E70001861C0E9042302E0C0E904000860816120
:103E8000704700008169002908BF704702698242BB
:103E900008D0436953611A610B6883420AD000213C
:103EA000816170470A688242F9D100220A600021CC
:103EB0008161704791610A60002181617047000053
:103EC0002DE9F04F83B044F64D11C4F254118842ED
:103ED0001CBF03B0BDE8F08F40F2EC0640F2E004F6
:103EE00040F2E40BC2F200060027C2F200040DF11A
:103EF0000409C2F2000B0DF1080804E02068002854
:103F00006AD081F31088EFF3108072B631680A68C6
:103F1000002A029218BFC2F818800F6040F2F00227
:103F20003168C2F20002126804319142316005D159
:103F300040F2E801C2F2000109683160276080F3B5
:103F40001088EFF3108172B605E000BF8AF3108885
:103F5000EFF3108172B6029D002DCFD028690022A8
:103F60008542019214D06A69C0F8188042611061DC
:103F70002A680290212A10D3A2F120002860C5F8F7
:103F800018902D610195CBF8005081F3108816E050
:103F900000202A680290212AEED2D5E90132E86891
:103FA000002B2B600FBF00232D6101954B46AB61A9
:103FB000CBF8005081F31088002A18BF9047EFF328
:103FC000108A72B60198CBF80070A842BED128467C
:103FD000AF61FFF729FFB9E741F60C00C2F200001C
:103FE00003220263012240F2C8038263C2F200038B
:103FF0001A6801321A6081F31088FFF791FD82E799
:104000002DE9F04381B0074600284FF0020000F090
:104010009E8088460899342940F0998040F2C80073
:10402000EFF3108172B6C2F200001546026899469D
:104030000132026081F3108840F2A001C2F2000157
:104040000B68D91BB1FA81F14FEA51162FD040F21B
:10405000A401C2F20001096849B30222DB6ADE1B37
:10406000B6FA86F64FEA561621D0541E8C421ED25E
:10407000DB6ADE1BB6FA86F64FEA561617D08A427E
:1040800015D2DB6ADE1BB6FA86F64FEA56160ED05C
:10409000541C8C420BD2DB6ADE1BB6FA86F64FEA62
:1040A000561604D0941C8C4202F10402D6D3EFF3CE
:1040B000108172B60268013A026081F31088FFF73E
:1040C0006FFC1EB1022001B0BDE8F08335B1B9F13B
:1040D000640F07D2052001B0BDE8F083032001B0D2
:1040E000BDE8F08340F2B000C2F20000016840F287
:1040F0001000C2F200000268EFF305831A4315D0E6
:1041000041F60C030068C2F20003EFF3058202439C
:104110000020994208BF1320B2F1F03F38BF1320AE
:10412000994214D0B2F1F03F06D210E041F60C00F3
:10413000C2F20000814209D0384641462A464B4629
:1041400001B0BDE8F043FFF771BA00BF132001B022
:10415000BDE8F08344F20041C4F200010A6812068F
:104160005FBF0A685FEA02620A685FEA026202D41D
:104170000A681206F2D5486004E000BF0A685206D9
:1041800048BF70470A68520606D40A6852065CBFE8
:104190000A685FEA4262F1D570470000FCF7B2FF9F
:1041A000FFF738F8FEF7BCFBFEF79EFBFEF78AFC34
:1041B000FEF752FBFEF758FC41F6306040F2190161
:1041C000C2F20000C2F200011422FDF783FF0020BA
:1041D000C4F202004FF48071FCF772FF03A000F0FC
:1041E00031F8FEF76DFC00BFFEE700BF313233004F
:1041F00080B582B041F6786041F6AC624FF0340C85
:10420000C2F200000AA1C2F200024FF48063CDF8AE
:1042100000C0FFF7F5FE00281CBF02B080BD41F6CC
:104220007860C2F2000002B0BDE88040FCF7D0B96F
:10423000547820417070206D656D6F727920706FB9
:104240006F6C0000014A024900F013B855410008A4
:104250000000002002E008C8121F08C1002AFAD19D
:1042600070477047002001E001C1121F002AFBD1F6
:1042700070472DE9F04116460F460446002503E03D
:104280003946B047641C6D1C20780028F8D12846B8
:10429000BDE8F081000000000000000001020304FE
:1042A00006070809000000000102030400061016BA
:1042B0000006101653797374656D2054696D65722C
:1042C0002054687265616400E84200080000002024
:1042D00018000000544200080043000818000020A5
:1042E0009826000064420008000000000100000061
:1042F000100000000024F400F0F0F0F000000000D6
:040000050800018965
:00000001FF
