:020000040800F2
:10000000C80E0020A1010008DB1900080118000833
:10001000D9190008AD0200089D1F0008000000006B
:10002000000000000000000000000000B51B0008F8
:10003000ED02000800000000FD190008B71B0008D1
:10004000BB010008BB010008BB010008BB010008A0
:10005000BB010008BB010008BB010008BB01000890
:10006000BB010008BB010008BB010008BB01000880
:10007000BB010008BB010008BB010008BB01000870
:10008000BB010008BB010008BB010008BB01000860
:10009000BB010008BB010008BB010008BB01000850
:1000A000BB010008BB010008BB010008BB01000840
:1000B000BB010008BB010008BB010008BB01000830
:1000C000BB010008BB010008BB010008011A0008C1
:1000D000BB010008BB010008BB010008BB01000810
:1000E000BB010008BB010008BB010008BB01000800
:1000F000BB010008BB010008BB010008BB010008F0
:10010000BB010008BB010008BB010008BB010008DF
:10011000611C0008BB010008BB010008BB0100080E
:10012000BB010008BB010008BB010008BB010008BF
:10013000BB010008BB010008BB010008BB010008AF
:10014000BB010008BB010008BB010008BB0100089F
:10015000BB010008BB010008BB010008BB0100088F
:10016000BB010008BB010008BB010008BB0100087F
:10017000BB010008BB010008BB0100080000000033
:10018000BB010008BB010008DFF810D000F07CF8CC
:10019000004800479D260008AFF30080C80E0020ED
:1001A0000648804706480047FEE7FEE7FEE7FEE711
:1001B000FEE7FEE7FEE7FEE7FEE7FEE7511C00086C
:1001C000890100082DE9F05F0546002092469B4614
:1001D00088460646814640241BE02846414647465D
:1001E000224600F041F853465A46C01A914110D3B6
:1001F00011461846224600F028F82D1A67EB010830
:100200004F4622460120002100F01FF817EB00099D
:100210004E41201EA4F10104DFDC484631462A4647
:100220004346BDE8F09FD2B201E000F8012B491E21
:10023000FBD270470022F6E710B513460A46044683
:100240001946FFF7F0FF204610BD202A04DB203AB4
:1002500000FA02F1002070479140C2F1200320FA19
:1002600003F3194390407047202A04DB203A21FA17
:1002700002F00021704721FA02F3D040C2F12002BF
:100280009140084319467047064C074D06E0E06868
:1002900040F0010394E8070098471034AC42F6D3CD
:1002A000FFF776FFC82F0008E82F0008FEE70000E0
:1002B00000B50D4B85B00DF1040C0FCB8CE80F0091
:1002C00001A9012002F088F8401C00D1FEE7694630
:1002D0000F2002F081F8401C05D09DF80000002896
:1002E000F5D005B000BDFEE7B82F0008704772B624
:1002F000FEE72DE9F0410446876D00F065F90646FA
:1003000094F835000025022806D08020606584F826
:1003100034500120BDE8F0812068016821F0160109
:1003200001602068416921F080014161206C08B9B9
:10033000A06C20B12068016821F0080101602068EC
:10034000016821F0010101600CE000F03DF9801B23
:10035000052807D920206065032084F8350084F83B
:100360003450D7E720680068C007EED194F85C10DD
:100370003F208840B860012084F8350084F834506C
:100380000020C7E790F83510022903D0802141658D
:1003900001207047052180F835100068016821F0C0
:1003A000010101600020704770B5044600F00CF9AF
:1003B0000546601C02D004480078044400F004F9AB
:1003C000401BA042FAD370BD040000202DE9F84F75
:1003D000DFF8BCA10022012503264FF00F090AF126
:1003E000040BAAF1040E00BF0B6805FA02F42340C7
:1003F000A34270D10F7907F00307012F01D0022F1C
:1004000016D187684FEA420806FA08FC27EA0C076B
:10041000D1F80CC00CFA08FC4CEA070CC0F808C074
:100420004768A7430C79C4F3001494403C434460EC
:100430000C79E443A4070AD0C4684FEA420C06FAD8
:100440000CF7BC438F6807FA0CF72743C7600C7999
:1004500004F00304022C12D1D40800EB840CDCF865
:1004600020405707FF0E09FA07F824EA0804D1F8DC
:10047000108008FA07F848EA0408CCF820800468DD
:100480004FEA420C06FA0CF7BC430F7907F003075A
:1004900007FA0CF7274307604C6814F4403F70D00C
:1004A0003C4C276847F480472760246822F0030704
:1004B00004F480440094384C07EB040CDCF8084842
:1004C00097074FEA177809FA08F7BC43334FB84249
:1004D00002D1002724E054E0314FB84201D1012776
:1004E0001EE0304FB84201D1022719E02E4FB8422A
:1004F00001D1032714E02D4FB84201D104270FE0AA
:100500002B4FB84201D105270AE02A4FB84201D14A
:10051000062705E0284FB84201D1072700E0082749
:1005200007FA08F72743CCF80878DAF8004057466E
:10053000D1F804C09C435FEACC2C00D51C433C603E
:10054000DBF800405F46D1F804C09C435FEA8C2C86
:1005500000D51C433C60DEF800407746D1F804C06B
:100560009C435FEA8C3C00D51C433C60084F083F2D
:100570003C68D1F804C09C435FEACC3C00D51C43E6
:100580003C60521C102AFFF42FAFBDE8F88F00002A
:10059000083C014044380240003001400000024065
:1005A0000004024000080240000C0240001002401B
:1005B0000014024000180240001C02400AB1816190
:1005C00070470904FBE7000001488068704700009D
:1005D0000400002070B5040025D094F83D000025EB
:1005E00020B984F83C50204600F0B8F8242084F864
:1005F0003D002068016821F0010101602068016868
:1006000041F4004101602068016821F4004101606B
:1006100000F00CFA4D4A6168914201D84C4900E063
:100620004C49884201D2012070BD4B492368B0FB80
:10063000F1F15E6826F03F060E435E606368934208
:1006400006D94FF4967359434FF47A73B1FBF3F123
:100650002368491C1E6A26F03F063143196261680F
:10066000914210D84900401EB0FBF1F2521CC2F377
:100670000B02042A01D2042022E0B0FBF1F0401C5E
:10068000C0F30B001CE0A268F2B301EBC10303EB63
:100690000116431EB3FBF6F35B1C43F480431B05BA
:1006A00049D092B301EBC10202EB0111401EB0FB35
:1006B000F1F0401CC0F30B0040F4804040F40040D7
:1006C0002168CA694CF6FF739A431043C861D4E9A4
:1006D000071001432068026822F0C0021143016044
:1006E000D4E9030101432068826848F2FF339A434A
:1006F00011438160D4E9050108432168CA6822F0EA
:10070000FF021043C86001E00EE016E020680168B7
:1007100041F0010101602564202084F83D0025633B
:1007200084F83E50002070BD01EB4106431EB3FB30
:10073000F6F35B1CB3E70120C2E701EB4101401E69
:10074000B0FBF1F0401CC0F30B00B7E7A08601003E
:1007500080841E0000093D0040420F0010B586B0A5
:10076000044614216846FFF765FD13492068884256
:1007700020D112480021026842F0020202600068A3
:1007800000F002000590C02000901220CDE9010188
:10079000032003900420049069460948FFF716FEE1
:1007A00006481030016841F400110160006800F44F
:1007B0000010059006B010BD0054004030380240D3
:1007C0000004024002488168027811448160704749
:1007D000040000200B4810B5016841F4007101606D
:1007E000016841F480610160016841F48071016039
:1007F000032000F06FF80F2000F006F800F024F856
:10080000002010BD003C024070B50D4D04464FF471
:100810007A712878B1FBF0F00A490968B1FBF0F071
:1008200000F01CFD48B9102C07D200222146501EB2
:1008300000F030F800206C6070BD012070BD000039
:1008400004000020100000200A4808B5016841F4A7
:1008500080410160006800F4804000900548001F5E
:10086000016841F080510160006800F08050009004
:1008700008BD000044380240002809DB00F01F02D8
:10088000012191404009800000F1E020C0F80011F2
:1008900070470000F0B40E4B1B680C46C3F30223F4
:1008A000C3F10705042D00D90425191D072901D21C
:1008B000002300E0DB1E012606FA05F1491E214057
:1008C00099409E40761E16403143F0BC01F09ABC20
:1008D0000CED00E0064900F0070208684FF6FF0340
:1008E000184040EA0220034A1043086070470000A5
:1008F0000CED00E00000FA052DE9F0470E4605007A
:1009000065D0DFF81481D8F80000F7B200F00700D6
:10091000B04207D288F80070D8F8000000F0070055
:10092000B04254D128683D4C810712D5400703D509
:10093000206840F4E05020602878000703D5206844
:1009400040F4604020602068A96820F0F00008436F
:1009500020602878C0072DD0304968680839012800
:1009600012D0022813D0032811D009688907002962
:100970002DDA216821F0030101432160FFF724FEF5
:10098000814641F2883A0EE009688903EFE7096879
:100990008901ECE7FFF718FEA0EB0901514502D9E8
:1009A0000320BDE8F0872068696800F00C00B0EB18
:1009B000810FEFD1D8F80010404601F00701B14295
:1009C00007D90770006800F00700B04201D001208D
:1009D000E7E72878400705D52068E96820F4E0506B
:1009E000084320602878000706D52068296920F48C
:1009F000604040EAC100206000F038F82168084AF1
:100A0000C1F30311515CC8400649086006480068FC
:100A1000FFF7FAFE0020C4E7003C0240083802401D
:100A20009E2F0008100000200800002004480549FF
:100A300000680968044AC1F38221515CC8407047CC
:100A40001000002008380240AE2F00080448054975
:100A500000680968044AC1F34231515CC8407047DC
:100A60001000002008380240AE2F0008154810B5CD
:100A7000006810F00C02144813D04110042A0FD063
:100A8000082A0ED10F4C241F2268236802F03F026F
:100A90005B0207D52068C0F38810A0FB010106E0C7
:100AA000084610BD2168C1F38811A1FB0001002395
:100AB000FFF788FB2168C1F30141491C4900B0FBE5
:100AC000F1F010BD083802400024F4002DE9F84F81
:100AD00004006ED02078DFF84C93C007A9F104051C
:100AE0004AD009F104000168C1F38101012908D04D
:100AF0000068C0F3810002280AD1D9F80000400242
:100B000006D52868800337D560680028E1D033E037
:100B10006068B0F5803F10D0B0F5A02F286810D0E5
:100B200020F480302860286820F4802028606068E5
:100B3000A8B1FFF749FD06460DE0286840F4803073
:100B4000F4E740F480202860F7E700BFFFF73CFDA2
:100B5000801B642873D828688003F7D50CE0FFF762
:100B600033FD064605E000BFFFF72EFD801B64281D
:100B7000F0D828688003F7D42078DFF8AC828007AB
:100B80004FF0000A3ED5A748001D016811F00C0F78
:100B900008D00068C0F3810002280BD1D9F800000A
:100BA000400207D42868800716D5E068012800D1E4
:100BB00012E033E1E068B8B10120C8F80000FFF7A7
:100BC00003FD064605E000BFFFF7FEFC801B022880
:100BD000C0D828688007F7D52868216920F0F80078
:100BE00040EAC10028600DE0C8F800A0FFF7ECFC67
:100BF000064604E0FFF7E8FC801B02281FD828689F
:100C00008007F7D42078000722D5864F874861698E
:100C1000703771B101210160FFF7D6FC064604E090
:100C2000FFF7D2FC801B022809D838688007F7D567
:100C30000EE0C0F800A0FFF7C7FC064605E082E022
:100C4000FFF7C2FC801B02287DD838688007F7D4E4
:100C50002078400768D5DFF8CCB100270BF13C0BBA
:100C6000DBF80000C0000BD4DBF8001041F080512D
:100C7000CBF80010DBF80000012700F08050009056
:100C80006B4E3068C00510D4306840F4807030601E
:100C9000FFF79AFC009005E0FFF796FC0099401AD8
:100CA000022850D83068C005F6D55E4EA0686C3674
:100CB00001280FD00528306810D020F001003060E6
:100CC000306820F004003060A068B8B1FFF77CFC09
:100CD00000900FE0306840F00100F4E740F00400BD
:100CE0003060F7E7FFF770FC0099411A41F2883055
:100CF000814266D830688007F4D50EE0FFF764FCC7
:100D0000009007E0FFF760FC0099411A41F288303B
:100D1000814256D830688007F4D42FB1DBF8001038
:100D200021F08051CBF80010A069C8B33D49091DDE
:100D30000968C1F3810102294AD00228504607D030
:100D4000C8F8600000E03CE0FFF73EFC04463BE0F2
:100D50004746C8F86000FFF737FC064605E000BFCD
:100D6000FFF732FC801B02282BD828688001F7D4BB
:100D7000D4E907010843A16A2E4A490802EB014160
:100D8000626A41EA8211084394F82C1040EA01613A
:100D9000C9F8001001203866FFF716FC044606E08B
:100DA0003EE000BFFFF710FC001B022809D82868AE
:100DB0008001F7D534E000BFFFF706FC001B0228D6
:100DC00002D90320BDE8F88F28688001F4D427E019
:100DD0000128F7D0D9F80000E26900F480019142BF
:100DE0001CD1226A00F03F01914217D147F6C07131
:100DF000626A0140B1EB821F10D1A26A4FF0FF334B
:100E000000F4403103EB5202B1EB024F06D194F8EB
:100E10002C1000F07060B0EB016F01D00120D1E721
:100E20000020CFE70438024000004742800E4742CE
:100E3000007000400000FFFF7047000038B50168F7
:100E400004464A688868C043430606D5C30704D1F0
:100E5000D3435B0601D4216C05E0830708D4D34358
:100E60001B0605D4616C01B02046BDE83040084740
:100E7000830603D5430601D5C30551D4D3439B064E
:100E80004ED443060AD494F85130032B49D0636DF5
:100E900043F004036365CB688B680093830609D431
:100EA000636D43F0010363658B6800930B6823F067
:100EB00040030B60C00506D4606D40F0080060651B
:100EC000206880680090606D002829D02068416803
:100ED00021F0E0014160012084F85100900701D425
:100EE000D00722D02068416821F003014160114DF4
:100EF000E06C40B10565E06CFFF744FA18B1606D35
:100F000040F040006065A06C002809D00565A06C29
:100F1000FFF738FA002803D0606D40F040006065AC
:100F200038BDC8688868009038BD2046FFF784FF48
:100F300038BD00003D1A000870B5040009D0606A91
:100F4000002540B125616561A56294F8510040B16A
:100F50000CE0012070BD6068B0F5827FF4D0E561DF
:100F6000F2E784F85050204600F044F8022084F85C
:100F700051002068016821F040010160A0882189AA
:100F800000F4827001F404410843A18901F4006176
:100F90000843217C01F002010843217D01F0010199
:100FA0000843218B01F400710843217F01F03801CF
:100FB000084394F8201001F080010843218D01F4CA
:100FC0000051084321680860A069042101EA10402B
:100FD00094F8241001F0100108432168486020684B
:100FE000C16921F40061C1616565012084F8510087
:100FF000002070BD10B586B0044614216846FFF786
:1010000019F917492068884228D11648002102683A
:1010100042F480520260006800F48050059011484C
:101020001438026842F001020260006800F001001A
:101030000590E02000900220CDE9010103200390FB
:101040000520049069460848FFF7C0F900221146C0
:101050002320FFF71FFC2320FFF70EFC06B010BD76
:101060000030014044380240000002402DE9FF4FAB
:1010700081B01D46934604464FF001090E9EFFF7CE
:10108000A3FA074694F851006168012806D0B1F52B
:10109000827F3CD1A168C9BB042838D102980028BE
:1010A00071D0BBF1000FFBD0002DF9D094F85000A7
:1010B00001282CD04FF0010A84F850A094F8510078
:1010C000042802D0052084F851004FF00008C4F82D
:1010D0005480C4F838B0E587A58702992163E58676
:1010E000A586C4F84080C4F8448020680168490699
:1010F00003D4016841F040010160E068B0F5006F81
:10110000606808D0F0B3012D49D081E0FFE70220EC
:1011100005B0BDE8F08F08B1012D39D1206B2168F1
:101120000088C860206B801C2063E08E401EE08633
:101130002EE02068816889070FD5E18E69B1B9F189
:10114000010F0AD1216B0988C160206B801C2063CC
:10115000E08E401EE0864FF0000920688168C907D4
:101160000CD0E18F51B1C068A16B0880A06B801CCE
:10117000A063E08F401EE0874FF00109FFF724FADB
:10118000C01B01E00BE067E0B04201D3701C50D1FE
:10119000E08E0028CDD1E08F0028CAD13EE0206B40
:1011A000216800780873206B401C2063E08E401E8D
:1011B000E0862DE02068816889070FD5E18E69B14E
:1011C000B9F1010F0AD1216B09780173206B401C22
:1011D0002063E08E401EE0864FF0000920688168A1
:1011E000C9070CD0E18F51B1C068A16B0870A06B2A
:1011F000401CA063E08F401EE0874FF00109FFF71D
:10120000E3F9C01BB04202D3701C01D011E086B1DB
:10121000E08E0028CED1E08F0028CBD13A4631466F
:10122000204600F013FC50B12020606584F8508007
:1012300012E084F851A084F85080032068E7A06889
:1012400018B92068C1688068009084F851A084F8BB
:101250005080606D0028F1D0012059E710B5401E84
:10126000B0F1807F01D3012010BD4FF0E024606118
:101270000F21601700F0C6FF0020A0610720206149
:10128000002010BD7047704770B5044620680C30D0
:1012900050E8001F21F4907140E80012002AF5D1B7
:1012A0002068143050E8001F21F0010140E80012CE
:1012B000002AF5D1206B012809D120680C3050E8B4
:1012C000001F21F0100140E80012002AF5D120682B
:1012D00040694FF0200241064FF0000015D521680B
:1012E000143151E8003F23F0400341E80035002D60
:1012F000F5D1E16B49B109480865E06BFFF742F8A9
:1013000050B1E06B016D884706E0E08584F842202B
:1013100020632046FFF7B7FF002070BDA51C000822
:1013200010B504460068406994F84110C0F3C0103D
:10133000212911D180B12068143050E8001F21F01C
:10134000800140E80012002AF5D1A06B08B1FEF739
:10135000D0FF204600F0D8FC2068406994F8421085
:10136000C0F38010222911D180B12068143050E8D8
:10137000001F21F0400140E80012002AF5D1E06B87
:1013800008B1FEF7B6FF204600F097FC002010BD24
:1013900070470000F8B5016804460868CA684B69E0
:1013A00010F00F0F4FF0000559D003F0010602F4C2
:1013B0009077374365D0C10705D0D10503D5616C5F
:1013C00041F001016164410705D5D90703D0616C83
:1013D00041F002016164810705D5D90703D0616C32
:1013E00041F004016164010707D502F02001314397
:1013F00003D0616C41F008016164616C00293AD04E
:10140000800604D5900602D5204600F08BFC2068AB
:101410004069616CC0F38010090700D460B32046B6
:1014200000F04BFC20684069400621D5206814304C
:1014300050E8001F21F0400140E80012002AF5D1D9
:10144000E06BA8B16E490165E06BFEF79BFF0028D9
:1014500011D0E06B016D01B0BDE8F0400847830694
:101460000FD593060DD52046BDE8F84000F05ABCD4
:101470002046FFF78DFFF8BD2046FFF789FF656422
:10148000F8BD266B2023012E7DD1C6067BD5D6065E
:1014900079D508684868009048694FF00206400610
:1014A00041D5E16B086840680004000CE8D0A28DCB
:1014B0008242E5D9E085C869B0F5807F2DD02068EB
:1014C0000C3050E8001F21F4807140E80012002A1F
:1014D000F5D12068143050E8001F21F0010140E8E8
:1014E0000012002AF5D12068143050E8001F21F0C6
:1014F000400140E80012002AF5D184F8423025630B
:1015000020680C3050E8001F21F0100140E8001264
:10151000002AF5D1E06BFEF7ECFE6663A08DE18D4D
:10152000401A81B22AE0A08DE18D401A81B2E08D8F
:101530000028A5D00029A3D022680C3252E8000F61
:1015400020F4907042E80007002FF5D12068143095
:1015500050E8002F22F0010240E80027002FF5D1CB
:1015600084F84230256320680C3050E8002F22F0C8
:10157000100240E80023002BF5D166632046FFF7F8
:1015800081FEF8BDFFE705062BD5150629D594F891
:1015900041002128F5D1A068B0F5805F01D1206914
:1015A000B0B1206A411C2162216800784860E08C5B
:1015B000401E0004000CE084E3D12068C16821F0E3
:1015C0008001C1602068C16841F04001C160D8E776
:1015D000206A0088C0F308004860206A801C2062EE
:1015E000E5E74006CDD55006CBD5CA68204622F0A7
:1015F0004002CA6084F8413000F0F4F8C1E700000E
:10160000951C000870B5040004D094F84100002532
:1016100010B106E0012070BD84F84050204600F073
:1016200023F8242084F841002068C16821F4005187
:10163000C160204600F0D8FB2068016921F4904188
:1016400001612068416921F02A0141612068C16877
:1016500041F40051C1606564202084F8410084F8A1
:1016600042006563002070BD70B586B00446142149
:101670006846FEF7DFFD2468264E00232649032234
:1016800002252648B44224D1234C1034266846F45F
:1016900000262660246804F4002405940C6844F0B5
:1016A00001040C600968029301F001010591CDE984
:1016B00000250821CDE903216946FEF787FE0022B7
:1016C00011463420FFF7E6F83420FFF7D5F806B0CE
:1016D00070BD134EB442FAD10F4C1434266846F054
:1016E00010062660246804F0100405940C6844F089
:1016F00001040C600968029301F0010105914FF4A7
:10170000C061CDE900150721CDE903216946FEF747
:101710005DFEDCE7004C0040303802400000024033
:101720000010014090F84230202B01D00220704779
:1017300021B11AB10023036300F0DCBB0120704724
:1017400070472DE9F843044690F841009846164644
:101750000D46202802D00220BDE8F88385B17EB175
:1017600000206064212084F84100FEF72DFFA6844C
:101770008146E684A0682027B0F5805F02D003E0B0
:101780000120E9E7206910B12E4600250EE0002671
:101790000CE08021204600F0C8FBA8B9C6B116F8BD
:1017A000010B21684860E08C401EE084E08C4B46D1
:1017B0004FF00002CDF800800028EAD14FF0400140
:1017C000204600F0B2FB40B184F841700320C3E72B
:1017D00035F8020BC0F30800E3E784F841700020FD
:1017E000BAE700000449884205D100224FF4806125
:1017F0000248FEF7E3BE704724020020000C0240BE
:10180000FEE700002DE9F04786B014216846FEF798
:1018100011FD30480024016841F080010160016839
:1018200001F080010591016841F00101016001684A
:1018300001F001010591016841F0020101600168B8
:1018400001F002010591016841F0080101600068A2
:10185000DFF8848000F00800059000221021404647
:10186000FEF7ACFEDFF874904FF4006600223146BC
:101870004846FEF7A3FEDFF868A07710002239463D
:101880005046FEF79BFE102000900125CDE9015443
:10189000694640460394FEF799FD0420CDE9000413
:1018A000694648460294FEF791FD0096CDE9015441
:1018B000694648460394FEF789FD0220CDE90240BF
:1018C000CDE9007569465046FEF780FD06B0BDE8DB
:1018D000F08700003038024000000240000402405F
:1018E000000C02400D4810B50B4901600C494160E5
:1018F00000214FF480428160C0E90312416181619F
:10190000C1610162FEF766FE002803D0BDE8104009
:10191000FEF7EDBC10BD000000540040780100202F
:10192000A08601000F4810B50D4901604FF4827187
:10193000416000218160C1604FF400720161C0E923
:101940000512C1610162416281620A21C162FFF731
:10195000F3FA002803D0BDE81040FEF7C8BC10BD64
:1019600000300140CC0100200C4810B50A4901604C
:101970004FF4E1314160002181600C22C160C0E977
:1019800004128161C161FFF73DFE002803D0BDE86C
:101990001040FEF7ACBC10BD004C004024020020FB
:1019A0000C4810B50A4901604FF4E1314160002153
:1019B00081600C22C160C0E904128161C161FFF73E
:1019C00021FE002803D0BDE81040FEF790BC10BDFA
:1019D000001001406C020020FEE7FEE71CB506493E
:1019E000002000F0D3FC0449012000F0CFFC694640
:1019F000082000F0F1FC1CBD5A00002070470000D8
:101A00000148FFF71BBA0000CC0100200122102181
:101A10000148FEF7D3BD0000000002400022102163
:101A20000148FEF7CBBD000000000240012080F31A
:101A300010887047002080F31088704710B5806BC5
:101A40000021C187C186FFF7F7F910BDF8B515462B
:101A50000E460B46009204460122022100F040F897
:101A6000A0B9134813490068B0FBF1F04FF47A7144
:101A7000484300906068B0F5827F0DD13346002264
:101A800080212046009500F02BF870B1606D40F089
:101A9000200060650320F8BD009830B1401E009022
:101AA00020688068C0430006F6D50020F8BD00001D
:101AB0001000002000366E011CB507A0012300684D
:101AC0000190642000900DF1050201A90348FFF781
:101AD000CDFA9DF805001CBDFFFF0000CC010020E1
:101AE0002DE9F8431E46914688460446089DFEF7B8
:101AF0006BFD401B351AFEF767FD07462548006859
:101B0000C0F3CB30684338E0701C37D0FEF75CFD83
:101B1000C01BA84203D215B1009860B32CE0206826
:101B2000416821F0E00141606068B0F5827F0BD12F
:101B3000A068B0F5004F02D0B0F5806F04D12068E6
:101B4000016821F040010160A06AB0F5005F09D191
:101B50002068016821F4005101602068016841F4A7
:101B600000510160012084F85100002084F85000E9
:101B70000320BDE8F8830025401E0090206881689E
:101B800038EA010004D000214945BDD10020F0E72A
:101B90000121F9E71000002001B582B06420009017
:101BA000012301AA02A90248FFF760FA0EBD000056
:101BB000CC0100207047FEF705BE000030B593B0A1
:101BC00030216846FEF736FB14210CA8FEF732FBE5
:101BD0001D480025016841F080510160006800F057
:101BE000805011901948016841F4804101600068FB
:101BF000022400F480401190012000900004019024
:101C00008001CDE9064008AA0420A82182E813003B
:101C10000B906846FEF75AFF08B172B6FEE70CA9B2
:101C20000F2081E831004FF4A0500F904FF4805006
:101C3000109005210CA8FEF75FFE002801D072B6B7
:101C4000FEE713B030BD0000403802400070004095
:101C50000248016841F470010160704788ED00E0BE
:101C60000B4810B500680168C943C9060AD4016869
:101C700040680748FFF754FB0548FFF761FD04483B
:101C800000F08EF9BDE810400148FFF783BB00006B
:101C90002402002010B5806B0021C185C184FFF7AC
:101CA00077FB10BD10B5806B0021C185202280F824
:101CB00042200163FFF7E7FA10BD01680C3151E8DB
:101CC000002F22F4907241E80023002BF5D1016827
:101CD000143151E8002F22F0010241E80023002BCB
:101CE000F5D1016B012909D101680C3151E8002FB0
:101CF00022F0100241E80023002BF5D1202180F8CA
:101D0000421000210163704701680C3151E8002F37
:101D100022F0C00241E80023002BF5D1202180F8F9
:101D20004110704708B590F84210222901D00220D6
:101D300008BD82684FF480539A4201D1016921B1F4
:101D4000816A9A421BD04AB10AE00268816A5268ED
:101D5000C2F308020A80816A891C08E0026972B134
:101D60000268526802F07F020A70816A491C81622F
:101D7000C18D491E0904090CC18503D01BE002680E
:101D80005268F1E70168CA6822F02002CA6001685F
:101D9000CA6822F48072CA6001684A6922F00102AE
:101DA0004A61202180F8421000214163026B012A20
:101DB00003D0FFF7C5FC002008BD016301680C31AA
:101DC00051E8002F22F0100241E80023002BF5D14A
:101DD00001680A68D20602D50A6849680091818DB7
:101DE000FFF750FAE7E7000070B5044600680169A4
:101DF000E26821F44051114301612169A068E26960
:101E000008436169114308432168CA6849F20C63B9
:101E10009A430243CA6020684169A26921F4407173
:101E20001143416131492068884202D030498842DB
:101E300002D1FEF70BFE01E0FEF7F8FDE269002398
:101E4000192164253226B2F5004F626828D0A0FB24
:101E50000101930F9200FEF7B5F90146B0FBF5F0D2
:101E60006FF01802504301EB800006EB0010B0FB4E
:101E7000F5F000F0F002B1FBF5F002EB0012B1FB5F
:101E8000F5F06FF01803584301EB800006EB0010EB
:101E9000B0FBF5F000F00F0021681044886070BDC1
:101EA000A0FB010192185B41FEF78CF90146B0FBE3
:101EB000F5F00201B1FBF5F06FF01803584301EBA8
:101EC000800006EBC000B0FBF5F000F0F80002EB7C
:101ED0004002B1FBF5F0584301EB800006EBC00077
:101EE000B0FBF5F000F00700D6E70000001001405D
:101EF0000014014081628285C28500214164222153
:101F000080F84210016921B10168CA6842F4807208
:101F1000CA6001684A6942F001024A610068C1680A
:101F200041F02001C160002070472DE9F843984638
:101F300017460D460446089E24E0701C22D0FEF78A
:101F400043FBA0EB0800B0421AD8CEB12068C168AC
:101F5000490717D5802D15D0402D13D00168C943EE
:101F600009070FD401680025406800902046FFF75C
:101F7000A4FE0820606484F840500120BDE8F88386
:101F80000320FBE72068006835EA000004D0002049
:101F9000B842D2D00020F1E70120F9E7FEE70000C7
:101FA000094908B50A68136852680092C98D074A42
:101FB000C1F164011170FFF767F9BDE808406422C0
:101FC00003490148FFF7AEBB2402002000000020B7
:101FD0007800002010B500F01FF80949094800F00A
:101FE000F3FB0949094800F001FC0949094800F0E0
:101FF0000FFCFEF75DF9BDE81040FFF7EFBC0000F5
:10200000351A00082D1A00080D1A00081D1A0008BC
:10201000991B0008B91A000870B50A4D4FF4006406
:10202000002221462846FEF7C9FA3220FEF7BCF905
:10203000012221462846FEF7C1FABDE870400A2079
:10204000FEF7B2B900040240F8B5144C0546E0684A
:10205000804760698047616AC5F30740C5F307267A
:1020600099B1A26A8AB18DF800008DF801608DF8EF
:102070000250032168469047E06980470546A06901
:102080008047206980472846F8BD216A8847216A31
:1020900030468847216AE8B28847EDE72C000020E7
:1020A0002DE9F8431A4C05461746E06888468047F4
:1020B00060698047616AC5F30740C5F30726A1B18F
:1020C000A26A92B18DF800008DF801608DF802507F
:1020D000032168469047626A394640469047A069A6
:1020E000804720698047BDE8F883216A8847216AD4
:1020F00030468847216AE8B28847002505E0E06954
:10210000804708F805006D1CADB2BD42F7D3E6E785
:102110002C000020F8B5164C05460E46E0688047B6
:1021200060698047A26A45F004058AB1280C8DF8E1
:102130000000280A8DF801008DF802508DF8036028
:10214000042168469047A069804720698047F8BD10
:10215000216AC5F307408847216AC5F307208847ED
:10216000216AE8B28847216A30468847EBE70000D9
:102170002C000020F8B51A4C05461646E0680F46BC
:10218000804760698047A26A45F004059AB1280C2F
:102190008DF80000280A8DF801008DF80250032107
:1021A00068469047A26A314638469047A069804702
:1021B00020698047F8BD216AC5F307408847216A36
:1021C000C5F307208847216AE8B28847002504E064
:1021D000216A785D88476D1CADB2B542F8D3E5E75A
:1021E0002C0000200FB4054B10B503A9044A029837
:1021F00000F027F810BC5DF814FB00006D25000806
:10220000740000200907090E002804DB00F1E0201B
:1022100080F80014704700F00F0000F1E02080F813
:10222000141D704702E008C8121F08C1002AFAD125
:1022300070477047002001E001C1121F002AFBD146
:1022400070472DE9F84F9946924688460546002783
:1022500006E025280AD051464A4690476D1C7F1C4F
:1022600028780028F5D13846BDE8F88F002315F806
:10227000011F18462E2915D115F8011F04232A29FC
:102280000DD06FF02F022978A1F13004092C09D864
:1022900000EB800002EB400008446D1CF3E758F8A7
:1022A000040B6D1C2A78002ADDD0632A07D0732A1C
:1022B0000FD0104651464A4690477F1C2AE018F836
:1022C000042B8DF8002000218DF801106E460121AD
:1022D00003E058F8046B4FF0FF315A074FF0000449
:1022E00001D409E0641C84420BDA8C42FADB325DD3
:1022F000002AF7D105E0641C8C42FCDB305D00282D
:10230000F9D1274404E016F8010B51464A4690479C
:10231000641EF8D26D1CA3E770B50446082802D9E4
:102320004FF0FF3070BD4FF4847000EB4410054651
:102330001021FFF7EFFE2846FFF786FE0028FAD1AE
:102340004FF4027000EB44101F21FFF7E3FE0D492C
:102350000120A0404A8882434A808A8882438A803A
:102360000949002021F814000649891D08554FF439
:10237000427000EB44142046FFF766FE0028FAD1B5
:10238000012070BD14000020B402002010B50C46DE
:1023900006281ED2DFE800F003070B1014182046B1
:1023A00000F0AEFC13E0204600F01CFC0FE02078AB
:1023B000BDE8104000F0D0BC00F040FC207006E00A
:1023C000204600F0DBFC02E0204600F03AFC002052
:1023D00010BD4FF0FF3010BD2DE9F0410C4600213B
:1023E00002464F1E08464FF498554FF4A056102A47
:1023F00063D2DFE802F0080B17131A1E222C3645B1
:10240000484C5950555C00F0EFFC4DE014B12046AB
:1024100004F10801BDE8F04100F027BC208800F07D
:102420008DFB41E000F0C0FB05E0208800F05AFC85
:102430003AE000F0C8FB208036E02088010A2846F8
:10244000FFF768FE21783046FFF764FE2CE0304647
:10245000FFF7FAFD06462846FFF7F6FD06EB0020DB
:10246000E9E7174882782270C27862700279A27018
:102470004279E27082792271C0796071A17113E0B2
:1024800000F02BFD10E0204600F03CFD0CE0204663
:1024900000F0E4FC08E02078BDE8F04100F057BD12
:1024A00000F00EFD05E020700020BDE8F08100F096
:1024B000FCFCC0B241B2491CF5D13846F5E700003A
:1024C0002C00002070B504464FF4427000EB441518
:1024D0002846FFF7B9FD214908802846FFF7B4FDDB
:1024E00088B3132808D017280BD01C2834D1E0B2A9
:1024F000BDE87040FFF710BFE0B2BDE8704000F0EB
:1025000095B84FF4027000EB44100546FFF79CFDB0
:10251000C00703D028460121FFF7FCFDE0B200F020
:1025200039F8050018D0E0B22A460D4900F0DAF873
:102530000B490CA0FFF756FEE0B22A46BDE87040FA
:10254000074900F07BB9E0B2BDE87040202341F6B6
:10255000BB72012100F000BA70BD000058000020DD
:10256000C402002025730D0A0000000013B50122EB
:1025700091020648FEF722F84FF6FF7301226946E2
:102580000348FFF7DEF800981CBD0000000C024075
:10259000240200202DE9F04142F2086101EB4015D0
:1025A00042F20871002601EB40142846FFF74CFD6B
:1025B00007462046FFF748FD00EB072007043F0CC5
:1025C00009D02846FFF740FD06462046FFF73CFDB0
:1025D00000EB062086B2BE42E7D13046BDE8F0816E
:1025E0002DE9F04142F2080101EB401542F20811D9
:1025F000002601EB40142846FFF726FD074620463B
:10260000FFF722FD00EB072007043F0C09D0284606
:10261000FFF71AFD06462046FFF716FD00EB0620E1
:1026200086B2BE42E7D13046BDE8F08170B50446BF
:10263000082802D94FF0FF3070BD60010830FFF765
:1026400003FD00F00F00012802D06FF0040070BD00
:102650004FF4427000EB44100546FFF7F5FC1328D9
:1026600002D06FF0020070BD4FF4847000EB441094
:1026700006460221FFF74EFD3046FFF7E5FC002835
:10268000FAD12846FFF7E0FC142805D02046FFF7D2
:1026900043FE6FF0030070BD012070BDFEF79AF895
:1026A000FFF78CFAFFF7AEF8FFF73CF9FFF75CF99C
:1026B000FFF718F9FFF774F9642208490848FFF793
:1026C00031F807480068C16841F01001C160FFF7A8
:1026D00081FC0320FFF7F6FEFBE7000078000020F6
:1026E000240200202DE9F74F14460546082803D997
:1026F0004FF0FF30BDE8FE8F680101260830FFF77C
:10270000A3FC00F00F00012801D0B01FF2E724B3B2
:1027100041F6086000EB4510FFF796FC4FF6FF719D
:1027200001EA8020A04200D204464FF4427000EB40
:10273000451841F60870DFF88CA000EB451B06FA3F
:1027400005F92846FFF726FF06464046FFF77CFCC2
:10275000172816D01C2803D00DE06FF00D00C9E734
:10276000CEB92846FFF73CFF07465846FFF76CFCFA
:10277000B7EB802F05D12846FFF7CEFD6FF006009E
:10278000B8E7BAF8021019EA010F02D01EB900200A
:10279000B0E7002ED5D0A64200D2344622462846C5
:1027A000019900F067F94FF4847000EB451005467D
:1027B0004021FFF7AFFC2846FFF746FC0028FAD17E
:1027C000204697E714000020054A18B111B1C2E96C
:1027D000030170470348D060034810617047000050
:1027E0002C000020772B00087F2B0008054A18B129
:1027F00011B1C2E905017047034850610348906177
:10280000704700002C000020992B0008892B00083D
:10281000074A10B513889C05FDD518B111B1C2E95E
:10282000070110BD0348D0610348106210BD0000CD
:102830002C000020A52D0008CD2D00082DE9F05F0B
:1028400015468B460646082803D94FF0FF30BDE8F1
:10285000F09F700101240830FFF7F6FB00F00F0035
:10286000012801D0A01FF2E775B14FF4427000EBD0
:1028700046100746FFF7E8FB6FF0060A172806D058
:102880001C2804D05046E2E76FF00D00DFE7DFF8C8
:10289000C480B440B8F80400044213D04FF402706E
:1028A00000EB46108146FFF7CFFB00F01F00C1068A
:1028B00024D548461021FFF72DFCB8F80410A14399
:1028C000A8F8041041F6087000EB4610FFF7BCFBB7
:1028D0004FF6FF7101EA8020854200D90546304657
:1028E000FFF77EFE81463846FFF7AEFB17280DD076
:1028F0001C280BD03046FFF70FFDC3E700070BD5B0
:102900003046FFF709FD6FF00C00A0E7B8F80200B1
:10291000044203D04D4501D9002098E74D45DED84B
:102920002A465946304600F0D5F84FF4847000EB43
:10293000461006462021FFF7EDFB3046FFF784FBEB
:102940000028FAD1B8F8041028460C43A8F804402F
:102950007DE70000140000202DE9F8431D461746CE
:102960000E460446082803D94FF0FF30BDE8F8832F
:10297000012E08D0022E0ED0032E0CD0042E0AD029
:102980006FF00400F2E7042269464FF47060FFF72D
:1029900087FB009848B169076FF00500E6D49DB148
:1029A000012E05D0022E0FD106E06FF00200DDE708
:1029B00015F0210FDAD007E0A90601D52906D5D5F3
:1029C000E90601D52906D1D52046FFF7A5FC60010F
:1029D00005F0F0014FF0010831430830FFF79AFB92
:1029E000224E57B93788781C80B2A0F57F413080DD
:1029F000F03902D14FF4404030804FF48160390A01
:102A000000EB4410FFF786FB4FF4A160F9B200EB36
:102A10004410FFF77FFB4FF4847000EB441007462F
:102A20000121FFF777FB3846FFF70EFB0028FAD1AC
:102A300008FA04F0718805F001028143A2400A43BC
:102A40007280B1888143B1800949002021F81400C7
:102A50000649891D08554FF4427000EB441528467D
:102A6000FFF7F2FA0028FAD060B27FE714000020E6
:102A7000B40200202DE9F0475FEA020889460646C5
:102A800026D042F6081000EB46152846FFF7DCFA80
:102A9000074642F6080000EB46142046FFF7D4FA3A
:102AA00007EB002087B2380200EB46104246494649
:102AB0001830FFF7F5FA07EB080086B2310A204616
:102AC000FFF728FBF1B22846BDE8F047FFF722BB2D
:102AD000BDE8F0872DE9F0475FEA0208894606461F
:102AE00026D042F2085000EB46152846FFF7ACFA14
:102AF000074642F2084000EB46142046FFF7A4FACE
:102B000007EB002087B2380200EB461042464946E8
:102B10001030FFF72FFB07EB080086B2310A204682
:102B2000FFF7F8FAF1B22846BDE8F047FFF7F2BA2E
:102B3000BDE8F08700787047017070472DE9F041DB
:102B4000050A00F0F0014FF4A850FFF7E3FA002463
:102B500001264FF4027700BF06FA04F0284204D0A1
:102B600007EB44101F21FFF7D5FA641CE4B2082CD0
:102B7000F2D3BDE8F081012080F310887047002077
:102B800080F3108870470000012210210148FDF7F2
:102B900015BD000000000240002210210148FDF791
:102BA0000DBD00000000024010B54FF4A850FFF723
:102BB0004BFA00F0F0044FF4B850FFF745FA04EB7D
:102BC000002080B210BD10B54FF4B050FFF73CFAB2
:102BD00004464FF4C050FFF737FA04EB002080B2F0
:102BE00010BD000010B50446014606224FF41060E7
:102BF000FFF756FA042204F10E019001FFF750FA94
:102C0000042204F10A014FF4A060FFF749FA0422FC
:102C1000A11D4FF47060FFF743FA07480178A174D3
:102C20004178E17481782175C07860750248401E52
:102C30000078A07510BD0000250000200020FFF7DF
:102C400003BA70B504464FF4D850FFF7FDF9207071
:102C50004FF4D050FFF7F8F905464FF4C850FFF78E
:102C6000F3F905EB0020608070BD2DE9F0410D46C1
:102C70000646002400F0B8F84FF0FF38AEB100224D
:102C8000B05C204444B2102C17DC521C52B2082A0B
:102C9000F6DB002441F60877315D07EB4410FFF7BF
:102CA00039FA641C64B2082CF6DBCDB10021084669
:102CB0002A5C114449B2102902DD4046BDE8F0818A
:102CC000401C40B20828F3DB002441F60866295D69
:102CD00006EB4410FFF71EFA641C64B2082CF6DB06
:102CE0000020EBE710B5C1B2040A4FF4B050FFF773
:102CF00011FA2146BDE810404FF4C050FFF70ABA60
:102D000010B50446014606224FF41060FFF732FA70
:102D1000042204F10E019001FFF72CFA042204F1C1
:102D20000A014FF4A060FFF725FA0422A11D4FF419
:102D30007060FFF71FFA0748A17C0170E17C4170C9
:102D4000217D8170617DC1700249A07D491E08709E
:102D500010BD00002500002010B5044630F03A00F8
:102D600002D04FF0FF3010BD0020FFF76DF940EAB0
:102D700004010020FFF7CEF9002010BD10B5044675
:102D800001784FF4D850FFF7C5F96088010A4FF475
:102D9000C850FFF7BFF9A178BDE810404FF4D050FC
:102DA000FFF7B8B91CB507A00123006801906420A3
:102DB00000900DF1050201A90348FEF757F9002024
:102DC0001CBD0000FFFF0000CC01002001B582B057
:102DD00064200090012301AA02A90248FEF746F9E7
:102DE0000EBD0000CC010020F0B585B04FF410649A
:102DF000062269462046FFF753F90422950102A9ED
:102E00002846FFF74DF94FF4A066042203A9304687
:102E1000FFF746F94FF47067042204A93846FFF71C
:102E20003FF980210020FFF775F90020FFF70CF92A
:102E3000062269462046FFF79DF9042202A928468A
:102E4000FFF798F9042203A93046FFF793F904220B
:102E500004A93846FFF78EF905B0F0BD10B5044659
:102E60004FF43850FFF7F0F8C0F38011217000F0F4
:102E7000380001220021202811D038280FD061709D
:102E800010280ED018280CD020280AD0A1700828AD
:102E900009D0182807D0202805D0E17010BD627035
:102EA000EEE7A270F3E7E27010BD10B500244FF416
:102EB0003850FFF7C9F8C00700D00124204610BDE4
:102EC00010B500244FF43850FFF7BEF8C0F3C2002D
:102ED000062800D10124204610BD10B54FF4385407
:102EE0002046FFF7B1F820F080012046FFF712F9E5
:102EF0002046FFF7A9F840F080012046BDE81040C9
:102F0000FFF708B910B502780021012A00D140214D
:102F10004278012A06D0C2788078012A05D001289B
:102F20000BD00CE041F0380109E0012802D041F05B
:102F3000080104E041F0180101E041F010014FF4F4
:102F40003850FFF7E7F8BDE81040FFF7C6BF70B58F
:102F500004464FF438563046FFF776F841064FF0F6
:102F6000FF351AD520F03800012C10D040F0380180
:102F70003046FFF7CFF8FFF7B0FF3046FFF764F8B1
:102F8000012C07D000F0380038B1002070BD40F0AF
:102F90003001EDE700F03000F6E7284670BD000094
:102FA00000000000000001020304060708090000F9
:102FB00000000102030400000202020202020202F7
:102FC0000202020202020202E82F000800000020B2
:102FD00078000000242200086030000878000020FB
:102FE000500E000034220008000000000100000024
:102FF00010000000000000000024F40000C00000E9
:1030000000000000000000000000000000000000C0
:10301000000000000102573535303000000000008C
:10302000772B00087F2B0008992B0008892B0008BC
:10303000352B0008392B00080000000000000000BC
:103040000000788368885672C0A80188FFFFFF00DF
:10305000C0A80101B44C4C4C02000000000000006C
:040000050800018965
:00000001FF
