:020000040800F2
:10000000F8450020A10100087F180008BD13000872
:100010007D180008AD020008631C00080000000005
:10002000000000000000000000000000931900081C
:10003000AF0200080000000091190008951900089F
:10004000BB010008BB010008BB010008BB010008A0
:10005000BB010008BB010008BB010008BB01000890
:10006000BB010008BB010008BB010008BB01000880
:10007000BB010008BB010008BB010008BB01000870
:10008000BB010008BB010008BB010008BB01000860
:10009000BB010008BB010008BB010008BB01000850
:1000A000BB010008BB010008BB010008BB01000840
:1000B000BB010008BB010008BB010008BB01000830
:1000C000BB010008BB010008BB010008BB01000820
:1000D000BB010008BB010008BB010008BB01000810
:1000E000BB010008BB010008BB010008BB01000800
:1000F000BB010008BB010008BB010008BB010008F0
:10010000BB010008BB010008BB010008BB010008DF
:10011000BB010008BB0100083D1A0008BB01000834
:10012000BB010008BB010008BB010008BB010008BF
:10013000BB010008BB010008BB010008BB010008AF
:10014000BB010008BB010008BB010008BB0100089F
:10015000BB010008BB010008BB010008BB0100088F
:10016000BB010008BB010008BB010008BB0100087F
:10017000BB010008BB010008BB0100080000000033
:10018000BB010008BB010008DFF810D000F07CF8CC
:1001900000480047A51C0008AFF30080F845002088
:1001A0000648804706480047FEE7FEE7FEE7FEE711
:1001B000FEE7FEE7FEE7FEE7FEE7FEE72D1A000892
:1001C000890100082DE9F05F0546002092469B4614
:1001D00088460646814640241BE02846414647465D
:1001E000224600F041F853465A46C01A914110D3B6
:1001F00011461846224600F028F82D1A67EB010830
:100200004F4622460120002100F01FF817EB00099D
:100210004E41201EA4F10104DFDC484631462A4647
:100220004346BDE8F09FD2B201E000F8012B491E21
:10023000FBD270470022F6E710B513460A46044683
:100240001946FFF7F0FF204610BD202A04DB203AB4
:1002500000FA02F1002070479140C2F1200320FA19
:1002600003F3194390407047202A04DB203A21FA17
:1002700002F00021704721FA02F3D040C2F12002BF
:100280009140084319467047064C074D06E0E06868
:1002900040F0010394E8070098471034AC42F6D3CD
:1002A000FFF776FF3C1D00085C1D0008FEE7704765
:1002B00072B6FEE770B5044600F014F90546601CFE
:1002C00002D004480078044400F00CF9401BA0421E
:1002D000FAD370BD000000202DE9F84FDFF8BCA173
:1002E0000022012503264FF00F090AF1040BAAF1A1
:1002F000040E00BF0B6805FA02F42340A34270D13C
:100300000F7907F00307012F01D0022F16D187685C
:100310004FEA420806FA08FC27EA0C07D1F80CC09D
:100320000CFA08FC4CEA070CC0F808C04768A74361
:100330000C79C4F3001494403C4344600C79E443CA
:10034000A4070AD0C4684FEA420C06FA0CF7BC4373
:100350008F6807FA0CF72743C7600C7904F0030491
:10036000022C12D1D40800EB840CDCF82040570793
:10037000FF0E09FA07F824EA0804D1F8108008FAF9
:1003800007F848EA0408CCF8208004684FEA420CD9
:1003900006FA0CF7BC430F7907F0030707FA0CF7CE
:1003A000274307604C6814F4403F70D03C4C2768EA
:1003B00047F480472760246822F0030704F4804450
:1003C0000094384C07EB040CDCF8084897074FEA18
:1003D000177809FA08F7BC43334FB84202D1002717
:1003E00024E054E0314FB84201D101271EE0304FE4
:1003F000B84201D1022719E02E4FB84201D103279C
:1004000014E02D4FB84201D104270FE02B4FB84222
:1004100001D105270AE02A4FB84201D1062705E09D
:10042000284FB84201D1072700E0082707FA08F74C
:100430002743CCF80878DAF800405746D1F804C0D2
:100440009C435FEACC2C00D51C433C60DBF80040A9
:100450005F46D1F804C09C435FEA8C2C00D51C4356
:100460003C60DEF800407746D1F804C09C435FEA68
:100470008C3C00D51C433C60084F083F3C68D1F8D9
:1004800004C09C435FEACC3C00D51C433C60521C3A
:10049000102AFFF42FAFBDE8F88F0000083C0140A0
:1004A0004438024000300140000002400004024095
:1004B00000080240000C02400010024000140240FC
:1004C00000180240001C0240426921EA02030A406F
:1004D00043EA0241816170470AB1816170470904B2
:1004E000FBE7000001488068704700000000002022
:1004F00070B5040025D094F83D00002520B984F89B
:100500003C50204600F0E6F9242084F83D002068A5
:10051000016821F0010101602068016841F4004197
:1005200001602068016821F40041016000F03CFB9B
:100530004D4A6168914201D84C4900E04C498842DB
:1005400001D2012070BD4B492368B0FBF1F15E6818
:1005500026F03F060E435E606368934206D94FF46F
:10056000967359434FF47A73B1FBF3F12368491C36
:100570001E6A26F03F06314319626168914210D825
:100580004900401EB0FBF1F2521CC2F30B02042AD8
:1005900001D2042022E0B0FBF1F0401CC0F30B00BC
:1005A0001CE0A268F2B301EBC10303EB0116431E8A
:1005B000B3FBF6F35B1C43F480431B0549D092B3B5
:1005C00001EBC10202EB0111401EB0FBF1F0401C37
:1005D000C0F30B0040F4804040F400402168CA6939
:1005E0004CF6FF739A431043C861D4E907100143E6
:1005F0002068026822F0C00211430160D4E90301BF
:1006000001432068826848F2FF339A4311438160B6
:10061000D4E9050108432168CA6822F0FF021043AB
:10062000C86001E00EE016E02068016841F00101B9
:1006300001602564202084F83D00256384F83E5045
:10064000002070BD01EB4106431EB3FBF6F35B1CBB
:10065000B3E70120C2E701EB4101401EB0FBF1F01E
:10066000401CC0F30B00B7E7A086010080841E0089
:1006700000093D0040420F002DE9F84F1F4690460B
:100680008A460446DDF82890FFF72CFF054694F8CB
:100690003D0020287FD119230122404920460095A2
:1006A00000F072FF002876D194F83C00012872D047
:1006B000012084F83C0020680168C90703D1016863
:1006C00041F0010101602068016821F400610160CE
:1006D000212084F83D00102084F83E000026266486
:1006E000C4F824806785608D20852D48E0622B4604
:1006F0004A465146204600F079FE90B9206841698B
:100700008069009036E02A464946204600F0E2FF24
:1007100050B1206C042804D12068016841F40071B4
:1007200001600120BDE8F88F606A216800780861E7
:10073000606A401C6062618D491E6185218D491E81
:1007400089B2218522685369DB435B070BD451B121
:1007500000781061606A401C6062608D401E608598
:10076000208D401E20852A464946204600F0E0FEA6
:100770000028CED1208D0028C5D154F83D0B01684A
:1007800041F400710160202004F81E09E6776677C5
:100790000020C7E7FFE70220C4E7000002001000C6
:1007A0000000FFFF2DE9FF4F83B09A46DDE9119766
:1007B00093460446DDF84080FFF794FE054694F822
:1007C0003D0020287FD11923012240492046009571
:1007D00000F0DAFE002876D194F83C00012872D0AF
:1007E000012084F83C0020680168C90703D1016832
:1007F00041F0010101602068016821F4006101609D
:10080000212084F83D00402084F83E000026266424
:10081000C4F82480A4F82A90608D20852C48E062DA
:10082000CDE9007553465A462046049900F02CFE47
:1008300070B930E02A463946204600F04BFF58B1E7
:10084000206C042804D12068016841F40071016023
:10085000012007B0BDE8F08F606A21680078086168
:10086000606A401C6062218D491E89B22185628DBB
:10087000521E628522685369DB435B070BD469B162
:1008800000781061606A401C6062208D401E2085E7
:10089000608D401E6085208D0028CBD12A463946C8
:1008A000204600F045FE0028CAD154F83D0B0168EF
:1008B00041F400710160202004F81E09E677667794
:1008C0000020C6E7FFE70220C3E700000200100097
:1008D0000000FFFF10B586B0044614216846FFF7FC
:1008E000A9FC14492068884221D1134800210268DC
:1008F00042F002020260006800F0020005904FF42E
:10090000406000901220CDE90101032003900420F3
:10091000049069460948FFF7DFFC0748103001687A
:1009200041F480010160006800F48000059006B089
:1009300010BD000000580040303802400004024062
:1009400002488168027811448160704700000020ED
:100950000B4810B5016841F400710160016841F471
:1009600080610160016841F480710160032000F042
:100970006FF80F2000F006F800F024F8002010BDFA
:10098000003C024070B50D4D04464FF47A71287852
:10099000B1FBF0F00A490968B1FBF0F000F00AFB86
:1009A00048B9102C07D200222146501E00F030F822
:1009B00000206C6070BD012070BD000000000020B0
:1009C0000C0000200A4808B5016841F4804101602C
:1009D000006800F4804000900548001F016841F065
:1009E00080510160006800F08050009008BD000058
:1009F00044380240002809DB00F01F020121914029
:100A00004009800000F1E020C0F8001170470000AC
:100A1000F0B40E4B1B680C46C3F30223C3F1070569
:100A2000042D00D90425191D072901D2002300E057
:100A3000DB1E012606FA05F1491E214099409E4021
:100A4000761E16403143F0BC01F00CB90CED00E00D
:100A5000064900F0070208684FF6FF03184040EA15
:100A60000220034A10430860704700000CED00E0CC
:100A70000000FA052DE9F0470E46050065D0DFF8C5
:100A80001481D8F80000F7B200F00700B04207D296
:100A900088F80070D8F8000000F00700B04254D188
:100AA00028683D4C810712D5400703D5206840F4E3
:100AB000E05020602878000703D5206840F46040AB
:100AC00020602068A96820F0F000084320602878A2
:100AD000C0072DD0304968680839012812D0022893
:100AE00013D0032811D00968890700292DDA21685D
:100AF00021F0030101432160FFF7F4FC814641F23C
:100B0000883A0EE009688903EFE709688901ECE794
:100B1000FFF7E8FCA0EB0901514502D90320BDE82D
:100B2000F0872068696800F00C00B0EB810FEFD10E
:100B3000D8F80010404601F00701B14207D907700C
:100B4000006800F00700B04201D00120E7E72878F4
:100B5000400705D52068E96820F4E050084320608C
:100B60002878000706D52068296920F4604040EA0B
:100B7000C100206000F038F82168084AC1F3031171
:100B8000515CC8400649086006480068FFF7FAFE55
:100B90000020C4E7003C024008380240081D00085D
:100BA0000C00002004000020044805490068096882
:100BB000044AC1F38221515CC84070470C000020F8
:100BC00008380240181D00080448054900680968F3
:100BD000044AC1F34231515CC84070470C00002008
:100BE00008380240181D0008154810B5006810F0BC
:100BF0000C02144813D04110042A0FD0082A0ED139
:100C00000F4C241F2268236802F03F025B0207D5C5
:100C10002068C0F38810A0FB010106E0084610BD63
:100C20002168C1F38811A1FB00010023FFF7CAFA74
:100C30002168C1F30141491C4900B0FBF1F010BD2E
:100C4000083802400024F4002DE9F84F04006ED06B
:100C50002078DFF84C93C007A9F104054AD009F1C8
:100C600004000168C1F38101012908D00068C0F3C4
:100C7000810002280AD1D9F80000400206D5286870
:100C8000800337D560680028E1D033E06068B0F5B4
:100C9000803F10D0B0F5A02F286810D020F480300D
:100CA0002860286820F4802028606068A8B1FFF7D9
:100CB00019FC06460DE0286840F48030F4E740F463
:100CC00080202860F7E700BFFFF70CFC801B64283A
:100CD00073D828688003F7D50CE0FFF703FC0646BD
:100CE00005E000BFFFF7FEFB801B6428F0D82868F2
:100CF0008003F7D42078DFF8AC8280074FF0000A39
:100D00003ED5A748001D016811F00C0F08D00068FF
:100D1000C0F3810002280BD1D9F80000400207D4AB
:100D20002868800716D5E068012800D112E033E179
:100D3000E068B8B10120C8F80000FFF7D3FB064611
:100D400005E000BFFFF7CEFB801B0228C0D8286853
:100D50008007F7D52868216920F0F80040EAC10033
:100D600028600DE0C8F800A0FFF7BCFB064604E0D1
:100D7000FFF7B8FB801B02281FD828688007F7D42C
:100D80002078000722D5864F87486169703771B196
:100D900001210160FFF7A6FB064604E0FFF7A2FB76
:100DA000801B022809D838688007F7D50EE0C0F804
:100DB00000A0FFF797FB064605E082E0FFF792FBF5
:100DC000801B02287DD838688007F7D42078400738
:100DD00068D5DFF8CCB100270BF13C0BDBF8000045
:100DE000C0000BD4DBF8001041F08051CBF80010AC
:100DF000DBF80000012700F0805000906B4E306857
:100E0000C00510D4306840F480703060FFF76AFB92
:100E1000009005E0FFF766FB0099401A022850D8C1
:100E20003068C005F6D55E4EA0686C3601280FD03C
:100E30000528306810D020F001003060306820F0C4
:100E400004003060A068B8B1FFF74CFB00900FE0E1
:100E5000306840F00100F4E740F004003060F7E74C
:100E6000FFF740FB0099411A41F28830814266D871
:100E700030688007F4D50EE0FFF734FB009007E000
:100E8000FFF730FB0099411A41F28830814256D871
:100E900030688007F4D42FB1DBF8001021F08051C6
:100EA000CBF80010A069C8B33D49091D0968C1F31A
:100EB000810102294AD00228504607D0C8F86000B4
:100EC00000E03CE0FFF70EFB04463BE04746C8F875
:100ED0006000FFF707FB064605E000BFFFF702FBD7
:100EE000801B02282BD828688001F7D4D4E9070199
:100EF0000843A16A2E4A490802EB0141626A41EAAD
:100F00008211084394F82C1040EA0161C9F80010DE
:100F100001203866FFF7E6FA044606E03EE000BF2F
:100F2000FFF7E0FA001B022809D828688001F7D5EE
:100F300034E000BFFFF7D6FA001B022802D90320D5
:100F4000BDE8F88F28688001F4D427E00128F7D0A5
:100F5000D9F80000E26900F4800191421CD1226AB4
:100F600000F03F01914217D147F6C071626A01401B
:100F7000B1EB821F10D1A26A4FF0FF3300F4403171
:100F800003EB5202B1EB024F06D194F82C1000F0A3
:100F90007060B0EB016F01D00120D1E70020CFE7F6
:100FA0000438024000004742800E47420070004073
:100FB0000000FFFF10B5401EB0F1807F01D301207B
:100FC00010BD4FF0E02460610F21601700F04AFE71
:100FD0000020A06107202061002010BD70477047ED
:100FE00070B590F83C20012A32D0012480F83C40B2
:100FF000022280F83D2003685A689D6822F070063E
:101000000A6832435A60134B02689A4214D0B2F114
:10101000804F11D0104B9A420ED0104B9A420BD0F9
:101020000F4B9A4208D00F4B9A4205D00E4B9A4272
:1010300002D00E4B9A4204D1496825F0800319432F
:10104000916080F83D40002180F83C10084670BD5A
:10105000022070BD00000140000400400008004074
:10106000000C004000040140004001400018004016
:1010700010B5040003D094F83D0010B107E0012042
:1010800010BD002084F83C00204600F01FF802202C
:1010900084F83D00211D206800F0D6FC012084F872
:1010A000460084F83E0084F83F0084F8400084F84D
:1010B000410084F8420084F8430084F8440084F836
:1010C000450084F83D00002010BD000008B5006810
:1010D0000B49884212D10B48016841F010010160B0
:1010E0000068002200F01000009011463620FFF743
:1010F0008FFCBDE808403620FFF77CBC08BD00002F
:10110000001000404038024090F83D10012901D005
:1011100001207047022180F83D100168CA6842F042
:101120000102CA6000681149884214D0B0F1804FB2
:1011300011D00F4988420ED00E4988420BD00E497B
:10114000884208D00D49884205D00D49884202D016
:101150000C49884204D1816801F00701062903D0B7
:10116000016841F00101016000207047000001406A
:101170000004004000080040000C00400004014052
:10118000004001400018004070472DE9F04104463E
:101190000068C66805694FF00007A90713D5B107B5
:1011A00011D5F91E01610120207720688069800730
:1011B000204602D0FFF7E8FF04E000F07EF820466A
:1011C00000F07CF82777680716D5700714D52168DA
:1011D0006FF004000861022020772068806910F415
:1011E000407F204602D0FFF7CFFF04E000F065F813
:1011F000204600F063F82777280715D5300713D568
:1012000021686FF008000861042020772068C06919
:101210008007204602D0FFF7B7FF04E000F04DF84A
:10122000204600F04BF82777E80616D5F00614D5CF
:1012300021686FF010000861082020772068C069DD
:1012400010F4407F204602D0FFF79EFF04E000F03C
:1012500034F8204600F032F82777E80708D0F00786
:1012600006D021686FF001000861204600F028F8E0
:10127000280608D5300606D521686FF08000086181
:101280002046FFF7ABFE680608D5700606D5216834
:101290006FF040000861204600F01AF8A8060AD551
:1012A000B00608D521686FF0200008612046BDE82F
:1012B000F041FFF794BEBDE8F08170477047000031
:1012C0004FF480710148FFF7FFB8000000000240B2
:1012D000704770B5040004D094F84100002510B1A7
:1012E00006E0012070BD84F84050204600F024F84C
:1012F000242084F841002068C16821F40051C160B5
:10130000204600F00DFC2068016921F49041016144
:101310002068416921F02A0141612068C16841F4D7
:101320000051C1606564202084F8410084F84200C7
:101330006563002070BD000010B586B0044614211E
:101340006846FEF777FF13492068884220D112488B
:101350000021026842F400320260006800F40030AC
:1013600005900D481038026842F0010202600068E2
:1013700000F0010005900C2000900220CDE9010151
:10138000032003900720049069460448FEF7A4FF59
:1013900006B010BD0044004040380240000002404A
:1013A00090F84230202B01D00220704721B11AB1B1
:1013B0000023036300F03ABC01207047FEE7016898
:1013C0004A69D24352050FD46FF480624A6100210A
:1013D00040F8301F202242738173026942F00402F8
:1013E000026101730120704700207047F8B5044680
:1013F000C06A1E460D461746082807D0012805D0AA
:1014000010F5803F02D0206B122804D120680168BB
:1014100041F480710160134600224FF00111204613
:10142000009600F0B1F840B120680068C00502D510
:101430004FF4007020640320F8BD2069B0F5804FA0
:101440000ED00620216800EAD51040F0F0000861B7
:1014500033463A460B49204600F0DEF878B902E000
:1014600005F0FE0000E0E8B2216808610549334656
:101470003A46891F204600F0CFF80028DCD0012032
:10148000F8BD0000080001002DE9F843044600689B
:101490000D46DDE9089701689846164641F48071CB
:1014A00001604B4600224FF001112046009700F0EA
:1014B0006BF848B120680068C00502D54FF4007091
:1014C00020640320BDE8F883216805F0FE00086170
:1014D0003B464A461549204600F09EF888B92068E8
:1014E0004169806900903A464946204600F0F2F88A
:1014F00048B1206C042804D12068016841F40071CF
:1015000001600120DEE7F5B2B8F1010F09D02168D2
:10151000300A08613A464946204600F0DBF80028C8
:10152000E7D1206805610020CCE70000020001003F
:1015300070B516460D4604461EE02046FFF73FFFF5
:1015400008B1012070BD681C16D0FEF7CBFF801BD0
:10155000A84200D885B920684069C04340070BD530
:10156000002044F8300F20216173A073216941F0FD
:10157000200121612073E4E720684069C0434007EF
:10158000DBD4002070BD00002DE9F04798461746D7
:101590000D460446C1F30746DDF820902AE000BF5F
:1015A000B8F1FF3F26D0FEF79DFFA0EB09014145B2
:1015B00002D8B8F1000F1DD12068012E16D0806925
:1015C00025EA00000004000C12D00020B84211D11E
:1015D000002044F8300F20216173A073216941F08D
:1015E0002001216120730120BDE8F0874069E7E711
:1015F0000120EBE72068012E0AD0806925EA00006F
:101600000004000C06D00020B842C9D00020EBE74F
:101610004069F3E70120F7E72DE9F04798461646C1
:101620000D4604464FF000094FF0200AC1F307476A
:1016300023E020684069C043400515D42068016854
:1016400041F40071016021686FF480604861C4F862
:10165000309084F83DA084F83E90216C41F0040164
:10166000216484F83C9021E0701C06D0FEF73AFF1C
:10167000A0EB0800B04203D816B1012F1FD021E023
:101680002068012F15D0806925EA00000004000CB5
:1016900018D000BF44F8309F84F80DA084F80E9055
:1016A000216941F02001216184F80C900120BDE8FE
:1016B000F087406925EA00000004000CEAD12068A8
:1016C000406901E02068806925EA00000004000C00
:1016D000AFD1ECE770B516460D4604461EE0204635
:1016E000FFF76DFE08B1012070BD681C16D0FEF733
:1016F000F9FE801BA84200D885B920684069C04324
:1017000000060BD5002044F8300F20216173A07330
:10171000216941F0200121612073E4E720684069DC
:10172000C0430006DBD4002070BD0000F0B587B0D8
:1017300014216846FEF77EFD1D480024016841F033
:1017400080010160016801F080010591016841F0AC
:1017500001010160016801F001010591016841F09A
:10176000020101600068134E00F002004FF4807522
:101770000590002229463046FEF7AEFE0E4F0022AD
:1017800060213846FEF7A8FE00950125CDE90154F9
:10179000694630460394FEF79FFD60200090CDE936
:1017A0000154694638460394FEF796FD07B0F0BD34
:1017B0003038024000000240000402400D4810B5DD
:1017C0000B4901600C49416000214FF48042816067
:1017D000C0E9031241618161C1610162FEF788FEC7
:1017E000002803D0BDE81040FEF762BD10BD000028
:1017F0000058004010010020801A06001CB500248B
:101800000F4800940D49019401605321C0E901146F
:1018100040F2E731C16080218161FFF729FC08B106
:10182000FEF746FD0094694605480194FFF7D8FB92
:10183000002801D0FEF73CFD1CBD00000010004058
:10184000640100200C4810B50A4901604FF4E131F1
:101850004160002181600C22C160C0E904128161F5
:10186000C161FFF736FD002803D0BDE81040FEF748
:101870001FBD10BD00440040AC010020FEE7FEE7A4
:1018800070B56420FEF716FD044D0024285D00F0BD
:101890006DF8641CE4B2192CF8D370BD201D00084B
:1018A0004FF480610148FEF7C5BC0000F401002040
:1018B00010B50446B031C8B200F058F804F00F007B
:1018C00000F054F8102040EA1410BDE8104000F079
:1018D0004DB80000F0B50021A3B00846FFF7E8FFBF
:1018E0004020114E8DF80400002401AD4FF6FF7723
:1018F000002006EBC4112B180A5C401CC0B25A70C1
:101900008028F8D321460020FFF7D2FF812301AAC7
:10191000782106480097FEF7AFFE641CE4B2082C5D
:10192000E6D323B0F0BD0000F40100201001002038
:1019300000B509A385B00FCB0DF1040C8CE80F00A6
:101940004FF6FF7000900D2301AA78210648FEF79C
:1019500093FE05B000BD000040AAAAAAAAAAAAAA9E
:10196000AAAAAAAAAA0000001001002001B584B00A
:1019700001214FF6FF7204A88DE807000B460022F4
:1019800078210248FEF70EFF05B000BD10010020CF
:1019900070477047FEF7D4BF30B593B0302168462A
:1019A000FEF748FC14210CA8FEF744FC1D48002556
:1019B000016841F080510160006800F08050119092
:1019C0001948016841F4804101600068022400F474
:1019D0008040119001200090000401908001CDE929
:1019E000064008AA0420A82182E813000B9068464C
:1019F000FFF72AF908B172B6FEE70CA90F2081E8BB
:101A000031004FF4A0500F904FF4805010900521FA
:101A10000CA8FFF72FF8002801D072B6FEE713B02C
:101A200030BD0000403802400070004002480168AC
:101A300041F470010160704788ED00E00148FFF754
:101A4000A4BB000064010020F0B50268294C2A4DB7
:101A50002A4E2B4F2B4B4FF0804CA04209D06045B3
:101A600007D0A84205D0B04203D0B84201D0984276
:101A700004D122F0700E4A6842EA0E02A0421BD046
:101A8000604519D0A84217D0B04215D0B84213D043
:101A9000984211D01C4DA8420ED01C4DA8420BD02C
:101AA0001B4DA84208D01B4DA84205D01A4DA84294
:101AB00002D01A4DA84203D122F44075CA682A43C5
:101AC0004D6922F080022A4302608A68C2620A6875
:101AD0008262A04201D0984201D1096901630121CB
:101AE00041610169C90703D0016921F00101016168
:101AF000F0BD00000000014000040040000800406C
:101B0000000C00400004014000400140004401403E
:101B10000048014000180040001C00400020004028
:101B200070B5044600680169E26821F44051114330
:101B300001612169A068E2690843616911430843B2
:101B40002168CA6849F20C639A430243CA6020685C
:101B50004169A26921F44071114341613149206812
:101B6000884202D03049884202D1FFF72DF801E0C7
:101B7000FFF71AF8E2690023192164253226B2F52D
:101B8000004F626828D0A0FB0101930F9200FEF77E
:101B900019FB0146B0FBF5F06FF01802504301EB62
:101BA000800006EB0010B0FBF5F000F0F002B1FB96
:101BB000F5F002EB0012B1FBF5F06FF0180358439B
:101BC00001EB800006EB0010B0FBF5F000F00F0019
:101BD00021681044886070BDA0FB010192185B4130
:101BE000FEF7F0FA0146B0FBF5F00201B1FBF5F0AB
:101BF0006FF01803584301EB800006EBC000B0FB08
:101C0000F5F000F0F80002EB4002B1FBF5F05843AC
:101C100001EB800006EBC000B0FBF5F000F0070020
:101C2000D6E7000000100140001401408162828567
:101C3000C28500214164222180F84210016921B14E
:101C40000168CA6842F48072CA6001684A6942F059
:101C500001024A610068C16841F02001C1600020B2
:101C60007047FEE70907090E002804DB00F1E020B9
:101C700080F80014704700F00F0000F1E02080F8B9
:101C8000141D704702E008C8121F08C1002AFAD1CB
:101C900070477047002001E001C1121F002AFBD1EC
:101CA00070470000FEF754FEFFF776FEFFF73EFD9B
:101CB000FFF784FDFFF7C6FDFFF7A0FD01220F49E6
:101CC0000F48FFF76DFB0F48FFF71EFA6420FEF781
:101CD000F1FAFFF7D5FDFFF7E3FDFFF7FBFD042168
:101CE0004020FFF7E5FDFFF723FE6420FEF7E2FA50
:101CF0004FF47A742046FEF7DDFAFBE7100000206F
:101D0000AC01002064010020000000000000000081
:101D10000102030406070809000000000102030491
:101D2000AED580A83FD300408D102002A1C8DA12A2
:101D300081F0D971DB00A4A6AF0000005C1D000893
:101D40000000002010000000841C00086C1D00082A
:101D500010000020E8450000941C0008010000006D
:0C1D600010000000000000000024F4004F
:040000050800018965
:00000001FF
