:020000040800F2
:10000000706300209D010008413D0008A13A0008EE
:100010003D3D000821160008C9410008000000000D
:10002000000000000000000000000000AF01000818
:1000300031160008000000009D020008530200086D
:10004000B7010008B7010008B7010008B7010008B0
:10005000B7010008B7010008351600083D16000872
:10006000B7010008B701000845160008B7010008ED
:10007000B7010008B7010008B7010008B701000880
:10008000B7010008B7010008E90A0008B701000835
:10009000B7010008B7010008B7010008B701000860
:1000A000B7010008B7010008B7010008B701000850
:1000B000B7010008B7010008B7010008B701000840
:1000C000B7010008B7010008B7010008B701000830
:1000D000B7010008B7010008B1410008BD410008A0
:1000E000B7010008B7010008B7010008B701000810
:1000F000B7010008B7010008B7010008B701000800
:10010000B7010008B7010008B7010008B7010008EF
:10011000B7010008B7010008653E0008B7010008F4
:1001200025160008B7010008B7010008B70100084C
:10013000B7010008B7010008B7010008B7010008BF
:10014000B7010008B7010008B7010008B7010008AF
:10015000B7010008B7010008B7010008B70100089F
:10016000B7010008B7010008B7010008B70100088F
:10017000B7010008B7010008B7010008000000003F
:10018000B7010008B7010008DFF80CD000F088FCC8
:1001900000480047C15100087063002006488047AE
:1001A00006480047FEE7FEE7FEE7FEE7FEE7FEE75C
:1001B000FEE7FEE7FEE7FEE7513E00088901000882
:1001C000B04F002070630020000000083450002071
:1001D00000000008001000E03F9002000000FF4017
:1001E00072B65FF824005FF8241001F10401016089
:1001F0004FF0E0205FF83010C0F8081D5FF83400C1
:100200005FF83410096801605FF83800016841F058
:10021000010101604FF0E0205FF8441041614FF0B0
:10022000070101614FF00001C0F8181D4FF07F4138
:10023000C0F81C1D5FF85C10C0F8201D7047FFF768
:10024000FEBFFFF7FEBFFFF7FEBF01B5BDE80140EF
:10025000704701B500F094F8BDE801407047FFF722
:10026000FEBFFFF7FEBF000000000000000000001E
:100270004FF000002A4A1060EFF3148020F00400D1
:1002800080F3148862B64FF080504FF0E021C1F83F
:10029000040DBFF34F8FBFF36F8FFEE72148224A53
:1002A0004FF00003016891B10360EFF3098C2CE972
:1002B000F00F1EF0100F01D12CED108A1B4C4CF8E2
:1002C00004ED2568C1F808C00DB18D61236072B6D8
:1002D0001168B1B1016062B64F68154C8D6907F1C4
:1002E00001074F602560D1F808C05CF804EB1EF0F0
:1002F000100F01D1BCEC108ABCE8F00F8CF3098818
:10030000704772B61168016009B962B6F9E74FF03B
:1003100000674FF0E028C8F8047D62B6DCE770475C
:10032000840000206C000020700000209400002059
:100330009400002000000000000000000000000009
:10034000026922F00702A2F144026FF00203136077
:100350004FF0000353609360D36013615361936166
:10036000D361136253629362D362136353634FF09A
:10037000FF339363D1634FF08073136482607047DF
:100380002249086800F101000860214B1A683AB15F
:10039000A2F101021A601AB91E4B4FF00100186059
:1003A0001D490868026822B11C4B4FF001021A6017
:1003B00008E000F104001A4B1A68904201D1194B71
:1003C00018680860184B1A6812B918490868D0B143
:1003D0002DE901401649086808B104F0FFFB154BF0
:1003E0001A6872B104F0A6FB1348016849B91348B2
:1003F0000168134A136813484FF08052994200D0A5
:100400000260BDE80140BFF34F8F704790000020AD
:100410009400002098000020A80000209C000020EC
:10042000AC000020A4000020980000209C000020C8
:100430009C00002098000020840000206C00002018
:100440007000002004ED00E02DE9F05F054600207B
:1004500092469B4688460646814640241BE0284635
:1004600041464746224600F030F953465A46C01AE4
:10047000914110D311461846224600F017F92D1A63
:1004800067EB01084F4622460120002100F00EF9DB
:1004900017EB00094E41201EA4F10104DFDC4846A1
:1004A00031462A464346BDE8F09F40EA01039B07D8
:1004B00003D009E008C9121F08C0042AFAD203E0D9
:1004C00011F8013B00F8013B521EF9D27047D2B23D
:1004D00001E000F8012B491EFBD270470022F6E72D
:1004E00010B513460A4604461946FFF7F0FF2046AA
:1004F00010BD30B505462A460B4612F8010B13F81D
:10050000014B08B1A042F8D01CB1002802D06D1CEC
:10051000F1E7284630BD421C10F8011B0029FBD131
:10052000801A70472DE9FE4F81EA030404F000446D
:1005300021F0004100944FF0000B23F0004350EAFB
:1005400001045ED052EA03045BD0C3F30A54C1F342
:100550000A552C44A4F2F3340194A0FB0254C1F3D5
:10056000130141F48011C3F3130343F4801301FB1F
:10057000024400FB034E840A970A44EA815447EA86
:100580008357A4FB076802958D0A05FB07854FEA90
:10059000932C04FB0C542705029D4FEA065847EAAA
:1005A0001637B5EB08056EEB070C870E920E47EA7F
:1005B000811742EA8312A7FB0201B6EB0B0164EB41
:1005C00000042B0D43EA0C335E1844EB1C50DA4652
:1005D0005146E7FB0201C5F313044FEA0B3343EA2C
:1005E00014534FEA0432019C43EA0603A4F10C04BD
:1005F0000294009CCDE900B400F0BDF803B0BDE862
:10060000F08F00200146F9E70EB540F23341029128
:100610000021CDE900110A460B4600F0ACF803B00A
:1006200000BD00F0004230F000400AD0C10D01F5DD
:100630006071C0F3160042EA0151C208400711433D
:10064000704700200146704701F0004330B421F0AC
:10065000004150EA010206D00A0DA2F56072C1F312
:100660001301002A02DC30BC00207047440F44EA2A
:10067000C104C100E01830BC00EBC25000F035B836
:1006800030B50B46014600202022012409E021FA62
:1006900002F59D4205D303FA02F5491B04FA02F55F
:1006A0002844151EA2F10102F1DC30BD202A04DB32
:1006B000203A00FA02F1002070479140C2F1200375
:1006C00020FA03F3194390407047202A04DB203AB4
:1006D00021FA02F00021704721FA02F3D040C2F162
:1006E000200291400843194670470029A8BF70476F
:1006F000401C490008BF20F00100704710B4B0FA58
:1007000080FC00FA0CF050EA010404BF10BC7047F2
:1007100049B1CCF1200421FA04F411FA0CF118BF0C
:10072000012121430843A3EB0C01CB1D4FEA0061DB
:100730004FEA102042BF002010BC704700EBC350AE
:1007400010440029A4BF10BC7047401C490008BFDA
:1007500020F0010010BC704710B5141E73F10004A6
:1007600008DA401C41F1000192185B411A4301D1A3
:1007700020F0010010BD2DE9F04D92469B4611B1CD
:10078000B1FA81F202E0B0FA80F220329046FFF72F
:100790008DFF04460F4640EA0A0041EA0B0153462A
:1007A0005A46084313D0114653EA010019D0C8F144
:1007B00040025046FFF789FF05460E46504659460F
:1007C0004246FFF773FF084305D0012004E02046AE
:1007D0003946BDE8F08D0020054346EAE0762C431B
:1007E00037430A986305E40AA0EB08000022FD0ADB
:1007F00044EA47540A3002D500200146E9E70105E2
:1008000010196941DDE9084500196941BDE8F04D5D
:10081000A2E72DE9FE4F804681EA0300C00F0C4697
:10082000009021F0004123F00045B8EB0200A941FF
:1008300005D24046214690461C460B46024623F010
:100840000040104347D0270DC7F30A00C3F30A51F5
:100850000290401A019040286BDAC3F3130040F471
:10086000801B0098924620B10023D2EB030A63EB71
:100870000B0B01985946C0F140025046FFF716FF96
:1008800006460D4650465946019A00F01BF910EBFA
:1008900008006141002487EA115284EAE7731A4391
:1008A00040D0009A62B3019A012A4FEA075215DC40
:1008B000001B61EB02014FF0004202EA0752CDE952
:1008C0000042001C41F5801132462B46FFF753FFD2
:1008D00003B0BDE8F08F40462146F9E7001B61EB0D
:1008E0000201001C41F5801300185B412018A2F59D
:1008F000001747EB030140EAD570B6196D4111E0CE
:100900006D084FEA360645EAC0754FEA0752001BEC
:1009100061EB0201001C41F5801149084FEA3000EB
:100920000019514132462B4603B0BDE8F04FFFF7A6
:1009300013BF0098012240000023D0EB020263EBBA
:10094000E073009821464FEAE074B8EB000061EBD9
:100950000401E9E783F000435BE781F0004158E7D9
:100960002DE9F04D81EA030404F0004B21F000452D
:1009700014464FF0000A23F0004150EA050220D04F
:1009800054EA01021DD0C5F30A570246C5F313030A
:10099000C1F31300C1F30A5640F4801543F48013E9
:1009A000A7EB0608101BD64608F2FD3873EB0500CE
:1009B00002D308F1010801E092185B41B8F1000F81
:1009C00003DA00200146BDE8F08D00204FF48011CD
:1009D000064684460EE0171B73EB050705D3121B72
:1009E00063EB050306434CEA010C49084FEA30006B
:1009F00092185B4150EA0107EDD152EA030012D090
:100A000082EA040083EA0501084305D0101BAB41CC
:100A100006D20122002306E000224FF0004302E04C
:100A20006FF0010253101AEB06004CEB085110EB6B
:100A30000A0041EB0B01BDE8F04DFFF78DBEC1F39D
:100A40000A52C1F3130140F2FF3341F480119A427C
:100A500002DA00200146704740F233439A42A2F284
:100A6000334202DC5242FFF730BEFFF71FBE0000E8
:100A700030B5041E71F1000404DB4FF00044404225
:100A800064EB0101141E73F1000405DB1C464FF0FA
:100A90000043524263EB0403994208BF904230BDC9
:100AA000064C074D06E0E06840F0010394E80700BB
:100AB00098471034AC42F6D3FFF76AFBD05B0008CE
:100AC000F05B0008202A06DBCB17203A41FA02F03F
:100AD00043EAE07306E041FA02F3D040C2F120029B
:100AE000914008431946704745F26850C2F2000031
:100AF00000F01EBF70B586B0142042F2D8614FF4EA
:100B00008066C2F20001CDE9020042F6D82041F22F
:100B1000A50201240025CDE90016C2F2000034A18F
:100B2000C0F6000200230495059403F0C9FC0A20D6
:100B300042F22821C2F20001CDE9020042F228600F
:100B400041F2C102CDE90016C2F200002CA1C0F6AC
:100B5000000200230495059503F0B2FC062040F244
:100B6000C8014FF48056C2F20001CDE9020041F203
:100B7000C80040F63942CDE90016C2F2000022A1B9
:100B8000C0F6000200230495059403F099FC0B20A5
:100B900041F27811C2F20001CDE9020042F2781070
:100BA00041F2E112CDE90016C2F200001AA1C0F62E
:100BB000000200230495059503F082FC052043F60E
:100BC0003841C2F20001CDE9020044F6384041F25A
:100BD0006152CDE90016C2F2000011A1C0F6000278
:100BE00000230495059403F06BFC06B070BD00BFB4
:100BF0004C454420424C5545205441534B00000085
:100C00005445585432000000446174612050726FA2
:100C100063657373696E6700544558542033200030
:100C200050726F6772657373626172205441534BE7
:100C3000000000000000000094B044F6B06940F2EB
:100C40001808C2F2000945F6B1379FEDED9B9FED04
:100C5000EEABC2F2000809F1680509F10406C0F61E
:100C60000007BFEE008A119517E000BF44F64C74F0
:100C7000C2F2000420466421FFF730FC30466421B4
:100C80003BEE08BAFFF72AFC88ED01BA2046642142
:100C9000FFF724FC322003F03DFDD8F81400642156
:100CA0000130C8F814002846FFF718FC30463946D2
:100CB000FFF71FFC45F69E3104463046C0F60001A2
:100CC000FFF717FC45F6A63183463046C0F6000113
:100CD000FFF70FFC82463046CDA1FFF70AFC98EDE6
:100CE00001BAB5EE40BAF1EE10FABFD1139030461A
:100CF000CAA1FFF7FEFB60B398F8000048B3304686
:100D0000FFF709FC052810D000250020A919497912
:100D1000471C59FA80F080F868103046FDB2FFF7A2
:100D2000FAFB0538A8423846F0D80020119D88F813
:100D3000000048F20000C0F600002946322203F00D
:100D400045FA30466421FFF7C9FB45F6B137C0F6D6
:100D50000007002C4BD0B3A004F0FCFE48F20000CA
:100D600008F11801C0F600000A2202F0EBFFB5A05E
:100D700004F070FA45F69B3498F81810C0F6000499
:100D8000204604F067FA98F81910204604F062FA39
:100D900098F81A10204604F05DFA98F81B102046C7
:100DA00004F058FA98F81C10204604F053FA98F80A
:100DB0001D10204604F04EFA98F81E10204604F04C
:100DC00049FA98F81F10204604F044FA98F82010C9
:100DD000204604F03FFA98F82110204604F03AFA31
:100DE0000A2004F0B1FE30466421FFF777FBBBF127
:100DF000000F0ED047F61020C1F6FF700168426860
:100E0000D0F8133091A004F025FA30466421FFF7A2
:100E100065FBBAF1000F00F0C78045F2685B102057
:100E2000C2F2000B0E900A200BF110090F904846F9
:100E300050F8042B694641F8042B50F8042B41F874
:100E4000042B50F8042B41F8042B50F8042B41F8E4
:100E5000042B50F8042B41F8042B50F8042B41F8D4
:100E6000042B50F8042B41F8042B50F8042B41F8C4
:100E7000042B50F8042B41F8042B50F8042B41F8B4
:100E8000042B50F8042B41F8042B50F8042B41F8A4
:100E9000042B50F8042B41F8042B50F8042B41F894
:100EA000042B9BE80F0000F055FCFFF7ADFB5AEC5C
:100EB000197B3A465346FFF735FB55EC1A4B224651
:100EC0002B46FFF72FFBFFF7BFFB129011200E9070
:100ED0000A200F9059F8041B684640F8041B59F883
:100EE000041B40F8041B59F8041B40F8041B59F874
:100EF000041B40F8041B59F8041B40F8041B59F864
:100F0000041B40F8041B59F8041B40F8041B59F853
:100F1000041B40F8041B59F8041B40F8041B59F843
:100F2000041B40F8041B59F8041B40F8041B59F833
:100F3000041B40F8041B59F8041B40F8041B59F823
:100F4000041B44F6B06940F8041B9BE80F00C2F292
:100F5000000900F0FFFBFFF757FB3A4645F6B137B3
:100F60005346C0F60007FFF7DDFA22462B46119DD7
:100F7000FFF7D8FAFFF768FB04461298FFF751FB1A
:100F8000024637A00B4604F065F92046FFF749FBFF
:100F9000024637A00B4604F05DF930466421FFF7A6
:100FA0009DFA642003F0B6FB139844F64C740028B5
:100FB000C2F200043FF46AAE40F21400C2F2000034
:100FC0000121017045F69830C0F6000004F0C2FD22
:100FD0002CA004F0BFFD20466421FFF77FFA3046C5
:100FE0006421FFF77BFA42F22860C2F2000004F0AD
:100FF000ABF841F2C800C2F2000004F0B1F845E6D7
:101000006666666666660A40000000000000303FC3
:1010100074657874315F656E64000000777269747E
:10102000650000002D2D2D2D2D2D2D2D54455854AE
:10103000312053544152542D2D2D2D2D2D2D2D2D3C
:10104000000000004350555F534E3A004350555F37
:1010500049443A25782D25782D25780A000000008E
:10106000414443315F31363A25312E660A00000093
:1010700054455854315F56414C55453A252E3166FA
:101080000A0000002D2D2D2D2D2D2D2D54455854A9
:10109000322053544152542D2D2D2D2D2D2D2D2DDB
:1010A0000000000040F20044C4F202044FF47A70E1
:1010B00003F030FB2046042101F096FBF6E7000028
:1010C00044F6B06040F6000440F2180BC2F2000093
:1010D00040F2140844F64C77C4F20204C2F2000B4A
:1010E000051DC2F20008C2F2000702E0322003F040
:1010F00011FBDBF810002AA10130CBF810002846C4
:10110000FFF7F7F90646284626A1FFF7F2F98146D0
:10111000284626A1FFF7EDF9824656B198F800005F
:1011200038B12046202101F05FFB4FF4FA7003F044
:10113000F1FAB9F1000F12D0002088F8000038460B
:101140006421FFF7CBF928466421FFF7C7F9204651
:101150002021012201F050FB16A004F0FBFCBAF1A3
:10116000000FC3D045F69830C0F6000004F0F2FC42
:1011700013A004F0EFFC38466421FFF7AFF92846CE
:101180006421FFF7ABF942F27810C2F2000003F0DD
:10119000DBFF42F22860C2F2000003F0E1FFA5E7A6
:1011A0006C6564006C65645F6F6B00006B65795FF4
:1011B0006F6B00004C4544B2E2CAD4CDEAB3C9001B
:1011C0002D2D2D2D2D2D2D2D544558543320535478
:1011D0004152542D2D2D2D2D2D2D2D2D0000000093
:1011E00090B044F6B06040F21806C2F2000045F23A
:1011F000685B9FEDA38B9FEDA49B45F69B3AC2F2E3
:101200000006041DC2F2000BC0F6000AF06845F6A5
:10121000B1310130F0602046C0F60001FFF769F9F6
:1012200045F69E3107462046C0F60001FFF761F9FA
:1012300045F6A63181462046C0F60001FFF759F970
:101240008046204692A1FFF754F90546E7B348F2DD
:10125000000006F11801C0F600000A2202F072FD3B
:101260008EA003F0F7FF317E504603F0F3FF717E4E
:10127000504603F0EFFFB17E504603F0EBFFF17EE6
:10128000504603F0E7FF317F504603F0E3FF717FE4
:10129000504603F0DFFFB17F504603F0DBFFF17FE4
:1012A000504603F0D7FF96F82010504603F0D2FFC7
:1012B00096F82110504603F0CDFF0A2004F044FCBC
:1012C00020466421FFF70AF9B9F1000F0ED047F666
:1012D0001020C1F6FF7001684268D0F8133072A088
:1012E00003F0B8FF20466421FFF7F8F8B8F1000FCB
:1012F00000F09D8010204FF00A080BF110070E90AF
:10130000CDF83C80384650F8042B694641F8042B50
:1013100050F8042B41F8042B50F8042B41F8042B0F
:1013200050F8042B41F8042B50F8042B41F8042BFF
:1013300050F8042B41F8042B50F8042B41F8042BEF
:1013400050F8042B41F8042B50F8042B41F8042BDF
:1013500050F8042B41F8042B50F8042B41F8042BCF
:1013600050F8042B41F8042B50F8042B41F8042BBF
:1013700050F8042B41F8042B9BE80F0000F0EAF929
:101380001120CDE90E0857F8041B684640F8041BED
:1013900057F8041B40F8041B57F8041B40F8041BC3
:1013A00057F8041B40F8041B57F8041B40F8041BB3
:1013B00057F8041B40F8041B57F8041B40F8041BA3
:1013C00057F8041B40F8041B57F8041B40F8041B93
:1013D00057F8041B40F8041B57F8041B40F8041B83
:1013E00057F8041B40F8041B57F8041B40F8041B73
:1013F00057F8041B40F8041B9BE80F0000F0AAF903
:10140000FFF702F953EC182BFFF78CF853EC192B6C
:10141000FFF788F8FFF718F9FFF703F9024627A04E
:101420000B4603F017FF20466421FFF757F844F6F8
:101430004C77C2F2000738466421FFF74FF832209C
:1014400003F068F9002D3FF4E1AE38466421FFF760
:1014500045F820466421FFF741F80020C4F2A000BF
:10146000706041F2C800C2F2000003F06DFE42F26B
:101470007810C2F2000003F073FEC7E600BF00BFA1
:101480006666666666660A40000000000000303F3F
:1014900074657874335F656E640000005445585479
:1014A000335F534E3A00000054455854335F49446B
:1014B0003A25782D25782D25780A00005445585472
:1014C000335F56414C55453A252E31660A000000DF
:1014D00080B586B044F6B060C2F20000002142F64A
:1014E0008832017101604FF48050C2F20002CDE9F0
:1014F000002043F6883040F6F5224FF0010C0491AD
:10150000C2F200000FA1C0F600020023CDE902CC18
:10151000CDF814C002F0D4FF44F6E84044F620535E
:101520004FF0380CC2F200000AA1C2F200030122FF
:10153000CDF800C0CDF804C003F056FD002006B081
:1015400080BD00BF4150502053544152542054415B
:10155000534B00004D657373616765464944000055
:1015600044F6B066C2F2000640F2180B45F2507520
:10157000341DC2F2000BC2F2000509E00020CBF8D6
:10158000080020466421FEF7A9FF322003F0C2F8CC
:1015900031797079352908BF41280FD0412908BF1A
:1015A0003528F2D119A0294603F054FE44F64C70B8
:1015B000C2F200006421FEF791FFE2E72046FEF749
:1015C000AAFF0228DDD0DBF8087040F2E63087423F
:1015D00040F2E63005EB070AC8BF3846A7EB000922
:1015E0004FF0000806EB0800807919EB08010AF8B3
:1015F0000800C3D0204608F10108FEF78CFF02382E
:101600008045EFD307EB0800B9E700BFD0B4C8EBC3
:10161000B5C4CAFDBEDDCEAAA3BA25730A00000078
:10162000FEE7000045F2B050C2F2000000F09EBCA0
:1016300070470000012000F0EDBF0000022000F024
:10164000E9BF0000102000F0E5BF000072B600BF47
:10165000FEE70000F0B581B045F23077044643F66E
:101660000C46C2F200070020C4F20206F86101F045
:10167000C9F83168C9031BD43068C0071CBF0120FA
:101680003060306810F0F20F2ED03068C00633D4CE
:101690003068800639D4306840063FD43068000690
:1016A00045D4306880074BD4012001B0F0BD00BFA5
:1016B000F4B10546601C0DD13068C003DCD530683C
:1016C000C00344BF30685FEAC030D5D53068C0037E
:1016D000F2D4D1E701F096F8401BA04208D8306858
:1016E000C003F7D4C8E700BF002001B0F0BD00BFC1
:1016F000032001B0F0BD00BFF86940F01000F861B0
:101700001020306030688006C5D5F86940F00800C8
:10171000F8612020306030684006BFD5F86940F09D
:101720000400F8614020306030680006B9D5F869DF
:1017300040F00200F8618020306030688007B3D547
:10174000F86940F02000F86102203060012001B00B
:10175000F0BD000084B02DE9F04F97B0DDF8CCA0CB
:101760000DF1800CBAF1000F8CE8070023932BD009
:1017700001AD0127072413AE4FF000094FF0000818
:101780004FF0000B284620A94822FEF78EFE329823
:101790003146CDE913072846CDE9154B00F020F876
:1017A000284600F0DFFA28460A2100F05BFA2846B6
:1017B00000F0BAF818FA80F8052000F069FD09F188
:1017C0000109D145DED301E04FF00008B8FBFAF083
:1017D00080B217B0BDE8F04F04B07047704700000A
:1017E00070B581B00022009290F83C20012A03D10C
:1017F0000221084601B070BDD1F800E00122BEF11F
:101800000A0F80F83C200BD31FFA8EF252000668B4
:1018100012FA8EF2A2F11E0306F10C0205E000BFDF
:1018200006680EEB4E0306F110024FF0070C156828
:101830000CFA03F4A54315608D68146805FA03F3E8
:10184000234313604968062906D801EB8101053955
:1018500006F134020AE000BF0C2901EB810187BFC9
:10186000413906F12C02233906F130021F23146896
:101870008B4024EA030342F2043C1360C4F2010CDF
:101880001FFA8EF3146803FA01F1ACF5417321439A
:101890009E4211603ED1BEF1120F07D1DCF800105C
:1018A00041F48001CCF8001034E000BF2EF00101BB
:1018B00010292FD1DCF80010BEF1100F41F4000107
:1018C000CCF8001026D140F20C01C2F200010968E8
:1018D0004DF68362C4F21B32A1FB0212910C01EBA4
:1018E0008101490000910099A1B10099013900914D
:1018F000009979B1009901390091009951B100998D
:1019000001390091009929B100990139009100999C
:101910000029EAD1002180F83C10084601B070BDD2
:1019200070470000704700000068C06C70470000FE
:1019300070B50446006806684568B10717D515F00C
:10194000200114D0216CC90603D4216C41F400712C
:101950002164816811F0405F02D1217E002969D0A5
:101960002046FFF7DDFF20686FF01201016071076C
:1019700014D515F0800111D0216CC90603D4216C57
:1019800041F400512164816811F4401F22D02046A7
:10199000FFF724FF20686FF00C010160F10706D00B
:1019A00015F040011CBF01685FEAC17134D1B10676
:1019B0000FD515F0806108BF70BD616C6FF0200518
:1019C00041F00201616405602046FFF7ABFF20682B
:1019D000056070BD816B11F4401F02D0816849051C
:1019E000D5D441684905D2D4816811F0405FCED189
:1019F000217E0029CBD1416821F080014160206C1B
:101A000020F480502064206CC005C0D4206C40F0CD
:101A100001002064BBE700BF206C40F480302064EC
:101A2000204600F0D1F820686FF001010160B10696
:101A3000BFD4CEE7C16A11F4700F03D081684905A5
:101A40003FF58EAF416821F020014160206C20F409
:101A500080702064206CC0043FF582AF206C40F0A1
:101A6000010020647CE70000002804BF01207047CB
:101A700010B50446006C00283ED0206CC00645D44A
:101A8000206C41F202118843023042F2043120649A
:101A9000C4F20101086820F4403008600A6894E844
:101AA00009101A43D4F810E00A604168012321F4B8
:101AB000807141604168C0F6007341EA0E214160C7
:101AC000416821F040714160416841EA0C01416088
:101AD000816821F400618160E1688268114381605E
:101AE000A16A8268994222F070628260826813D192
:101AF00022F0405119E000BF204600F067F80020B6
:101B0000606484F83C00206CC006B9D50120002137
:101B100084F83C1010BD00BF11438160816821F042
:101B200040518160E16A826811438160816821F0DF
:101B3000020181608168227E94F8203041EA4201EE
:101B40008160416883B141F40061416041684EF2B7
:101B5000000221F460414160616ACFF6FF72436880
:101B600002EB4131194301E021F400614160C16A97
:101B700040F2000C21F47001C162E2696169CFF6A4
:101B8000F07CC36A0CEB02521A43C262826822F4F0
:101B90000072826094F83020836843EA42228260B7
:101BA000826822F480628260826842EA81218160D8
:101BB00000206064216C012262F301012164002194
:101BC00084F83C1010BD000070470000B0B582B032
:101BD0000446006842F20001C4F2010188421CBFC1
:101BE00002B0B0BD002043F644010190C4F20201EE
:101BF0000A6845F2B05542F480720A600968C2F280
:101C0000000501F480710191019946F21041C4F27E
:101C100002014FF48062C5E9001005F110014FF494
:101C200000634FF4005C4FF4807E81E80C504FF469
:101C30008031C5E90200C5E90810284600F076FAAF
:101C4000002818BFFFF702FD122001210022A56322
:101C5000AC6300F091FE122002B0BDE8B04000F08D
:101C60007BBE000070B5044600680D4682685205D0
:101C700044BF80685FEAC05038D400F0C3FD2168DB
:101C80000A68920749D40646681C3CD0DDB908684A
:101C9000800721D5086880073FD4086880071BD5D6
:101CA0000868800739D40868800715D50868800758
:101CB00033D4086880070FD508688007E7D52CE083
:101CC0000868800729D400F09DFD801B2168A84288
:101CD000F6D908688007F3D4206C40F00400206433
:101CE000002084F83C00032070BD00BF206C40F051
:101CF00020002064002084F83C00012070BD00BF5B
:101D00000868800709D40868800706D40868800737
:101D10005CBF08685FEA8070F2D56FF0120008605F
:101D2000206C40F400702064886810F0405F1CBF95
:101D3000002070BD207E08B1002070BDC86A10F47C
:101D4000700F02D088684005F6D4206C20F48070B3
:101D50002064206CC004EFD4206C40F001002064AB
:101D6000002070BD81B00021009190F83C10012945
:101D700002BF022001B070470122016880F83C20B8
:101D80008A68D20729D18A684DF6836342F001023E
:101D90008A6040F20C02C2F200021268C4F21B33E5
:101DA000A2FB03239A0C02EB42020092009AA2B11A
:101DB000009A013A0092009A7AB1009A013A009290
:101DC000009A52B1009A013A0092009A2AB1009A00
:101DD000013A0092009A002AEAD18B68026CDB0774
:101DE0000AD142F010010164416C41F001014164EB
:101DF000002001B0704700BF40F201739A4302F522
:101E0000807202644A68520504D5026C012363F3B0
:101E10000D320264026C0023D2044FF0000244BF72
:101E2000426C22F0060242F2043C426480F83C30EC
:101E30006FF02200C4F2010C0860DCF80000C0065C
:101E40000ED0ACF541708142D2D14FF60450CFF69E
:101E5000FF705CF8000010F0405FC9D122E000BFC5
:101E600042F20000C4F20100814217D042F2002089
:101E7000C4F2010081420DD042F20010C4F2010010
:101E80008142B5D1DCF80000C00607D0ACF5827005
:101E90008142ADD1DCF80000C006A9D4886810F0FA
:101EA000405FA5D1886840F080408860002001B084
:101EB0007047000070B5866D044600F0A3FC94F8EE
:101EC000351002292ED105462068216C026822F0C7
:101ED00016020260426922F08002426109B9A16CD7
:101EE00019B1016821F008010160016821F00101C8
:101EF00001600068C00708D000F084FC401B052882
:101F000018D820680068C007F6D1E06D3F2101FABB
:101F100000F0B060012084F835000020002184F832
:101F2000341070BD802060650120002184F83410D9
:101F300070BD00BF20206065032084F835000021BB
:101F400084F8341070BD000090F83510022909D1D2
:101F5000052180F835100068016821F00101016059
:101F6000002070478021416501207047F0B581B0A5
:101F700004460020009040F20C00C2F2000002680B
:101F8000D4E9166048F2B51337680821C1F64E331C
:101F900081403942A2FB03250CD0226813685B07FD
:101FA00008D5136823F004031360B160616D41F03C
:101FB0000101616501218140394208D022685269DE
:101FC000120604D5B160616D41F002016165042122
:101FD0008140394208D022681268920704D5B16066
:101FE000616D41F00401616510218140394217D0D3
:101FF00020680268120713D5B160026801685203B5
:1020000008D4C90508D4016821F008010160216CD9
:1020100021B905E0080343D4216C09B12046884763
:10202000E16D202000FA01F23A4245D020680368B1
:10203000DB0641D5B26094F835300268052B1FD11C
:1020400022F016020260426922F080024261226C94
:102050000AB9A26C1AB1026822F0080202603F209D
:102060008840B060012084F83500216D00200029EF
:1020700084F8340058D02046884701B0F0BD00BF36
:102080000168520310D4C90512D4016821F010016F
:102090000160012084F83500002084F8340007E056
:1020A000A16C0029BAD1BBE7080301D4616C00E040
:1020B000E16B09B120468847606DA8B3606DC00729
:1020C0002ED0052084F835002068A90A026822F085
:1020D00001020260009A01328A4200921AD8026814
:1020E000D20717D0009A01328A42009212D80268B1
:1020F000D2070FD0009A01328A4200920AD80268B1
:10210000D20707D0009A01328A42009202D80268B0
:10211000D207DFD1012084F83500002084F8340094
:10212000E16C09B12046884701B0F0BD2DE9F041CE
:10213000044600F067FB002C4ED00546022084F8D0
:1021400035000020216884F83400086820F0010080
:1021500008600868C00708D000F054FB401B052841
:102160006CD821680868C007F6D1086848F23F02B9
:10217000CFF21002D4E90135024004F10C0E9EE8C2
:10218000C1511A432A4310433043384340EA080000
:10219000626A40EA0C00042A40EA0E0320D1D4E926
:1021A0000A5E206B4EEA0302104308604869BEF1E4
:1021B000000F20F0030040EA050040F0040C15D0A9
:1021C000B8F5005F42D0B8F1000F51D1022D52D0C6
:1021D000012D47D055B94EE00120BDE8F08100BF88
:1021E0000B60486920F0070040EA020C6FF00F0016
:1021F0004AF6AB2250FA81F0CAF6AA22A0FB0223CB
:102200001A0945F69033C0F600039A5C40F2FF339A
:102210005F284FF03F00C1F814C021EA030100FA23
:1022200002F088BF0431C4E916128860002301223D
:102230000020636584F83520BDE8F0810322202367
:102240000320636584F83520BDE8F081032DCDD8E7
:10225000012240230120DFE805F0030E030500BF43
:10226000E7E700BFAEF1C070B0FA80F0400904E0CB
:10227000032D04D3BAD1CEF300600028B6D00122DA
:1022800040230120636584F83520BDE8F08100001B
:10229000B0B5044600F0B6FA054640F20400C2F2BA
:1022A00000000078611C18BF044400BF00F0AAFAC7
:1022B000401BA042FAD3B0BD2DE9F04381B045F2F6
:1022C0003078C2F2000898F81820012A04D10220C0
:1022D00001B0BDE8F08300BF0546012088F8180072
:1022E0004CF250308946FFF7B5F928B1002188F843
:1022F000181001B0BDE8F0834FF0FF30C9F80000BE
:10230000286843F610470128C4F202071CD1286947
:102310003968000221F440713960396880B241F0B7
:10232000040139603968084340F4803038604CF269
:102330005030FFF78FF9396821F00401396057F800
:10234000101C89053BD452E0D5E902603044864236
:1023500030D2F40028694FF44072C1B203293968C1
:102360004FEA002021F440713960396838BF82B2E9
:1023700041EA02003860386820F0F80038603868B8
:10238000204340F002003860386840F48030386004
:102390004CF25030FFF75EF93968002821F0FA015D
:1023A000396047D1D5E9020101360844864204F17B
:1023B0000804CFD3002057F8101C890517D557F80B
:1023C000101C21F4007147F8101C57F8101C41F440
:1023D000006147F8101C57F8101C21F4006147F801
:1023E000101C57F8101C41F4007147F8101C57F8E6
:1023F000101C49057FF57AAF57F8101C21F4806155
:1024000047F8101C57F8101C41F4805147F8101C75
:1024100057F8101C21F4805147F8101C57F8101C75
:1024200041F4806147F8101C002188F8181001B0B1
:10243000BDE8F083C9F8006057F8101C8905BED4C8
:10244000D5E7000043F61041C4F20201086840F0ED
:10245000004200200A6070472DE9F04381B045F248
:102460003074C2F200049046227E012A04D1022078
:1024700001B0BDE8F08300BF0746012020764CF292
:1024800050301E460D46FFF7E5F828B100212176B1
:1024900001B0BDE8F08300BF43F61049022FC4F23B
:1024A000020917D0012F2BD0002F3FD1D9F80000FF
:1024B00020F44070C9F80000D9F80000C9F8000005
:1024C000D9F8000040F00100C9F8000085F800804C
:1024D00043E000BFD9F8000020F44070C9F80000C4
:1024E000D9F8000040F40070C9F80000D9F80000E5
:1024F00040F00100C9F80000C5F800802DE000BFE1
:10250000D9F8000020F44070C9F80000D9F80000A4
:1025100040F48070C9F80000D9F8000040F00100D4
:10252000C9F80000A5F8008017E000BFD9F8000046
:1025300020F44070C9F80000D9F8000040F4407061
:10254000C9F80000D9F8000040F00100C9F8000007
:10255000C5F80080BFF36F8F6E604CF25030FFF70C
:1025600079F8D9F8001021F00101C9F80010002114
:10257000217601B0BDE8F08343F60440C4F20200C6
:10258000C168B1F1FF3FC4BF0020704740F2231182
:10259000C4F26751016048F6AB11CCF6EF5101600F
:1025A000C068C00F70470000102807D0022813D061
:1025B00001280CBF14A0704703F0CCBA80B508A066
:1025C00003F0C8FA45F2507108A0C2F20001BDE85C
:1025D000804002F03FBE00BF08A003F0BBBA00BFBE
:1025E000627574746F6E332D2D6F6B0070726F6730
:1025F000726573736261723A25730A00627574744E
:102600006F6E322D2D6F6B00627574746F6E312D8D
:102610002D6F6B0043F61441C4F201010A680242B7
:1026200014BF08607047FFF7BFBF00002DE9F04FEF
:1026300082B000F13E4241F6004502F1FF77C4F25C
:10264000020508224FEAB726A84208BF0722072E34
:1026500038BF4FEAB7224FF0010A002400274FF09D
:102660000008009208E000BF023708F10108202F9F
:1026700004F1040400F0B4800E680AFA08F916EABE
:10268000090FF1D0D1F804A00AF0030BABF1010659
:10269000012E17D80322866802FA07FECA6826EAC6
:1026A0000E06BA40324382604268CAF3001522EA3D
:1026B000090205FA08F54FEA480C6FEA0E062A43AC
:1026C00042600BE00322BA40D643BBF1030FBC4685
:1026D00004D1BC464FF0030B22E000BFC2688D68F6
:1026E000324005FA0CF52A43BBF1020FC26017D144
:1026F0006FF0030202EA5802024404F01C030F25A3
:10270000D2F820E005FA03FA0D692EEA0A0E05FA5E
:1027100003F343EA0E031362D1F804A00AF0030B9B
:1027200002680BFA0CF332401A431AF4403F4FF0A0
:10273000010A026098D0002243F644030192C4F2D9
:1027400002031A6843F6004E42F480421A601A6887
:10275000C4F2010E02F480420192019A28F00302B1
:102760004FF6084C7244CFF6FF7C52F80C3004F060
:102770000C060F25B540AB43009D05FA06F6334322
:1027800042F80C30DEF808204B6842EA090643F6AE
:102790000C4CDD0258BF22EA0906CEF80860C4F2EC
:1027A000010CDCF800209D0242EA090658BF22EA2B
:1027B0000906CCF80060DEF804209D0342EA090611
:1027C00058BF22EA0906CEF80460DEF80020DB03D9
:1027D00042EA090658BF22EA0906CEF8006043E73C
:1027E00002B0BDE8F08F0000426902EA01039143A4
:1027F00041EA034181617047002A08BF09048161F1
:102800007047000045F66C70C2F200000068704727
:1028100040F2040045F66C71C2F20000C2F2000101
:1028200000780A68104408607047000080B543F6DD
:102830000040C4F20200016841F4007101600168C7
:1028400041F480610160016841F4807101600320FE
:1028500000F0BEF80F2000F005F800F061F800204D
:1028600080BD000070B586B0002543F6400101959B
:10287000C4F202010A68044642F010020A600968C4
:1028800001A801F0100101910199694600F060F979
:10289000049E002E18BF012600F07AF94DF68361E0
:1028A000B040C4F21B31A0FB01014FF0FF3000EB40
:1028B000914145F2106041F20002C2F20000C4F200
:1028C000000240F2E733C0E90021C0E9025305618C
:1028D000856100F07BFB054610B1284606B070BD4F
:1028E00045F21060C2F2000000F0A0FB054600288F
:1028F000F3D1362000F030F80F2C0DD836202146C9
:102900000022002500F038F840F20800C2F2000072
:102910000460284606B070BD0125284606B070BD8B
:1029200082B0002043F640010190C4F202014A68DF
:1029300042F480424A604A6802F480420192019A5D
:102940000090086840F080500860086800F08050EF
:102950000090009802B07047002848BF704700F010
:102960001F01012202FA01F14EF200124009CEF2DB
:10297000000242F82010704710B54EF60C5CCEF203
:10298000000CDCF80030C3F3022E8EF00704042C98
:1029900028BF0424BEF103034FF0FF3E0EFA04F4F7
:1029A00038BF0023A14399400EFA03F39A4300F085
:1029B0000F03043B1143634409010C3300F16042EF
:1029C000B0F1FF3FC8BF02F56443197010BD0000AD
:1029D0004EF60C51CEF200010A684FF6FF031A4082
:1029E00060F30A2242F0806040F0FD70086070479A
:1029F0002DE9F041002800F08B8043F60808C4F26E
:102A000002080446D8F8F8030D4600F00700884293
:102A100007D288F8F853D8F8F80300F00700A84266
:102A200076D12068810717D5410705D5D8F8001061
:102A300041F4E051C8F80010010705D5D8F800109E
:102A400041F46041C8F80010D8F80010A26821F0E5
:102A5000F0011143C8F80010C0073FD1D8F8F803BF
:102A600000F00700A84207D988F8F853D8F8F8030F
:102A700000F00700A8424BD12068410707D5D8F8DD
:102A80000010E26821F4E0511143C8F8001000077B
:102A900008D5D8F80000216920F4604040EAC10060
:102AA000C8F8000000F09CF8D8F8001045F678321D
:102AB000C1F30311C0F60002515C40F20C0220FA8F
:102AC00001F140F20800C2F200000068C2F2000208
:102AD0001160FFF7C7FE0020BDE8F0816068811E2D
:102AE000022907D258F8081C89015CBF0120BDE803
:102AF000F08111E0012807D158F8081C89035CBF58
:102B00000120BDE8F08107E058F8081C890703D4CC
:102B10000120BDE8F08100BFD8F8001021F00301CA
:102B20000843C8F80000FFF76DFE064641F28837FB
:102B3000D8F80000616800F00C00B0EB810F8DD078
:102B4000FFF760FE801BB842F2D90320BDE8F08198
:102B50000F22026043F60802C4F20202136803F077
:102B600003034360136803F0F0038360136803F406
:102B7000E053C360D2F800C04FF4E05303EADC0333
:102B80000361D2F8F80300F0070008607047000006
:102B900040F20C0043F60801C2F20000C4F2020148
:102BA0000068096845F68832C1F38221C0F6000248
:102BB000515CC8407047000040F20C0043F6080129
:102BC000C2F20000C4F202010068096845F68832CA
:102BD000C1F34231C0F60002515CC84070470000AA
:102BE00010B543F60404C4F20204606800F00C015E
:102BF00042F200400829C0F2F40007D0042918BFAF
:102C000010BD41F20020C0F27A0010BD216801F031
:102C10003F02216823684902C3F3881106D4A1FB4F
:102C200000010023FDF710FC07E000BF41F2002087
:102C3000C0F27A004843B0FBF2F021680222C1F3EF
:102C4000014102EB4101B0FBF1F010BD2DE9F04173
:102C500082B000286AD00446007843F60006C00718
:102C6000C4F202060BD0B06800F00C00042840F05B
:102C7000A1803068800302D56068002856D0207893
:102C800080071AD5B06810F00C0F09D0B06800F0BA
:102C90000C00082840F0A8807068400200F1A48071
:102CA0003068800702D5E06801283FD1306821698B
:102CB00020F0F80040EAC10030602078000739D4E5
:102CC000207840074ED4A5695DB3B06800F00C00D1
:102CD000082840F0BD80012D28D07068E16900F41B
:102CE00080028A4222D1216A00F03F028A421DD12D
:102CF00047F6C071626A0140B1EB821F16D1A26A29
:102D00000023CFF6FF7303EBC23200F440316FF3C0
:102D10000F0291420AD1E16A00F07060B0EB016FDE
:102D200004D1002002B0BDE8F08100BF012002B054
:102D3000BDE8F0816069002840F20000C4F247203D
:102D400076D00121C0F8801EFFF75CFD054600BF6C
:102D5000706F8007B4D4FFF755FD401B0228F7D9E8
:102D6000DDE000BF306C10F080580AD100200190E7
:102D7000306C40F080503064306C00F08050019036
:102D8000019847F20007C4F200073868C00541D433
:102D9000386840F480703860FFF734FD054600BFA6
:102DA0003868C00536D4FFF72DFD401B0228F7D93F
:102DB000B5E000BFB06800F00C00082803D17068CF
:102DC00040023FF556AF6068B0F5803F07D0B0F5E0
:102DD000A02F40F08D80306840F480203060306853
:102DE00040F4803030608DE0E068002852D0002050
:102DF000C4F2472001210160FFF704FD054600BF32
:102E0000306880073FF552AFFFF7FCFC401B0228FB
:102E1000F6D984E0A068012805D005284ED1306F8E
:102E200040F004003067306F40F0010030674FE041
:102E30000021C0F8801EFFF7E5FC0546706F800793
:102E40007FF53EAFFFF7DEFC401B0228F6D966E0B7
:102E50000027C4F2472700203866FFF7D3FC022D75
:102E600005460BD1306880015ED5FFF7CBFC401BD7
:102E700002284FF00300F5D954E700BF3068800105
:102E80007FF54FAFFFF7BEFC401B02284FF0030059
:102E9000F4D947E70020C4F2472000210160FFF782
:102EA000B1FC0546306880077FF507AFFFF7AAFC45
:102EB000401B02284FF00300F4D933E7316F00289C
:102EC00021F001013167316F21F0040131674DD0EC
:102ED000FFF798FC054641F2883700BF306F800746
:102EE00056D4FFF78FFC401BB842F7D917E000BF5C
:102EF0003168002821F480313160316821F480216B
:102F000031604FD0FFF77EFC054600BF306880037C
:102F10003FF5B5AEFFF776FC401B6428F6D90320D9
:102F200002B0BDE8F08100BF04F11C052FCD0843BD
:102F30000021CFF6FF7140EA821001EBC3316FF33D
:102F40000F0140EA05600843706001203866FFF712
:102F500059FC0446306880013FF5E3AEFFF752FCB0
:102F6000001B02284FF00300F4D9DBE6FFF74AFC10
:102F7000054641F2883700BF306F800708D5FFF75C
:102F800041FC401BB8424FF00300F5D9CAE600BF30
:102F9000B8F1000F7FF497AE306C20F080503064B1
:102FA00091E600BFFFF72EFC054600BF30688003A6
:102FB0007FF565AEFFF726FC401B64284FF0030049
:102FC000F4D9AFE67047000070470000002804BF46
:102FD0000120704710B5044690F83D0028B9002044
:102FE00084F83C00204600F01FF8022084F83D00E1
:102FF0002068211D00F03CFF012084F8460084F881
:103000003E0084F83F0084F8400084F8410084F8D2
:10301000420084F8430084F8440084F8450084F8B2
:103020003D00002010BD00007047000090F83D10EA
:1030300001291CBF01207047022180F83D10006863
:1030400041F2FF72C168C4F20002904241F00101F6
:10305000C1600DDC40F2FF71C4F20001884215DC52
:10306000B0F1804F2AD040F20041C4F2000123E0C9
:1030700040F2FF31C4F20101884213DC41F6000145
:10308000C4F20001884219D0002113E040F600018B
:10309000C4F20001884211D040F60041C4F20001A0
:1030A0000AE000BF44F20001C4F20101884205D0E9
:1030B00040F20041C4F20101884206D1816801F06A
:1030C0000701062904BF00207047016841F0010193
:1030D000016000207047000070470000B0B5044652
:1030E0000068C168026902EA0105A90720D46807DF
:1030F00034D428074AD4E80660D4E80777D12806F4
:1031000000F17F80680606D520686FF040010161FC
:10311000204600F08FF8A80658BFB0BD21686FF0B8
:10312000200220460A61BDE8B040FFF74DBF00BF56
:103130006FF002010161012121778069800703D0CE
:103140002046FFF7C9FF05E0204600F065F820465D
:1031500000F064F8002020776807CAD520686FF077
:103160000401016102212177806910F4407F03D0BE
:103170002046FFF7B1FF05E0204600F04DF820465D
:1031800000F04CF8002020772807B4D520686FF0B5
:103190000801016104212177C069800704D020461D
:1031A000FFF79AFF06E000BF204600F035F8204602
:1031B00000F034F800202077E8069ED520686FF0F4
:1031C0001001016108212177C06910F4407F03D00C
:1031D0002046FFF781FF05E0204600F01DF820465D
:1031E00000F01CF800202077E8073FF488AF206843
:1031F0006FF001010161204600F012F828067FF50A
:1032000081AF20686FF0800101612046FFF7DAFE90
:1032100068067FF580AF77E77047000070470000D1
:10322000006841F20001C4F20001884208BFFFF7C4
:10323000EFBA70477047000081B090F84230202B01
:1032400008D100294FF0010318BF002A06D1184603
:1032500001B070470223184601B070470123036391
:1032600000234363816222218285C285436480F802
:103270004210026901681AB1CA6842F48072CA60D9
:103280004A6942F001024A61CA6842F02002CA60FB
:10329000026B012A38D1002300930A6800924A6821
:1032A0000092009A51E8031FD0F800C041F01001CD
:1032B0004CE80312002ACAD0016851E8031F0268D3
:1032C00041F0100142E8031313B3016851E8031FF2
:1032D000026841F0100142E80313CBB1016851E8E4
:1032E000031F026841F0100142E8031383B1016833
:1032F00051E8031F026841F0100142E80313002B5C
:103300004FF00003D8D1A2E70123184601B070475F
:103310000023184601B0704710B540F21800C2F201
:1033200000000121017044F6B06044F64C74C2F212
:103330000000C2F20004043021466422FDF7B5F813
:1033400045F2A060C2F2000021461422BDE8104000
:10335000FFF772BF70470000B0B582B00568044641
:103360002968EA68686901F02F03202B02F0200326
:1033700006D12BB1204602B0BDE8B04000F024BE1B
:103380005FEA017C1EBF00F0010E02F4907010EBAA
:103390000E002FD1236B02EA0100C10618D5012BC4
:1033A00016D100200190286801906868019001986A
:1033B0006869400628D4A08DE18DE28D002A1CBFEB
:1033C000411A5FEA014040F0D78102B0B0BD00BFB2
:1033D000010600F1D3804006F7D5E868202120F0EF
:1033E0004000E860204684F8411002B0BDE8B040DB
:1033F00000F054BBC80718BF12F4807040F0D280B0
:10340000480700F1D580DAE0E06B01684A6893B2C2
:10341000002BDAD0A18D8B42D7D2E285C069B0F5FE
:10342000807F00F0A08055E8030F216820F48070B1
:1034300041E80302F2B1206850E8030F216820F44C
:10344000807041E80302AAB1206850E8030F2168A8
:1034500020F4807041E8030262B1206850E8030F55
:10346000216820F4807041E803021AB1206850E816
:10347000030FDAE7206850E8050F216820F001000B
:1034800041E80502BAB3206850E8050F216820F032
:10349000010041E8050272B3206850E8050F216879
:1034A00020F0010041E805022AB3206850E8050F2A
:1034B000216820F0010041E80502002ADAD11AE073
:1034C000206850E8050F216820F0400041E805021F
:1034D000DAB1206850E8050F216820F0400041E88B
:1034E000050292B1206850E8050F216820F04000E5
:1034F00041E805024AB1206850E8050F216820F034
:10350000400041E80502002ADAD1202084F8420078
:1035100000202063206850E8030F216820F010008D
:1035200041E80302DAB1206850E8030F216820F077
:10353000100041E8030292B1206850E8030F2168AF
:1035400020F0100041E803024AB1206850E8030F60
:10355000216820F0100041E80302002ADAD1E06B74
:10356000FEF7A8FCA18D02206063E08D081A81B2ED
:10357000204602B0BDE8B040FFF7CEBE94F841004F
:1035800021287FF422AFA068B0F5805F03D12069C5
:10359000002800F08981206A411C2162007868605F
:1035A00089E100BF606C40F001006064480706D507
:1035B000BEF1000F03D0606C40F002006064880729
:1035C00006D5BEF1000F03D0606C40F004006064CB
:1035D000BCF1000F06D55EEA030003D0606C40F03A
:1035E00008006064606C00283FF4EFAE02EA01005E
:1035F000800603D5204600F0E7FC25686869616C09
:1036000000F0400001F00801401800F0AD8055E8DE
:10361000030F00BF216820F4907041E80302D2B389
:10362000206850E8030F216820F4907041E80302FD
:103630008AB3206850E8030F216820F4907041E8B5
:10364000030242B3206850E8030F216820F4907011
:1036500041E80302FAB1206850E8030FDAE700BF3F
:10366000206850E8050F216820F0010041E80502BC
:10367000DAB1206850E8050F216820F0010041E828
:10368000050292B1206850E8050F216820F0010082
:1036900041E805024AB1206850E8050F216820F092
:1036A000010041E80502002ADAD1206B012824D16B
:1036B000206850E8030F216820F0100041E8030261
:1036C000DAB1206850E8030F216820F0100041E8CB
:1036D000030292B1206850E8030F216820F0100027
:1036E00041E803024AB1206850E8030F216820F046
:1036F000100041E80302002ADAD1202084F84200B9
:103700000020206320684169490640F1C78050E8E5
:10371000050F216820F0400041E80502002A00F072
:10372000AB80206850E8050F216820F0400041E898
:103730000502002A00F0A080206850E8050F2168EB
:1037400020F0400041E80502002A00F09580206842
:1037500050E8050F216820F0400041E80502002AEA
:1037600000F08A802068D2E72046FFF7F3FD0020B2
:10377000606402B0B0BD00BF55E8030F226820F4BA
:10378000907042E80303D3B3206850E8030F226827
:1037900020F4907042E803038BB3206850E8030FD5
:1037A000226820F4907042E8030343B3206850E895
:1037B000030F226820F4907042E80303FBB12068F5
:1037C00050E8030FDAE700BF206850E8050F2268D1
:1037D00020F0010042E80503DBB1206850E8050F46
:1037E000226820F0010042E8050393B1206850E808
:1037F000050F226820F0010042E805034BB1206864
:1038000050E8050F226820F0010042E80503002B74
:10381000DAD1202084F8420000202063206850E89C
:10382000030F226820F0100042E80303DBB1206898
:1038300050E8030F226820F0100042E8030393B120
:10384000206850E8030F226820F0100042E80303CC
:103850004BB1206850E8030F226820F0100042E8C6
:103860000303002BDAD1022289B22046626302B040
:10387000BDE8B040FFF750BDE06B78B143F6BD71D5
:10388000C0F600010165FEF75FFB00283FF49DAD27
:10389000E06B016D02B0BDE8B0400847204602B0C1
:1038A000BDE8B040FFF756BD206A30F8021B6FF349
:1038B0005F2169602062E08C01380104E0847FF4BC
:1038C00084ADE86820F08000E860E86840F04000DF
:1038D000E86002B0B0BD0000002804BF01207047BE
:1038E00010B5044690F8410028B9002084F8400043
:1038F000204600F021F8242084F841002068C168A7
:1039000021F40051C160204600F0E0FB206801690D
:1039100021F490410161416921F02A014161C168AE
:1039200041F40051C16000202021606484F84110FE
:1039300084F84210606310BD80B586B0006844F220
:103940000042C4F2000200219042CDE90411CDE909
:103950000211019138D044F60001C4F200018842FE
:1039600064D041F20001C4F20101884240F091802C
:10397000002043F630010090C4F202014A6942F08F
:1039800010024A614A6902F010020092009A009007
:103990000A6842F001020A60096801F00101009121
:1039A00000994FF4C06101910221CDE9021003207A
:1039B0000490072005900020C4F2020001A9FEF740
:1039C00035FE06B080BD00BF43F630000091C4F262
:1039D0000200026942F400320261026902F400321C
:1039E0000092009A0091026842F0010202600068B1
:1039F00000F00100009000980C2001900220CDE919
:103A0000020103200490072005900020C4F2020068
:103A100001A9FEF70BFE262000210022FEF7ACFFD5
:103A20002620FEF799FF06B080BD00BF002043F6B8
:103A300030010090C4F202010A6942F480220A6156
:103A40000A6902F480220092009A00900A6842F00B
:103A500002020A60096801F00201009100994FF426
:103A6000406101910221CDE902100320049007205A
:103A700005900020C4F2020000F5806001A9FEF765
:103A8000D5FD272000210022FEF776FF2720FEF734
:103A900063FF06B080BD0000704700007047000063
:103AA000FEE7000010B584B045F268500122002105
:103AB000C2F2000042F2000CC0F60072C4F2010C27
:103AC0004FF480330124C0E90A21022203910476D5
:103AD00080F82010C26180F83010C0E900C3C0E94E
:103AE0000211C0E90444FDF7BFFF002818BFFDF72D
:103AF000ADFD1020CDE900040720029045F268508A
:103B0000C2F200006946FDF76BFE002818BFFDF702
:103B10009DFD112000900220019045F26850C2F2F4
:103B200000006946FDF75CFE002818BFFDF78EFD1A
:103B300004B010BD80B582B00020019043F6300083
:103B4000C4F202000168002241F4800101600068B3
:103B5000002100F48000019001983820FEF70CFF4E
:103B6000382002B0BDE88040FEF7F6BE2DE9F04FE8
:103B700087B0002643F63000CDE905660196C4F211
:103B80000200016840F2000841F080010160016814
:103B9000C4F2020801F080010191019901960168C7
:103BA00008F5006541F0010101600168002201F0A3
:103BB000010101910199019601684FF0200A41F03D
:103BC00004010160016801F004010191019901966D
:103BD000016841F0020101600068202100F002004C
:103BE000019001982846FEF707FE08F580642046FC
:103BF000042100224FF00409FEF7FEFD4FF4881067
:103C00000390022002AF4FF0010B0490404639466A
:103C1000CDF808B0FEF70AFD122002904FF4041010
:103C2000CDE9030B40463946FEF700FD28463946EC
:103C3000CDE902ABCDE90466FEF7F8FC2046394633
:103C4000CDE9029BCDE90466FEF7F0FC06200221D7
:103C50000022FEF791FE0620FEF77EFE07200321DC
:103C60000022FEF789FE0720FEF776FE0A200221D9
:103C70000022FEF781FE0A20FEF76EFE07B0BDE8C7
:103C8000F08F000000F0B6BB80B545F2586041F2FD
:103C90000001C2F20000C4F2010100234FF00C0C3D
:103CA0004FF4E13280E80E00C0E90333C0E905C3F8
:103CB000C361FFF711FE002808BF80BDBDE880404A
:103CC000FDF7C4BC80B545F2A06044F20041C2F2E9
:103CD0000000C4F2000100234FF00C0C4FF4E1325D
:103CE00080E80E00C0E90333C0E905C3C361FFF7F4
:103CF000F3FD002808BF80BDBDE88040FDF7A6BCED
:103D000080B545F2E86044F60001C2F20000C4F25A
:103D1000000100234FF00C0C4FF4E13280E80E005C
:103D2000C0E90333C0E905C3C361FFF7D5FD00282F
:103D300008BF80BDBDE88040FDF788BCFEE70000FD
:103D4000FEE7000070B50AB3531E032B02F0030C0C
:103D500002D2002212E000BF22F0030E4B1C002210
:103D6000855C9E18841806F8015C65789D54A578DA
:103D700004327570E4789645B470F1D1BCF1000F4F
:103D800004D0135CBCF1010F8B5401D170BD00BF96
:103D9000531C1E5CBCF1020FCE5408BF70BD023232
:103DA000105C885470BD0000B0B592B0002443F69A
:103DB0004000CDE90A44CDE908440594CDE9034427
:103DC000CDE901440094C4F202000168022541F0EB
:103DD00080510160006800F080500090009847F228
:103DE00000000094C4F20000016841F480410160C9
:103DF0000068A82100F480400090009801200690FF
:103E00004FF4803007904FF480000D9004200E9006
:103E1000119006A80C95CDE90F15FEF717FF18B104
:103E200072B600BFFEE700BF0F20CDE901054FF4D9
:103E3000A05004904FF48050059001A805210394F0
:103E4000FEF7D6FD10B172B6FEE700BF12B0B0BDEE
:103E50004EF68850CEF20000016841F47001016016
:103E60007047000045F21060C2F20000FFF736B95B
:103E700010B540F6FF3E0368C4F2000E40F2004C5D
:103E80007045C4F2010C27DCB0F1804F31D040F214
:103E90000042C4F2000290422BD040F60002C4F26D
:103EA0000002904225D041F6FF72C4F20002904217
:103EB00029DC70453CDCB0F1804F5FD040F200421D
:103EC000C4F20002904259D040F60002C4F200024F
:103ED000904253D056E000BF40F60042C4F20002C8
:103EE000904206D0604504D00022C4F20102904204
:103EF000D9D14A6823F07003134341F6FF72C4F22C
:103F000000029042D5DD43F6FF72C4F201029042F6
:103F100022DC42F20002C4F2000290422ED00022C3
:103F2000C4F20102904229D0604527D02AE000BFA8
:103F300040F60042C4F2000290421FD041F6000257
:103F4000C4F20002904219D041F60042C4F20002CD
:103F5000904213D016E000BF44F20002C4F2010206
:103F600090420BD044F60002C4F20102904205D008
:103F700044F20042C4F20102904203D1CA6823F421
:103F80004073134323F080024B69D1F800E08C6842
:103F90001A430260C46240F48062C0F828E06245BF
:103FA00004BF09690163012141610169C90708BFB3
:103FB00010BD016921F00101016110BD806B00217C
:103FC000C185C184FFF7C6B981B090F8421022299B
:103FD00020D18368B3F5805F08D10169002957D0EB
:103FE00000F128010A6803685B680AE0014651F89D
:103FF000282F13B90369002BF5D003685B6803F021
:104000007F0313700A6801320A60C18D01390A0406
:10401000C18501D001B070470168CA6822F0200252
:10402000CA60CA6822F48072CA604A6922F001023A
:104030004A61202280F8422000224263036B012B58
:1040400030D1026351E8031F026821F0100142E8F9
:1040500003135BB3016851E8031F026821F01001EC
:1040600042E8031313B3016851E8031F026821F00B
:10407000100142E80313CBB1016851E8031F026845
:1040800021F0100142E8031383B10168DAE700BFB1
:104090000168826A49686FF35F2122F8021B82621D
:1040A000B3E700BF01B0FFF7F7BC00BF01680A68C3
:1040B000D20606D5002200920A6800924968009153
:1040C0000099818D01B0FFF727B9000010B50446B3
:1040D0000068D4E902C22369016921F44051114307
:1040E0000161626943EA0C01E3691143C268194343
:1040F00049F20C639A431143C1604169A26921F4FA
:10410000407141F20043114340F48062C4F2010364
:104110009A42416102D1FEF74FFD01E0FEF738FD02
:10412000E16963681922B1F5004FA0FB02011FD1BC
:104130005A00DB0FFCF788F948F21F51C5F2EB116A
:10414000A0FB01235A096FF0630302FB0300322333
:1041500003EBC000A0FB01014FF4F87000EA11105E
:1041600000EB0210C1F3421122680843906010BDB9
:104170009A009B0FFCF768F948F21F51C5F2EB114A
:10418000A0FB01235A096FF0630302FB03003223F3
:1041900003EB0010A0FB0101F02000EA511000EB3E
:1041A0000210C1F3431122680843906010BD000063
:1041B00045F2A060C2F20000FFF7CEB845F2E86019
:1041C000C2F20000FFF7C8B8FEE700002DE9F04F8B
:1041D0008BB080460020B8F1006F0590C0F0A98038
:1041E0001446002A00F0A5804FF6FF70C0F60700C5
:1041F00004EB0807874200F29C800D46FEF7BCF9ED
:10420000474579D944F2000BC0F6000B0BF500408E
:1042100004900BF5404003900BF5E03002900BF555
:1042200070300DF114090BF5804A01900BF5B820A0
:104230004646009012E000BF01200890012009903E
:1042400002200A9006A84946FEF736F8002859D100
:104250004CF25030FDF7FEF9BE4253D230680130C7
:104260000AD000205E450690E7D35645E4D3049873
:10427000864209D20220E0E701364CF25030FDF7C9
:10428000E9F9BE42EAD33DE00398864202D2032018
:10429000D3E700BF0298864202D20420CDE700BFD8
:1042A0000198864202D20520C7E700BF00988642E7
:1042B00002D20620C1E700BF4FF6FF70C0F607002C
:1042C0000130864202D20720B7E700BF0021C0F6C6
:1042D0000A018E4202D20820AFE700BF01F500308C
:1042E000864201D20920A8E701F5802086424FF0DE
:1042F0000B0038BF0A20A0E74CF25030FDF7AAF9B6
:1043000015E000BF4CF25030FDF7A4F978B94745ED
:104310000DD900BF2A78002041460023FEF79CF803
:1043200028B908F10108013C05F10105F2D1FEF7B9
:1043300089F80BB0BDE8F08FF0B581B00F4634219D
:104340001D4616460446FCF7C9F825F00300A0F107
:104350000801A1600221C4E90660E16030444EF624
:10436000EE616760C4E9046640F8086DCFF6FF713E
:104370004460C6E9000145F245410020C4F25921DC
:104380002062EFF3108072B6216040F26001C2F249
:1043900000010A6840F25C03C2F2000332B11F68F8
:1043A0003E6B3C6306F12C0302E000BF2746264625
:1043B00001321C60C4E90B760A6080F3108800208B
:1043C00001B0F0BD80B500F01BF900F019FC40F21F
:1043D0003C00C2F200000021C0E90011C0E9021156
:1043E000C0E90411C0E90611C0E90811C0E90A11C9
:1043F00080BD000010B540F21004C2F20004206835
:1044000010F10F3F0DD04FF0F0302060FBF7E8FEC9
:10441000FFF7D8FF40F28400C2F2000001680131CA
:1044200001604FF0F030206044F6B070C2F200003E
:10443000006800F0E5FE00202060BDE81040FBF7BA
:1044400017BF00002DE9F0410F46DDF81880382134
:104450001D4616460446FCF741F8B000B8FBF0F0E4
:10446000676000FB06F105EB8101C4E9071544F222
:104470005551C5F25511A660C4E905056562E060B5
:10448000EFF3108072B6216040F24801C2F20001E1
:104490000A6840F24403C2F200032AB11F687E6B2F
:1044A0007C6306F1300301E02746264601321C609A
:1044B000C4E90C760A6080F310880020BDE8F08122
:1044C0002DE9F04F81B0DDE90A5993460F46DDF83A
:1044D00038A00C9E044628464946EF229846FBF732
:1044E000F6FF2046B021FBF7F9FF09EB0501013982
:1044F000C4E903510D9920208E423146C4E911B818
:10450000C4E90A76C4E9059AC4F81CA018BF0021C2
:10451000C4F89C000320206344F6A530E163C4E99D
:104520002561C0F6000044F2B961C4E91504C0F683
:1045300000012046FBF704FF45F24421C5F2484143
:10454000EFF3108072B6216040F28001C2F20001E8
:104550000A6840F27C03C2F200033AB11F68D7F840
:104560008C60C7F88C4006F1880301E02746264698
:1045700001320A6040F284011C60C4E92276C2F272
:1045800000010F9D0A68012D02F101020A6019D194
:1045900040F21001C2F200010968EFF305821143F5
:1045A000B1F1F03F4FF000051CD340F27001C2F2B0
:1045B000000109680026B1B1CA6ACE6B0D46CA6314
:1045C00011E000BF80F31088EFF3108072B60A6824
:1045D000013A0A6080F3108800F02CF9002001B045
:1045E000BDE8F08F002680F31088204600F048F9DF
:1045F000002D18BFEE63002001B0BDE8F08F000071
:10460000B0B540F26C04C2F2000400252020C4E9D9
:10461000025044F6B470C2F200008021C4E9005593
:10462000FBF75CFFC4E90455A561206AE56140F031
:1046300085702062B0BD0000B0B5EFF3108172B696
:10464000026B032A18D140F21002C2F20002126873
:10465000EFF305831A43B2F1F03F4FF0000419D392
:1046600040F27002C2F20002126800259AB1D36AC9
:10467000D56B1446D3630EE0426B012A06D10022AB
:104680004263192081F31088B0BD00BF122081F36E
:104690001088B0BD002540F28402C2F20002136807
:1046A0000133136081F3108800F0EAF814B10020A0
:1046B000E563B0BD0020B0BD10B540F26C00C2F2A1
:1046C00000000468D4E91110884740F28800C2F263
:1046D0000000016809B1204688470121EFF31080EE
:1046E00072B62163A1630021E16440F28401C2F249
:1046F00000010A6801320A6080F31088EFF3148029
:1047000020F0040080F314882046BDE8104000F03B
:1047100051B9000010B540F26C02EFF3108172B68F
:10472000C2F2000214686CB140F21002C2F2000240
:104730001268EFF305831A4308D081F31088132021
:1047400010BD00BF81F31088132010BD45F2B802E0
:10475000C2F2000294420BD070B140F28402C2F265
:104760000002136863B181F31088132010BD00BFED
:1047700081F31088132010BD81F31088002010BD34
:10478000042323630123A3630023C4F88430E0647B
:1047900010680130106081F31088204600F00AF99B
:1047A000D4F8840010BD000010B5EFF3108172B68C
:1047B000026B531E022B27D3032A2DD052BB40F28B
:1047C0006C02C2F20002126840F21003C2F200034F
:1047D000824240F284021B68C2F20002EFF30584B9
:1047E00008BF53EA04031DD00323036301230024FD
:1047F0008363C46413680133136081F3108800F08D
:10480000D9F8204610BD00BF142481F3108820463B
:1048100010BD00BF01224263002481F310882046AE
:1048200010BD00BF1368002BDED0142481F3108864
:10483000204610BD40F28400C2F20000006808B1BA
:10484000704700BF40F26C0040F27001C2F20000FD
:10485000C2F20001006809688842F1D04EF60450A7
:10486000CEF200004FF080510160EFF30580002888
:1048700018BF7047EFF3108062B680F3108870475E
:10488000F0B581B0EFF3108572B60446406E002893
:1048900004F14C0002D000F03FFA01E00021016079
:1048A00040F28400C2F20000016801390160A16B8E
:1048B000226B002940F27001C2F2000108D0013AD7
:1048C000022A0CD3626B32B90022A263226306E093
:1048D0002AB1626B22B3002203232363626340F296
:1048E0006C02C2F20002126885F3108809688A42DD
:1048F00001D0006810B101B0F0BD00BF4EF6045009
:10490000CEF200004FF080510160EFF305800028E7
:10491000F1D1EFF3108062B680F3108801B0F0BDE2
:10492000E26A44F6B47CC2F2000C5CF822304FF02C
:10493000000EC4F830E02BB15A6A5C621462C4E91C
:104940000832CCE74CF8224040F2740E40F2780C6A
:10495000C2F2000EC2F2000C0123DEF80060DCF8A7
:10496000007093403343BA42C4E90844CEF80030A3
:10497000B5D20B68CCF80020D3B1DB6B9A42AED233
:104980000C6085F3108800680028B4D14EF60450FE
:10499000CEF200004FF080510160EFF30580002857
:1049A000A9D1EFF3108062B680F3108801B0F0BD9A
:1049B0000C6094E770B5044640F26C00C2F200004F
:1049C0000668EFF3108572B6A6420DD1204650F866
:1049D0004C1F0131022928BF00F070F9E06940F254
:1049E0009401C2F20001086040F28400C2F20000AB
:1049F000016840F2700C01390160A16BC2F2000C39
:104A0000012916D1236AE26A0021A342A1631BD0C7
:104A1000616A44F6B47E59620B62C2F2000E5EF81F
:104A20002210A14208BF4EF82230DCF80010A1424B
:104A30002AD085F31088DCF800108E4202D000687E
:104A4000002845D070BD00BF44F6B473C2F2000325
:104A500043F8221040F27403C2F200034FF0010E3B
:104A600019680EFA02F291430029196042D040F20F
:104A7000780291FAA1F1C2F20002B1FA81F111605B
:104A8000DCF80010A142D4D140F27801C2F200015A
:104A9000096844F6B472C2F2000252F82110CCF850
:104AA000001085F3108800680028CBD14EF6045022
:104AB000CEF200004FF080510160EFF30580002836
:104AC000C0D1EFF3108062B680F3108870BD00BFD4
:104AD0004EF60450CEF200004FF080510160EFF32B
:104AE0000580002818BF70BDEFF3108062B680F318
:104AF000108870BD40F27801C2F2000120220A60E5
:104B00000021CCF8001085F310880068002899D1A6
:104B10004EF60450CEF200004FF080510160EFF3EA
:104B2000058000287FF48EAFEFF3108062B680F32B
:104B3000108870BD40F26C00C2F20000016840F2C3
:104B40009802EFF3108072B6C2F2000200231360E5
:104B500009B10A6B12B180F310887047D1E90732AE
:104B600040F2940CC2F2000C8A428B61CCF8003007
:104B7000F1D0CB6AC96B8B42EDD140F2780144F69B
:104B8000B47CC2F20001C2F2000C09684CF8232088
:104B90005CF8211040F27002C2F20002116080F352
:104BA00010887047EFF3108272B6016B04290BD1A5
:104BB00040F28401C2F200010B6801330B6082F302
:104BC0001088FFF75DBE00BF836ED0F8AC1082F393
:104BD0001088002B08BF70471847000040F284017E
:104BE000EFF3108072B6C2F200010A6801320A6067
:104BF00080F3108845F2B800C2F20000FFF740BE13
:104C00002DE9F04387B045F2380640F29004C2F235
:104C1000000644F64D18C2F20004002530468021FB
:104C2000C4F254182560C4E90155C4E90355FBF7E3
:104C300055FC45F2681106F18000C2F200014FF404
:104C4000806204F11C0327C38DE8260045F2B800FA
:104C500045F6B93144F65552C2F20000C0F60001E3
:104C6000C0F600024346C4E90566CDE90355059543
:104C7000FFF726FCE0B145F2B80945F6B93644F62F
:104C80005557C2F20009C0F60006C0F6000700BF83
:104C900004F1200207CACDE903258DE80700484644
:104CA00031463A4643460595FFF70AFC0028EFD106
:104CB000C4E90B5507B0BDE8F083000001684A1C49
:104CC000022A27D38269002A18BF70474A1E20296A
:104CD00040F2A801C2F20001096888BF1F2201EB5F
:104CE000820140F2AC02C2F20002126840F2A40358
:104CF000C2F200038A1A1B6828BF99180A682AB1F1
:104D0000536950611861C0E9042302E0C0E904005E
:104D100008608161704700008169002908BF704701
:104D20000269824208D0436953611A610B68834269
:104D30000AD00021816170470A688242F9D10022BD
:104D40000A6000218161704791610A6000218161E0
:104D5000704700002DE9F04F83B044F64D11C4F2C6
:104D6000541188421CBF03B0BDE8F08F40F2A80682
:104D700040F29C0440F2A00BC2F200060027C2F2EF
:104D800000040DF10409C2F2000B0DF1080804E063
:104D9000206800286AD081F31088EFF3108072B683
:104DA00031680A68002A029218BFC2F818800F60A2
:104DB00040F2AC023168C2F2000212680431914242
:104DC000316005D140F2A401C2F2000109683160EE
:104DD000276080F31088EFF3108172B605E000BF02
:104DE0008AF31088EFF3108172B6029D002DCFD0A8
:104DF000286900228542019214D06A69C0F818809F
:104E0000426110612A680290212A10D3A2F1200089
:104E10002860C5F818902D610195CBF8005081F3FA
:104E2000108816E000202A680290212AEED2D5E9E7
:104E30000132E868002B2B600FBF00232D61019524
:104E40004B46AB61CBF8005081F31088002A18BFA5
:104E50009047EFF3108A72B60198CBF80070A84221
:104E6000BED12846AF61FFF729FFB9E745F2B80088
:104E7000C2F2000003220263012240F28403826333
:104E8000C2F200031A6801321A6081F31088FFF73A
:104E900091FD82E72DE9F04381B0074600284FF0ED
:104EA000020000F09E8088460899342940F09980DD
:104EB00040F28400EFF3108172B6C2F20000154692
:104EC000026899460132026081F3108840F25C0169
:104ED000C2F200010B68D91BB1FA81F14FEA5116F9
:104EE0002FD040F26001C2F20001096849B30222EA
:104EF000DB6ADE1BB6FA86F64FEA561621D0541E40
:104F00008C421ED2DB6ADE1BB6FA86F64FEA5616D4
:104F100017D08A4215D2DB6ADE1BB6FA86F64FEA54
:104F200056160ED0541C8C420BD2DB6ADE1BB6FA2E
:104F300086F64FEA561604D0941C8C4202F1040205
:104F4000D6D3EFF3108172B60268013A026081F3A2
:104F50001088FFF76FFC1EB1022001B0BDE8F0839E
:104F600035B1B9F1640F07D2052001B0BDE8F08377
:104F7000032001B0BDE8F08340F26C00C2F20000F3
:104F8000016840F21000C2F200000268EFF30583EE
:104F90001A4315D045F2B8030068C2F20003EFF3DC
:104FA000058202430020994208BF1320B2F1F03F6E
:104FB00038BF1320994214D0B2F1F03F06D210E06E
:104FC00045F2B800C2F20000814209D0384641469D
:104FD0002A464B4601B0BDE8F043FFF7ADB900BF2C
:104FE000132001B0BDE8F0832DE9F0470746002803
:104FF0004FF0090000F0A58089460999382940F052
:10500000A08040F28400DDF82080EFF3108172B6BA
:10501000C2F20000154602689A460132026081F32E
:10502000108840F24401C2F200010B68D91BB1FAAA
:1050300081F14FEA511630D040F24801C2F200012E
:10504000096851B3022200BF1B6BDE1BB6FA86F65D
:105050004FEA561621D0541E8C421ED21B6BDE1B0B
:10506000B6FA86F64FEA561617D08A4215D21B6B4F
:10507000DE1BB6FA86F64FEA56160ED0541C8C424A
:105080000BD21B6BDE1BB6FA86F64FEA561604D01F
:10509000941C8C4202F10402D6D3EFF3108172B655
:1050A0000268013A026081F31088FFF7C3FB002E0B
:1050B0001CBF0920BDE8F087BAF1000F36D0681E8A
:1050C0000F284FF005003CD84FEA9801A94238D389
:1050D00040F26C00C2F20000016840F21000C2F21F
:1050E00000000268EFF305831A4323D045F2B803AA
:1050F0000068C2F20003EFF30582024300209942E8
:1051000008BF1320B2F1F03F38BF1320994218D0E6
:10511000B2F1F03F38BFBDE8F087384649462A462D
:105120005346BDE8F047FFF78DB900BF0320BDE847
:10513000F08700BF45F2B800C2F200008142ECD116
:105140001320BDE8F087000040B1016845F2442219
:10515000C5F24842914208BFFFF76EBA0E20704771
:1051600040B1016845F24422C5F24842914208BF6D
:10517000FFF71ABB0E20704744F20041C4F2000151
:105180000A6812065FBF0A685FEA02620A685FEA9D
:10519000026202D40A681206F2D5486004E000BF39
:1051A0000A68520648BF70470A68520606D40A6861
:1051B00052065CBF0A685FEA4262F1D570470000A0
:1051C000FDF734FBFEF7F0FDFEF7D0FCFEF7B2FC76
:1051D000FEF778FDFEF766FCFEF792FDFEF754FD44
:1051E00045F2A06044F64C71C2F20000C2F2000128
:1051F0001422FEF721F8FEF745FD00BFFEE7000090
:1052000080B582B045F6383045F66C324FF0340C3C
:10521000C2F200000AA1C2F200024FF48063CDF88E
:1052200000C0FFF737FE00281CBF02B080BD45F666
:105230003830C2F2000002B0BDE88040FCF748B947
:10524000547820417070206D656D6F727920706F99
:105250006F6C00000FB4054B10B503A9044A029807
:1052600000F0DAF810BC5DF814FB0000795100087A
:105270000000002002E008C8121F08C1002AFAD16D
:1052800070477047002001E001C1121F002AFBD1C6
:10529000704700002DE9FF5F82B00021DDE9043096
:1052A000020DDDF840B0034318D044F61050A2F2CE
:1052B000FF3242431514119801281FD0A5EB0B00B3
:1052C000401C5FEA000A4FF000064E4FDFF83891AD
:1052D000B046504615D5CAF1000413E011980124D8
:1052E0004AA3012801D16FEA0B010298119AC0E983
:1052F0000031C0E9024206B0BDE8F09FCBF10000EA
:10530000DFE704460021404A491842EB0450CDE94A
:10531000001012E0E00707D032463B4640464946BF
:10532000FBF700F98046894632463B46104619464F
:10533000FBF7F8F806460F466410002CEAD1DDE9C9
:105340000401DDE90023BAF1000F06DAFBF7EAF801
:1053500042464B46FBF7E6F805E0FBF701FB424609
:105360004B46FBF7FDFA04460E460022284BFBF79E
:105370007FFB03D84FF0FF30014607E00022254BAA
:1053800020463146FBF745FAFBF759FB102409E0AC
:10539000002C0ADB0A220023FBF756F8039B30326D
:1053A0001A55641E50EA0102F2D1641C039AC4F13A
:1053B00011031444119A012A03D0012208430DD18C
:1053C0000AE0084304D000204FF0110B119072E75F
:1053D000A3EB0B056D1E0DE05B4504DD4FF00002F5
:1053E00005F1010504E003DA4FF00002A5F1010523
:1053F000002AECD002981199C0E90231C0E90045B9
:1054000079E70000000014400000F03F3000000089
:105410000000F0430000E03F2DE9FF4F95B09B46B0
:105420008946064600250FE2252877D10024274625
:10543000F84A0121059400E0044316F8013F203B9F
:1054400001FA03F01042F7D130782A2811D06FF01A
:105450002F033078A0F13002092A16D8059A44F0BB
:10546000020402EB820203EB42021044761C059018
:10547000EFE759F8042B0592002A03DA504244F46E
:105480000054059044F00204761C30782E2816D182
:1054900016F8010F44F004042A280DD06FF02F02F3
:1054A0003078A0F13003092B09D807EB870302EB12
:1054B0004303C718761CF3E759F8047B761C307851
:1054C0006C280FD006DC4C2817D068280DD06A282D
:1054D00014D104E0742810D07A280FD10DE044F4E0
:1054E00000140AE044F4801401E044F4401472789B
:1054F000824202D104F58014761C761C307866282E
:105500000BD013DC582877D009DC002875D045284B
:10551000F6D04628F4D047281AD19DE118E0632838
:1055200035D0642879D0652812D195E1702873D0E0
:1055300008DC6728F1D069286FD06E280DD06F285D
:1055400006D1B5E073282CD0752875D0782874D092
:105550005A46179990476D1C75E1C4F30250022812
:1055600009D003280DD0D9F8001004280DD00D6003
:1055700009F1040967E1D9F80010EA17C1E90052FE
:10558000F6E7D9F800100D80F2E70D70F0E719F892
:10559000041B8DF8001000208DF80100EA46012060
:1055A00003E059F804AB4FF0FF3061074FF0000102
:1055B00002D40DE008F101018846B9420FDA8045B6
:1055C000F8DB1AF808100029F4D108E008F101010D
:1055D00088468142FADB1AF808100029F6D10598AE
:1055E0005B46A0EB080721463846179A00F094FA6C
:1055F000284400EB080507E04DE029E10DE01AF82A
:10560000010B5A4617999047B8F10108F7D25B464B
:1056100021463846179A13E142E00A220092C4F369
:1056200002524FF0000A022A08D059F804CB032A8C
:105630004FEAEC710AD00DE029E02AE009F10701F8
:1056400021F00702F2E802C1914609E00FFA8CFC52
:105650004FEAEC71042A03D14FFA8CFC4FEAEC714B
:10566000002907DA0A460021DCF1000C61EB020197
:105670002D2202E0220504D52B228DF804200122E0
:1056800003E0E20701D02022F7E7904659E00A2123
:1056900002E010220DE010214FF0000A00910BE013
:1056A00010224FF0000A44F004040827009203E09F
:1056B00008224FF0000A0092C4F30252022A05D0D9
:1056C00059F804CB0021032A08D009E009F10701A9
:1056D00021F00702F2E802C1914605E01FFA8CFCB6
:1056E000042A01D10CF0FF0C4FF00008220728D546
:1056F000702806D0009B83F0100353EA0A0305D0FC
:105700000EE040228DF80420012208E05CEA01024C
:1057100006D030228DF804208DF805000222904634
:10572000009B83F0080353EA0A030AD15CEA0102F2
:1057300001D1620705D530228DF804204FF0010811
:105740007F1E582804D034A003900EA802900DE0CC
:1057500036A0F9E753466046009AFAF775FE84468C
:105760000398825C0298401E029002705CEA01007D
:10577000F0D1029806A9081A00F1200A600702D5A4
:1057800024F4803400E00127574502DDA7EB0A002E
:1057900000E0002000EB0A01009005984144401A07
:1057A0000590E00306D45B462146179A059800F061
:1057B000B3F90544002706E001A85A46C05D1799D1
:1057C00090476D1C7F1C4745F6DBE0030CD55B461C
:1057D0002146179A059800F09FF9054404E030200F
:1057E0005A46179990476D1C0099481E0090002951
:1057F000F5DC08E0029802995A460078491C0291AB
:10580000179990476D1CBAF10001AAF1010AF1DC69
:1058100065E1000009280100303132333435363774
:1058200038396162636465660000000030313233EC
:10583000343536373839414243444546000000008C
:1058400000F058F90544761C307800287FF4ECAD60
:1058500019B02846BDE8F08F620700D4062709F189
:10586000070222F0070CFCE80223E14603F000489F
:105870005FEA080C02D00FF2702C0DE05FEA045CC6
:1058800002D50FF2682C07E05FEAC47C02D00FF269
:10589000602C01E0AFF2700C4FF0FF3823F00043B2
:1058A000CDF850C065280CD006DC452809D0462824
:1058B0001DD047283DD13DE0662818D067287ED10D
:1058C00038E00021112F01DB112000E0781CCDE928
:1058D000000106A90EA8FFF7DDFCDDE90F010E9A15
:1058E00003910021009207F1010A04914DE04FF06D
:1058F00000400097CDE9011006A90EA8FFF7CAFCE9
:10590000DDE90F0203920E9B11990022DDF80CA035
:105910000093049211B9791C00EB010AB7EB0A005D
:1059200004D4C0F1FF3007F1010A0490AAEB07008C
:10593000019044E0012F00DA01270021112F01DD41
:10594000112000E03846CDE9000106A90EA8FFF7B6
:10595000A1FCDDE90F010E9A039100210491009250
:10596000BA4621070CD40399514500DA8A46BAF1A8
:10597000010F05DD009AAAF10101515C302908D020
:10598000B84202DA10F1040F06DA0121CDE9011064
:1059900015E0AAF10101E9E7002805DC04990144BA
:1059A0000491AAEB000102E0411C514500DD8A464A
:1059B0000499401A401C01904FF0004002902007CB
:1059C00004D40198504501DBCDF8048000208DF807
:1059D0004F0002980DF14F07B0F1004F25D02B205A
:1059E0000E9002984FF0020800280CDA4042029014
:1059F0002D200E9007E00A210298FAF741FE30317F
:105A0000029007F8011DB8F10001A8F10108F2DCCD
:105A100002980028EFD1791E0E980870307800F0B7
:105A2000200040F0450007F8020D12A8C01B00F14D
:105A300007081498007800B1012000EB0A010198D2
:105A400001EBE07105984144401A401E0590E003C7
:105A500006D45B462146179A059800F05DF8054488
:105A60001498007818B15A46179990476D1CE003B6
:105A700024D55B462146179A059800F04DF8054459
:105A80001CE00498002807DBDDE90301884203DD00
:105A90000098405C179901E0179930205A469047CA
:105AA000049805F10105401C04900198401E0190E6
:105AB00004D12E205A46179990476D1CBAF1000167
:105AC000AAF1010ADDDC05E017F8010B5A46179927
:105AD00090476D1CB8F10001A8F10108F4DC5B46A9
