:020000040800F2
:10000000382600209D0100087926000851240008A8
:100010007526000895060008912A000800000000D7
:10002000000000000000000000000000AF01000818
:10003000A5060008000000009D0200085302000809
:10004000B7010008B7010008B7010008B7010008B0
:10005000B7010008B7010008A9060008B1060008AA
:10006000B7010008B7010008B9060008B701000889
:10007000B7010008B7010008B7010008B701000880
:10008000B7010008B701000855050008B7010008CE
:10009000B7010008B7010008B7010008B701000860
:1000A000B7010008B7010008B7010008B701000850
:1000B000B7010008B7010008B7010008B701000840
:1000C000B7010008B7010008B7010008B701000830
:1000D000B7010008B7010008852A0008B701000829
:1000E000B7010008B7010008B7010008B701000810
:1000F000B7010008B7010008B7010008B701000800
:10010000B7010008B7010008B7010008B7010008EF
:10011000B7010008B701000839270008B701000837
:1001200099060008B7010008B7010008B7010008E8
:10013000B7010008B7010008B7010008B7010008BF
:10014000B7010008B7010008B7010008B7010008AF
:10015000B7010008B7010008B7010008B70100089F
:10016000B7010008B7010008B7010008B70100088F
:10017000B7010008B7010008B7010008000000003F
:10018000B7010008B7010008DFF80CD000F0D0F983
:1001900000480047BD350008382600200648804743
:1001A00006480047FEE7FEE7FEE7FEE7FEE7FEE75C
:1001B000FEE7FEE7FEE7FEE72527000889010008C5
:1001C0000C1700203826002000000008901700209F
:1001D00000000008001000E03F9002000000FF4017
:1001E00072B65FF824005FF8241001F10401016089
:1001F0004FF0E0205FF83010C0F8081D5FF83400C1
:100200005FF83410096801605FF83800016841F058
:10021000010101604FF0E0205FF8441041614FF0B0
:10022000070101614FF00001C0F8181D4FF07F4138
:10023000C0F81C1D5FF85C10C0F8201D7047FFF768
:10024000FEBFFFF7FEBFFFF7FEBF01B5BDE80140EF
:10025000704701B500F094F8BDE801407047FFF722
:10026000FEBFFFF7FEBF000000000000000000001E
:100270004FF000002A4A1060EFF3148020F00400D1
:1002800080F3148862B64FF080504FF0E021C1F83F
:10029000040DBFF34F8FBFF36F8FFEE72148224A53
:1002A0004FF00003016891B10360EFF3098C2CE972
:1002B000F00F1EF0100F01D12CED108A1B4C4CF8E2
:1002C00004ED2568C1F808C00DB18D61236072B6D8
:1002D0001168B1B1016062B64F68154C8D6907F1C4
:1002E00001074F602560D1F808C05CF804EB1EF0F0
:1002F000100F01D1BCEC108ABCE8F00F8CF3098818
:10030000704772B61168016009B962B6F9E74FF03B
:1003100000674FF0E028C8F8047D62B6DCE770475C
:1003200060000020480000204C00002070000020E9
:10033000700000200000000000000000000000002D
:10034000026922F00702A2F144026FF00203136077
:100350004FF0000353609360D36013615361936166
:10036000D361136253629362D362136353634FF09A
:10037000FF339363D1634FF08073136482607047DF
:100380002249086800F101000860214B1A683AB15F
:10039000A2F101021A601AB91E4B4FF00100186059
:1003A0001D490868026822B11C4B4FF001021A6017
:1003B00008E000F104001A4B1A68904201D1194B71
:1003C00018680860184B1A6812B918490868D0B143
:1003D0002DE901401649086808B102F0E9FE154B05
:1003E0001A6872B102F090FE1348016849B91348C7
:1003F0000168134A136813484FF08052994200D0A5
:100400000260BDE80140BFF34F8F70476C000020D1
:10041000700000207400002084000020780000207C
:100420008800002080000020740000207800002058
:1004300078000020740000206000002048000020A8
:100440004C00002004ED00E02DE9F05F054600209F
:1004500092469B4688460646814640241BE0284635
:1004600041464746224600F053F853465A46C01AC2
:10047000914110D311461846224600F03AF82D1A41
:1004800067EB01084F4622460120002100F031F8B9
:1004900017EB00094E41201EA4F10104DFDC4846A1
:1004A00031462A464346BDE8F09F40EA01039B07D8
:1004B00003D009E008C9121F08C0042AFAD203E0D9
:1004C00011F8013B00F8013B521EF9D27047D2B23D
:1004D00001E000F8012B491EFBD270470022F6E72D
:1004E00010B513460A4604461946FFF7F0FF2046AA
:1004F00010BD202A04DB203A00FA02F100207047E8
:100500009140C2F1200320FA03F319439040704751
:10051000202A04DB203A21FA02F00021704721FA58
:1005200002F3D040C2F120029140084319467047BF
:10053000064C074D06E0E06840F0010394E8070030
:1005400098471034AC42F6D3FFF722FE9C360008E1
:10055000BC36000841F6C440C2F2000000F05AB9AF
:1005600080B586B040F2101300204FF48062C2F2D2
:1005700000031421CDE90032049040F2105040F203
:10058000B5524FF0010CCDE90211C2F2000005A1F5
:10059000C0F600020023CDF814C002F001FB06B043
:1005A00080BD00BF4C454420424C5545205441532A
:1005B0004B00000041F6B45840F2004640F20007FC
:1005C00040F2A00441F27065C2F200080FF258092F
:1005D000C4F20206C2F20007C2F20004C2F2000531
:1005E00001E000BF8847404649460822142301F035
:1005F0006BFE4FF47A7002F0BDFB3046042100F030
:100600007DFDD7E900024168616050682B796A7905
:10061000302BA06008BF412AE4D0302B08BF422A0B
:10062000E1D18047DFE700BFD5E2CAC7424F4F5450
:100630000A00000080B586B041F27060C2F200008E
:10064000002140F2C052017101604FF48050C2F2AB
:100650000002CDE9002041F2C05040F261524FF05B
:10066000010C0491C2F2000006A1C0F600020023B2
:10067000CDE902CCCDF814C002F092FA002006B009
:1006800080BD00BF4150502053544152542054412A
:10069000534B0000FEE7000041F60C50C2F2000090
:1006A00000F0AEBA70470000012000F03DBC000031
:1006B000022000F039BC0000102000F035BC000022
:1006C00072B600BFFEE700007047000070B581B051
:1006D0000022009290F83C20012A03D10221084612
:1006E00001B070BDD1F800E00122BEF10A0F80F820
:1006F0003C200BD31FFA8EF25200066812FA8EF2DB
:10070000A2F11E0306F10C0205E000BF06680EEB25
:100710004E0306F110024FF0070C15680CFA03F4B3
:10072000A54315608D68146805FA03F3234313602D
:100730004968062906D801EB8101053906F1340222
:100740000AE000BF0C2901EB810187BF413906F1A6
:100750002C02233906F130021F2314688B4024EA4F
:10076000030342F2043C1360C4F2010C1FFA8EF33F
:10077000146803FA01F1ACF5417321439E42116004
:100780003ED1BEF1120F07D1DCF8001041F4800118
:10079000CCF8001034E000BF2EF0010110292FD159
:1007A000DCF80010BEF1100F41F40001CCF800108D
:1007B00026D140F21001C2F2000109684DF68362B1
:1007C000C4F21B32A1FB0212910C01EB8101490022
:1007D00000910099A1B1009901390091009979B176
:1007E000009901390091009951B1009901390091A6
:1007F000009929B100990139009100990029EAD1A5
:10080000002180F83C10084601B070BD7047000020
:100810007047000070B50446006806684568B10777
:1008200017D515F0200114D0216CC90603D4216C12
:1008300041F400712164816811F0405F02D1217E92
:10084000002969D02046FFF7E1FF20686FF0120110
:100850000160710714D515F0800111D0216CC90613
:1008600003D4216C41F400512164816811F4401FCC
:1008700022D02046FFF728FF20686FF00C010160AE
:10088000F10706D015F040011CBF01685FEAC17195
:1008900034D1B1060FD515F0806108BF70BD616C11
:1008A0006FF0200541F00201616405602046FFF70A
:1008B000AFFF2068056070BD816B11F4401F02D04E
:1008C00081684905D5D441684905D2D4816811F0C1
:1008D000405FCED1217E0029CBD1416821F080013B
:1008E0004160206C20F480502064206CC005C0D48E
:1008F000206C40F001002064BBE700BF206C40F496
:1009000080302064204600F0D1F820686FF00101AB
:100910000160B106BFD4CEE7C16A11F4700F03D0F5
:10092000816849053FF58EAF416821F020014160A3
:10093000206C20F480702064206CC0043FF582AFEE
:10094000206C40F0010020647CE70000002804BF18
:100950000120704710B50446006C00283ED0206C82
:10096000C00645D4206C41F202118843023042F2A5
:1009700004312064C4F20101086820F440300860AA
:100980000A6894E809101A43D4F810E00A60416834
:10099000012321F4807141604168C0F6007341EA8F
:1009A0000E214160416821F040714160416841EA97
:1009B0000C014160816821F400618160E168826816
:1009C00011438160A16A8268994222F0706282605C
:1009D000826813D122F0405119E000BF204600F098
:1009E00067F80020606484F83C00206CC006B9D52C
:1009F0000120002184F83C1010BD00BF114381602C
:100A0000816821F040518160E16A82681143816010
:100A1000816821F0020181608168227E94F8203093
:100A200041EA42018160416883B141F40061416063
:100A300041684EF2000221F460414160616ACFF6E4
:100A4000FF72436802EB4131194301E021F4006178
:100A50004160C16A40F2000C21F47001C162E26998
:100A60006169CFF6F07CC36A0CEB02521A43C26292
:100A7000826822F40072826094F83020836843EA2E
:100A800042228260826822F480628260826842EA46
:100A90008121816000206064216C012262F30101E8
:100AA0002164002184F83C1010BD00007047000054
:100AB000B0B582B00446006842F20001C4F2010100
:100AC00088421CBF02B0B0BD002043F64401019033
:100AD000C4F202010A6841F60C5542F480720A60C1
:100AE0000968C2F2000501F480710191019946F292
:100AF0001041C4F202014FF48062C5E9001005F113
:100B000010014FF400634FF4005C4FF4807E81E8E5
:100B10000C504FF48031C5E90200C5E908102846A1
:100B200000F04EF9002818BFFFF7CAFD122001217E
:100B30000022A563AC6300F0A9FB122002B0BDE85F
:100B4000B04000F093BB000070B5866D044600F025
:100B5000E3FA94F8351002292ED105462068216C5D
:100B6000026822F016020260426922F080024261AD
:100B700009B9A16C19B1016821F00801016001688F
:100B800021F0010101600068C00708D000F0C4FA3C
:100B9000401B052818D820680068C007F6D1E06D12
:100BA0003F2101FA00F0B060012084F835000020F8
:100BB000002184F8341070BD802060650120002180
:100BC00084F8341070BD00BF20206065032084F8D5
:100BD0003500002184F8341070BD000090F8351005
:100BE000022909D1052180F835100068016821F03B
:100BF000010101600020704780214165012070479C
:100C0000F0B581B004460020009040F21000C2F21E
:100C100000000268D4E9166048F2B513376808216D
:100C2000C1F64E3381403942A2FB03250CD0226825
:100C300013685B0708D5136823F004031360B160E1
:100C4000616D41F00101616501218140394208D0A7
:100C500022685269120604D5B160616D41F002014B
:100C6000616504218140394208D0226812689207E8
:100C700004D5B160616D41F00401616510218140CE
:100C8000394217D020680268120713D5B160026894
:100C90000168520308D4C90508D4016821F008018D
:100CA0000160216C21B905E0080343D4216C09B12E
:100CB00020468847E16D202000FA01F23A4245D0F3
:100CC00020680368DB0641D5B26094F835300268CD
:100CD000052B1FD122F016020260426922F0800229
:100CE0004261226C0AB9A26C1AB1026822F00802B1
:100CF00002603F208840B060012084F83500216DFB
:100D00000020002984F8340058D02046884701B0DC
:100D1000F0BD00BF0168520310D4C90512D40168A8
:100D200021F010010160012084F83500002084F8D2
:100D3000340007E0A16C0029BAD1BBE7080301D455
:100D4000616C00E0E16B09B120468847606DA8B393
:100D5000606DC0072ED0052084F835002068A90AF0
:100D6000026822F001020260009A01328A42009277
:100D70001AD80268D20717D0009A01328A4200922C
:100D800012D80268D2070FD0009A01328A4200922C
:100D90000AD80268D20707D0009A01328A4200922C
:100DA00002D80268D207DFD1012084F83500002084
:100DB00084F83400E16C09B12046884701B0F0BDE9
:100DC0002DE9F041044600F0A7F9002C4ED005466D
:100DD000022084F835000020216884F83400086877
:100DE00020F0010008600868C00708D000F094F9FE
:100DF000401B05286CD821680868C007F6D1086830
:100E000048F23F02CFF21002D4E90135024004F16A
:100E10000C0E9EE8C1511A432A4310433043384315
:100E200040EA0800626A40EA0C00042A40EA0E0325
:100E300020D1D4E90A5E206B4EEA03021043086019
:100E40004869BEF1000F20F0030040EA050040F0C1
:100E5000040C15D0B8F5005F42D0B8F1000F51D1A5
:100E6000022D52D0012D47D055B94EE00120BDE8EA
:100E7000F08100BF0B60486920F0070040EA020CD7
:100E80006FF00F004AF6AB2250FA81F0CAF6AA22A0
:100E9000A0FB02231A0943F27E63C0F600039A5CAA
:100EA00040F2FF335F284FF03F00C1F814C021EA41
:100EB000030100FA02F088BF0431C4E91612886009
:100EC000002301220020636584F83520BDE8F0810D
:100ED000032220230320636584F83520BDE8F081D8
:100EE000032DCDD8012240230120DFE805F0030EB9
:100EF000030500BFE7E700BFAEF1C070B0FA80F0B5
:100F0000400904E0032D04D3BAD1CEF300600028D9
:100F1000B6D0012240230120636584F83520BDE866
:100F2000F08100007047000043F61441C4F2010153
:100F30000A68024214BF08607047FFF7F3BF000061
:100F40002DE9F04F82B000F13E4241F6004502F13A
:100F5000FF77C4F2020508224FEAB726A84208BF6D
:100F60000722072E38BF4FEAB7224FF0010A0024AC
:100F700000274FF00008009208E000BF023708F198
:100F80000108202F04F1040400F0B4800E680AFA6E
:100F900008F916EA090FF1D0D1F804A00AF0030B02
:100FA000ABF10106012E17D80322866802FA07FE6C
:100FB000CA6826EA0E06BA40324382604268CAF323
:100FC000001522EA090205FA08F54FEA480C6FEA13
:100FD0000E062A4342600BE00322BA40D643BBF11F
:100FE000030FBC4604D1BC464FF0030B22E000BF08
:100FF000C2688D68324005FA0CF52A43BBF1020F36
:10100000C26017D16FF0030202EA5802024404F0F2
:101010001C030F25D2F820E005FA03FA0D692EEA29
:101020000A0E05FA03F343EA0E031362D1F804A093
:101030000AF0030B02680BFA0CF332401A431AF45D
:10104000403F4FF0010A026098D0002243F644036B
:101050000192C4F202031A6843F6004E42F4804241
:101060001A601A68C4F2010E02F480420192019AD9
:1010700028F003024FF6084C7244CFF6FF7C52F87A
:101080000C3004F00C060F25B540AB43009D05FA6B
:1010900006F6334342F80C30DEF808204B6842EA8B
:1010A000090643F60C4CDD0258BF22EA0906CEF8C9
:1010B0000860C4F2010CDCF800209D0242EA090637
:1010C00058BF22EA0906CCF80060DEF804209D0330
:1010D00042EA090658BF22EA0906CEF80460DEF8A3
:1010E0000020DB0342EA090658BF22EA0906CEF8CF
:1010F000006043E702B0BDE8F08F0000426902EAF9
:101100000103914341EA034181617047002A08BF0E
:10111000090481617047000042F23020C2F20000F1
:101120000068704740F2080042F23021C2F200002D
:10113000C2F2000100780A6810440860704700009D
:1011400080B543F60040C4F20200016841F400712A
:101150000160016841F480610160016841F48071BF
:101160000160032000F0BEF80F2000F005F800F049
:1011700061F8002080BD000070B586B0002543F600
:1011800040010195C4F202010A68044642F01002CF
:101190000A60096801A801F01001019101996946EE
:1011A00000F060F9049E002E18BF012600F07AF9C5
:1011B0004DF68361B040C4F21B31A0FB01014FF03A
:1011C000FF3000EB914141F66C5041F20002C2F257
:1011D0000000C4F2000240F2E733C0E90021C0E998
:1011E00002530561856100F07BFB054610B128467E
:1011F00006B070BD41F66C50C2F2000000F0A0FBDA
:1012000005460028F3D1362000F030F80F2C0DD819
:10121000362021460022002500F038F840F20C006C
:10122000C2F200000460284606B070BD01252846C1
:1012300006B070BD82B0002043F640010190C4F2B8
:1012400002014A6842F480424A604A6802F48042DD
:101250000192019A0090086840F080500860086888
:1012600000F080500090009802B07047002848BFFE
:10127000704700F01F01012202FA01F14EF2001244
:101280004009CEF2000242F82010704710B54EF629
:101290000C5CCEF2000CDCF80030C3F3022E8EF0B2
:1012A0000704042C28BF0424BEF103034FF0FF3EC3
:1012B0000EFA04F438BF0023A14399400EFA03F359
:1012C0009A4300F00F03043B1143634409010C33BC
:1012D00000F16042B0F1FF3FC8BF02F564431970EE
:1012E00010BD00004EF60C51CEF200010A684FF618
:1012F000FF031A4060F30A2242F0806040F0FD7064
:10130000086070472DE9F041002800F08B8043F61B
:101310000808C4F202080446D8F8F8030D4600F0A5
:101320000700884207D288F8F853D8F8F80300F08D
:101330000700A84276D12068810717D5410705D557
:10134000D8F8001041F4E051C8F80010010705D5A5
:10135000D8F8001041F46041C8F80010D8F8001027
:10136000A26821F0F0011143C8F80010C0073FD176
:10137000D8F8F80300F00700A84207D988F8F85316
:10138000D8F8F80300F00700A8424BD120684107C5
:1013900007D5D8F80010E26821F4E0511143C8F8ED
:1013A0000010000708D5D8F80000216920F460403B
:1013B00040EAC100C8F8000000F09CF8D8F800101E
:1013C00043F26662C1F30311C0F60002515C40F2C1
:1013D000100220FA01F140F20C00C2F20000006895
:1013E000C2F200021160FFF7C7FE0020BDE8F081E5
:1013F0006068811E022907D258F8081C89015CBF69
:101400000120BDE8F08111E0012807D158F8081C3F
:1014100089035CBF0120BDE8F08107E058F8081C93
:10142000890703D40120BDE8F08100BFD8F800107F
:1014300021F003010843C8F80000FFF76DFE0646DF
:1014400041F28837D8F80000616800F00C00B0EB7A
:10145000810F8DD0FFF760FE801BB842F2D90320C8
:10146000BDE8F0810F22026043F60802C4F20202D6
:10147000136803F003034360136803F0F003836011
:10148000136803F4E053C360D2F800C04FF4E05394
:1014900003EADC030361D2F8F80300F007000860F8
:1014A0007047000040F2100043F60801C2F200004D
:1014B000C4F202010068096843F27662C1F3822136
:1014C000C0F60002515CC8407047000040F21000B6
:1014D00043F60801C2F20000C4F202010068096884
:1014E00043F27662C1F34231C0F60002515CC8405B
:1014F0007047000010B543F60404C4F202046068AB
:1015000000F00C0142F200400829C0F2F40007D0BC
:10151000042918BF10BD41F20020C0F27A0010BDAE
:10152000216801F03F02216823684902C3F3881152
:1015300006D4A1FB00010023FEF786FF07E000BFF1
:1015400041F20020C0F27A004843B0FBF2F021687B
:101550000222C1F3014102EB4101B0FBF1F010BDE9
:101560002DE9F04182B000286AD00446007843F6A5
:101570000006C007C4F202060BD0B06800F00C00F1
:10158000042840F0A1803068800302D560680028FC
:1015900056D0207880071AD5B06810F00C0F09D00B
:1015A000B06800F00C00082840F0A8807068400285
:1015B00000F1A4803068800702D5E06801283FD19F
:1015C0003068216920F0F80040EAC10030602078DE
:1015D000000739D4207840074ED4A5695DB3B068C0
:1015E00000F00C00082840F0BD80012D28D0706864
:1015F000E16900F480028A4222D1216A00F03F02B0
:101600008A421DD147F6C071626A0140B1EB821F68
:1016100016D1A26A0023CFF6FF7303EBC23200F4A7
:1016200040316FF30F0291420AD1E16A00F070601D
:10163000B0EB016F04D1002002B0BDE8F08100BF23
:10164000012002B0BDE8F0816069002840F200008E
:10165000C4F2472076D00121C0F8801EFFF75CFD60
:10166000054600BF706F8007B4D4FFF755FD401BDF
:101670000228F7D9DDE000BF306C10F080580AD1A5
:1016800000200190306C40F080503064306C00F0ED
:1016900080500190019847F20007C4F200073868B3
:1016A000C00541D4386840F480703860FFF734FDDD
:1016B000054600BF3868C00536D4FFF72DFD401B36
:1016C0000228F7D9B5E000BFB06800F00C00082888
:1016D00003D1706840023FF556AF6068B0F5803FB7
:1016E00007D0B0F5A02F40F08D80306840F4802006
:1016F0003060306840F4803030608DE0E068002871
:1017000052D00020C4F2472001210160FFF704FD00
:10171000054600BF306880073FF552AFFFF7FCFC7D
:10172000401B0228F6D984E0A068012805D00528CE
:101730004ED1306F40F004003067306F40F0010050
:1017400030674FE00021C0F8801EFFF7E5FC05463A
:10175000706F80077FF53EAFFFF7DEFC401B02286D
:10176000F6D966E00027C4F2472700203866FFF765
:10177000D3FC022D05460BD1306880015ED5FFF702
:10178000CBFC401B02284FF00300F5D954E700BF03
:10179000306880017FF54FAFFFF7BEFC401B022889
:1017A0004FF00300F4D947E70020C4F2472000219E
:1017B0000160FFF7B1FC0546306880077FF507AF91
:1017C000FFF7AAFC401B02284FF00300F4D933E7CF
:1017D000316F002821F001013167316F21F00401E0
:1017E00031674DD0FFF798FC054641F2883700BFBE
:1017F000306F800756D4FFF78FFC401BB842F7D9F3
:1018000017E000BF3168002821F480313160316871
:1018100021F4802131604FD0FFF77EFC054600BFE8
:10182000306880033FF5B5AEFFF776FC401B6428B7
:10183000F6D9032002B0BDE8F08100BF04F11C0519
:101840002FCD08430021CFF6FF7140EA821001EB53
:10185000C3316FF30F0140EA056008437060012057
:101860003866FFF759FC0446306880013FF5E3AE67
:10187000FFF752FC001B02284FF00300F4D9DBE60F
:10188000FFF74AFC054641F2883700BF306F8007FA
:1018900008D5FFF741FC401BB8424FF00300F5D9D3
:1018A000CAE600BFB8F1000F7FF497AE306C20F0AD
:1018B0008050306491E600BFFFF72EFC054600BF64
:1018C000306880037FF565AEFFF726FC401B642877
:1018D0004FF00300F4D9AFE67047000070470000F6
:1018E000002804BF0120704710B5044690F83D0061
:1018F00028B9002084F83C00204600F01FF80220A0
:1019000084F83D002068211D00F01CFF012084F8B0
:10191000460084F83E0084F83F0084F8400084F8D4
:10192000410084F8420084F8430084F8440084F8BD
:10193000450084F83D00002010BD00007047000005
:1019400090F83D1001291CBF01207047022180F84A
:101950003D10006841F2FF72C168C4F2000290427B
:1019600041F00101C1600DDC40F2FF71C4F20001E1
:10197000884215DCB0F1804F2AD040F20041C4F219
:10198000000123E040F2FF31C4F20101884213DC80
:1019900041F60001C4F20001884219D0002113E091
:1019A00040F60001C4F20001884211D040F6004127
:1019B000C4F200010AE000BF44F20001C4F20101D8
:1019C000884205D040F20041C4F20101884206D1AC
:1019D000816801F00701062904BF002070470168F3
:1019E00041F00101016000207047000070470000D5
:1019F000B0B504460068C168026902EA0105A9079A
:101A000020D4680734D428074AD4E80660D4E8070D
:101A100077D1280600F17F80680606D520686FF030
:101A200040010161204600F08FF8A80658BFB0BD04
:101A300021686FF0200220460A61BDE8B040FFF740
:101A40004DBF00BF6FF00201016101212177806964
:101A5000800703D02046FFF7C9FF05E0204600F0CD
:101A600065F8204600F064F8002020776807CAD5A2
:101A700020686FF00401016102212177806910F470
:101A8000407F03D02046FFF7B1FF05E0204600F07D
:101A90004DF8204600F04CF8002020772807B4D5F8
:101AA00020686FF00801016104212177C069800777
:101AB00004D02046FFF79AFF06E000BF204600F062
:101AC00035F8204600F034F800202077E8069ED54F
:101AD00020686FF01001016108212177C06910F4BE
:101AE000407F03D02046FFF781FF05E0204600F04D
:101AF0001DF8204600F01CF800202077E8073FF48E
:101B000088AF20686FF001010161204600F012F8F3
:101B100028067FF581AF20686FF0800101612046C3
:101B2000FFF7DAFE68067FF580AF77E770470000C1
:101B300070470000006841F20001C4F200018842D1
:101B400008BFFFF7EFBA70477047000081B090F808
:101B50004230202B08D100294FF0010318BF002A82
:101B600006D1184601B070470223184601B07047ED
:101B70000123036300234363816222218285C2859E
:101B8000436480F84210026901681AB1CA6842F4DD
:101B90008072CA604A6942F001024A61CA6842F032
:101BA0002002CA60026B012A38D1002300930A6820
:101BB00000924A680092009A51E8031FD0F800C0D2
:101BC00041F010014CE80312002ACAD0016851E824
:101BD000031F026841F0100142E8031313B30168C8
:101BE00051E8031F026841F0100142E80313CBB132
:101BF000016851E8031F026841F0100142E8031335
:101C000083B1016851E8031F026841F0100142E806
:101C10000313002B4FF00003D8D1A2E7012318468D
:101C200001B070470023184601B0704710B540F26C
:101C3000A004C2F20004012004F80C0B41F2706011
:101C4000C2F20000043021466422FEF72EFC41F669
:101C5000B450C2F2000021461422BDE81040FFF744
:101C600075BF000070470000B0B582B0056804463B
:101C70002968EA68686901F02F03202B02F020032D
:101C800006D12BB1204602B0BDE8B04000F006BE40
:101C90005FEA017C1EBF00F0010E02F4907010EBB1
:101CA0000E002FD1236B02EA0100C10618D5012BCB
:101CB00016D1002001902868019068680190019871
:101CC0006869400628D4A08DE18DE28D002A1CBFF2
:101CD000411A5FEA014040F0D78102B0B0BD00BFB9
:101CE000010600F1D3804006F7D5E868202120F0F6
:101CF0004000E860204684F8411002B0BDE8B040E2
:101D000000F0A4BBC80718BF12F4807040F0D28066
:101D1000480700F1D580DAE0E06B01684A6893B2C9
:101D2000002BDAD0A18D8B42D7D2E285C069B0F505
:101D3000807F00F0A08055E8030F216820F48070B8
:101D400041E80302F2B1206850E8030F216820F453
:101D5000807041E80302AAB1206850E8030F2168AF
:101D600020F4807041E8030262B1206850E8030F5C
:101D7000216820F4807041E803021AB1206850E81D
:101D8000030FDAE7206850E8050F216820F0010012
:101D900041E80502BAB3206850E8050F216820F039
:101DA000010041E8050272B3206850E8050F216880
:101DB00020F0010041E805022AB3206850E8050F31
:101DC000216820F0010041E80502002ADAD11AE07A
:101DD000206850E8050F216820F0400041E8050226
:101DE000DAB1206850E8050F216820F0400041E892
:101DF000050292B1206850E8050F216820F04000EC
:101E000041E805024AB1206850E8050F216820F03A
:101E1000400041E80502002ADAD1202084F842007F
:101E200000202063206850E8030F216820F0100094
:101E300041E80302DAB1206850E8030F216820F07E
:101E4000100041E8030292B1206850E8030F2168B6
:101E500020F0100041E803024AB1206850E8030F67
:101E6000216820F0100041E80302002ADAD1E06B7B
:101E7000FEF76AFEA18D02206063E08D081A81B230
:101E8000204602B0BDE8B040FFF7D0BE94F8410054
:101E900021287FF422AFA068B0F5805F03D12069CC
:101EA000002800F08981206A411C21620078686066
:101EB00089E100BF606C40F001006064480706D50E
:101EC000BEF1000F03D0606C40F002006064880730
:101ED00006D5BEF1000F03D0606C40F004006064D2
:101EE000BCF1000F06D55EEA030003D0606C40F041
:101EF00008006064606C00283FF4EFAE02EA010065
:101F0000800603D5204600F0C9FC25686869616C2D
:101F100000F0400001F00801401800F0AD8055E8E5
:101F2000030F00BF216820F4907041E80302D2B390
:101F3000206850E8030F216820F4907041E8030204
:101F40008AB3206850E8030F216820F4907041E8BC
:101F5000030242B3206850E8030F216820F4907018
:101F600041E80302FAB1206850E8030FDAE700BF46
:101F7000206850E8050F216820F0010041E80502C3
:101F8000DAB1206850E8050F216820F0010041E82F
:101F9000050292B1206850E8050F216820F0010089
:101FA00041E805024AB1206850E8050F216820F099
:101FB000010041E80502002ADAD1206B012824D172
:101FC000206850E8030F216820F0100041E8030268
:101FD000DAB1206850E8030F216820F0100041E8D2
:101FE000030292B1206850E8030F216820F010002E
:101FF00041E803024AB1206850E8030F216820F04D
:10200000100041E80302002ADAD1202084F84200BF
:102010000020206320684169490640F1C78050E8EC
:10202000050F216820F0400041E80502002A00F079
:10203000AB80206850E8050F216820F0400041E89F
:102040000502002A00F0A080206850E8050F2168F2
:1020500020F0400041E80502002A00F09580206849
:1020600050E8050F216820F0400041E80502002AF1
:1020700000F08A802068D2E72046FFF7F3FD0020B9
:10208000606402B0B0BD00BF55E8030F226820F4C1
:10209000907042E80303D3B3206850E8030F22682E
:1020A00020F4907042E803038BB3206850E8030FDC
:1020B000226820F4907042E8030343B3206850E89C
:1020C000030F226820F4907042E80303FBB12068FC
:1020D00050E8030FDAE700BF206850E8050F2268D8
:1020E00020F0010042E80503DBB1206850E8050F4D
:1020F000226820F0010042E8050393B1206850E80F
:10210000050F226820F0010042E805034BB120686A
:1021100050E8050F226820F0010042E80503002B7B
:10212000DAD1202084F8420000202063206850E8A3
:10213000030F226820F0100042E80303DBB120689F
:1021400050E8030F226820F0100042E8030393B127
:10215000206850E8030F226820F0100042E80303D3
:102160004BB1206850E8030F226820F0100042E8CD
:102170000303002BDAD1022289B22046626302B047
:10218000BDE8B040FFF752BDE06B78B142F6910177
:10219000C0F600010165FEF721FD00283FF49DAD6A
:1021A000E06B016D02B0BDE8B0400847204602B0C8
:1021B000BDE8B040FFF756BD206A30F8021B6FF350
:1021C0005F2169602062E08C01380104E0847FF4C3
:1021D00084ADE86820F08000E860E86840F04000E6
:1021E000E86002B0B0BD0000002804BF01207047C5
:1021F00010B5044690F8410028B9002084F840004A
:10220000204600F021F8242084F841002068C168AD
:1022100021F40051C160204600F0C2FB2068016932
:1022200021F490410161416921F02A014161C168B5
:1022300041F40051C16000202021606484F8411005
:1022400084F84210606310BD80B586B0016844F226
:102250000040C4F20000814202D006B080BD00BF41
:10226000002143F630020191C4F20202136900F525
:10227000DE3043F400331361136903F40033019338
:10228000019B0191136843F001031360126802F08F
:1022900001020192019A0C2201920222CDE902214F
:1022A000032104910721059101A9FEF749FE26208B
:1022B00000210022FEF7EAFF2620FEF7D7FF06B036
:1022C00080BD0000704700002DE9F041044690F801
:1022D000410020281CBF0220BDE8F0810F460029E4
:1022E0004FF0010000F0B0801646002A08BFBDE89C
:1022F000F0814FF0000821201D46C4F8448084F886
:102300004100FEF709FFA684E684A1680646B1F500
:10231000805F05D12069002814BF3846B8460746BB
:10232000E08CC8B1681C19D0002D5FD120680AE08C
:1023300038F8021B00276FF35F214160E18C0139FF
:10234000E184E18C51B3016809066FD5002FEFD00D
:1023500017F8011BF1E700BF20681FE0206802E0CA
:102360000168090609D4016809065FBF01685FEAD0
:10237000016101685FEA0161F2D51FB117F8011B25
:1023800005E000BF38F8021B00276FF35F214160B2
:10239000E18C0139E184E18C0029E4D1016849062E
:1023A00011D4002D4AD0691C19D100BF016849061B
:1023B0005FBF01685FEA416101685FEA416102D481
:1023C00001684906F2D5202084F841000020BDE8CC
:1023D000F08100BF2068C16800684006F3D4FEF7B2
:1023E0009BFE801BA842F5D92AE000BF206800BFF1
:1023F0000168090608D4FEF78FFE801BA84217D893
:102400002068C168F4E700BF17B117F8011B04E0AA
:1024100038F8021B00276FF35F214160E18C01391E
:10242000E184E18C0029E3D1B8E700BFFEF774FE38
:10243000202084F841000320BDE8F081FEF76CFE07
:10244000202084F841000320BDE8F081704700009F
:10245000FEE7000010B584B041F6C440012200211F
:10246000C2F2000042F2000CC0F60072C4F2010C8D
:102470004FF480330124C0E90A210222039104763B
:1024800080F82010C26180F83010C0E900C3C0E9B4
:102490000211C0E90444FEF759FA002818BFFEF7FC
:1024A0000FF91020CDE900040720029041F6C44046
:1024B000C2F200006946FEF709F9002818BFFEF7CE
:1024C000FFF8112000900220019041F6C440C2F2B2
:1024D00000006946FEF7FAF8002818BFFEF7F0F88A
:1024E00004B010BD80B582B00020019043F63000EA
:1024F000C4F202000168002241F48001016000681A
:10250000002100F48000019001983820FEF7BEFE03
:10251000382002B0BDE88040FEF7A8BE2DE9F04F9C
:1025200087B0002643F63000CDE905660196C4F277
:102530000200016840F2000841F08001016001687A
:10254000C4F2020801F0800101910199019601682D
:1025500008F5006541F0010101600168002201F009
:10256000010101910199019601684FF0200A41F0A3
:1025700004010160016801F00401019101990196D3
:10258000016841F0020101600068202100F00200B2
:10259000019001982846FEF7B9FD08F580642046B1
:1025A000042100224FF00409FEF7B0FD4FF488101B
:1025B0000390022002AF4FF0010B049040463946D1
:1025C000CDF808B0FEF7BCFC122002904FF40410C6
:1025D000CDE9030B40463946FEF7B2FC28463946A2
:1025E000CDE902ABCDE90466FEF7AAFC20463946E8
:1025F000CDE9029BCDE90466FEF7A2FC062002218C
:102600000022FEF743FE0620FEF730FE07200321DE
:102610000022FEF73BFE0720FEF728FE0A200221DB
:102620000022FEF733FE0A20FEF720FE07B0BDE8C9
:10263000F08F000000F08CBA80B541F6B45044F23F
:102640000041C2F20000C4F2000100234FF00C0C64
:102650004FF4E13280E80E00C0E90333C0E905C35E
:10266000C361FFF7C1FD002808BF80BDBDE8804001
:10267000FEF726B8FEE70000FEE70000B0B592B016
:10268000002443F64000CDE90A44CDE9084405940E
:10269000CDE90344CDE901440094C4F2020001688D
:1026A000022541F080510160006800F080500090E8
:1026B000009847F200000094C4F20000016841F461
:1026C000804101600068A82100F4804000900098DB
:1026D000012006904FF4803007904FF480000D9059
:1026E00004200E90119006A80C95CDE90F15FEF769
:1026F00037FF18B172B600BFFEE700BF0F20CDE96B
:1027000001054FF4A05004904FF48050059001A8AB
:1027100005210394FEF7F6FD10B172B6FEE700BF87
:1027200012B0B0BD4EF68850CEF20000016841F400
:10273000700101607047000041F66C50C2F2000069
:10274000FFF756B910B540F6FF3E0368C4F2000E1D
:1027500040F2004C7045C4F2010C27DCB0F1804F10
:1027600031D040F20042C4F2000290422BD040F639
:102770000002C4F20002904225D041F6FF72C4F27A
:102780000002904229DC70453CDCB0F1804F5FD004
:1027900040F20042C4F20002904259D040F60002DA
:1027A000C4F20002904253D056E000BF40F600420F
:1027B000C4F20002904206D0604504D00022C4F268
:1027C00001029042D9D14A6823F07003134341F6C5
:1027D000FF72C4F200029042D5DD43F6FF72C4F2EC
:1027E0000102904222DC42F20002C4F20002904256
:1027F0002ED00022C4F20102904229D0604527D099
:102800002AE000BF40F60042C4F2000290421FD00E
:1028100041F60002C4F20002904219D041F6004293
:10282000C4F20002904213D016E000BF44F200024E
:10283000C4F2010290420BD044F60002C4F201023D
:10284000904205D044F20042C4F20102904203D10A
:10285000CA6823F44073134323F080024B69D1F814
:1028600000E08C681A430260C46240F48062C0F8E1
:1028700028E0624504BF09690163012141610169E2
:10288000C90708BF10BD016921F00101016110BD38
:10289000806B0021C185C184FFF7E4B981B090F855
:1028A0004210222920D18368B3F5805F08D10169E5
:1028B000002957D000F128010A6803685B680AE024
:1028C000014651F8282F13B90369002BF5D003688E
:1028D0005B6803F07F0313700A6801320A60C18DE0
:1028E00001390A04C18501D001B070470168CA6886
:1028F00022F02002CA60CA6822F48072CA604A6963
:1029000022F001024A61202280F842200022426324
:10291000036B012B30D1026351E8031F026821F0E1
:10292000100142E803135BB3016851E8031F02681A
:1029300021F0100142E8031313B3016851E8031FAB
:10294000026821F0100142E80313CBB1016851E89D
:10295000031F026821F0100142E8031383B10168EC
:10296000DAE700BF0168826A49686FF35F2122F8E5
:10297000021B8262B3E700BF01B0FFF7A3BC00BF38
:1029800001680A68D20606D5002200920A68009201
:10299000496800910099818D01B0FFF747B90000A7
:1029A00010B504460068D4E902C22369016921F424
:1029B000405111430161626943EA0C01E36911432B
:1029C000C268194349F20C639A431143C1604169DB
:1029D000A26921F4407141F20043114340F4806246
:1029E000C4F201039A42416102D1FEF76FFD01E09A
:1029F000FEF758FDE16963681922B1F5004FA0FBAD
:102A000002011FD15A00DB0FFDF71EFD48F21F51D6
:102A1000C5F2EB11A0FB01235A096FF0630302FB1F
:102A20000300322303EBC000A0FB01014FF4F87058
:102A300000EA111000EB0210C1F3421122680843B2
:102A4000906010BD9A009B0FFDF7FEFC48F21F51ED
:102A5000C5F2EB11A0FB01235A096FF0630302FBDF
:102A60000300322303EB0010A0FB0101F02000EA79
:102A7000511000EB0210C1F343112268084390602B
:102A800010BD000041F6B450C2F20000FFF7ECB8F0
:102A9000FEE70000F0B581B00F4634211D46164612
:102AA0000446FDF71BFD25F00300A0F10801A1601D
:102AB0000221C4E90660E16030444EF6EE616760D1
:102AC000C4E9046640F8086DCFF6FF714460C6E9BA
:102AD000000145F245410020C4F259212062EFF384
:102AE000108072B6216040F23C01C2F200010A6817
:102AF00040F23803C2F2000332B11F683E6B3C6300
:102B000006F12C0302E000BF2746264601321C6076
:102B1000C4E90B760A6080F31088002001B0F0BD94
:102B200080B500F0DDF800F055FB40F21800C2F26D
:102B300000000021C0E90011C0E90211C0E9041140
:102B4000C0E90611C0E90811C0E90A1180BD000002
:102B500010B540F21404C2F20004206810F10F3FD7
:102B60000DD04FF0F0302060FDF73AFBFFF7D8FFB3
:102B700040F26000C2F200000168013101604FF0D4
:102B8000F030206041F20C70C2F20000006800F0EA
:102B900031FD00202060BDE81040FDF769BB00005A
:102BA0002DE9F04F81B0DDE90A5993460F46DDF873
:102BB00038A00C9E044628464946EF229846FDF769
:102BC00086FC2046B021FDF789FC09EB050101399F
:102BD000C4E903510D9920208E423146C4E911B851
:102BE000C4E90A76C4E9059AC4F81CA018BF0021FC
:102BF000C4F89C000320206343F27910E163C4E928
:102C00002561C0F6000042F61951C4E91504C0F66A
:102C100000012046FDF794FB45F24421C5F24841EE
:102C2000EFF3108072B6216040F25C01C2F2000145
:102C30000A6840F25803C2F200033AB11F68D7F89D
:102C40008C60C7F88C4006F1880301E027462646D1
:102C500001320A6040F260011C60C4E92276C2F2CF
:102C600000010F9D0A68012D02F101020A6019D1CD
:102C700040F21401C2F200010968EFF3058211432A
:102C8000B1F1F03F4FF000051CD340F24C01C2F20D
:102C9000000109680026B1B1CA6ACE6B0D46CA634D
:102CA00011E000BF80F31088EFF3108072B60A685D
:102CB000013A0A6080F3108800F0A6F8002001B005
:102CC000BDE8F08F002680F31088204600F0C2F89F
:102CD000002D18BFEE63002001B0BDE8F08F0000AA
:102CE000B0B540F24804C2F2000400252020C4E937
:102CF000025041F21070C2F200008021C4E9005578
:102D0000FDF7ECFBC4E90455A561206AE56140F0DC
:102D100085702062B0BD000010B540F24800C2F2DC
:102D200000000468D4E91110884740F26400C2F240
:102D30000000016809B1204688470121EFF31080A7
:102D400072B62163A1630021E16440F26001C2F226
:102D500000010A6801320A6080F31088EFF31480E2
:102D600020F0040080F314882046BDE8104000F0F5
:102D70000BB9000010B540F24802EFF3108172B6B3
:102D8000C2F2000214686CB140F21402C2F20002F6
:102D90001268EFF305831A4308D081F310881320DB
:102DA00010BD00BF81F31088132010BD41F614023E
:102DB000C2F2000294420BD070B140F26002C2F243
:102DC0000002136863B181F31088132010BD00BFA7
:102DD00081F31088132010BD81F31088002010BDEE
:102DE000042323630123A3630023C4F88430E06435
:102DF00010680130106081F31088204600F0C4F89C
:102E0000D4F8840010BD000040F26000C2F200005F
:102E1000006808B1704700BF40F2480040F24C0122
:102E2000C2F20000C2F20001006809688842F1D0D5
:102E30004EF60450CEF200004FF080510160EFF3E7
:102E40000580002818BF7047EFF3108062B680F34A
:102E500010887047F0B581B0EFF3108572B6044664
:102E6000406E002804F14C0002D000F03FFA01E06F
:102E70000021016040F26000C2F2000001680139E7
:102E80000160A16B226B002940F24C01C2F20001EB
:102E900008D0013A022A0CD3626B32B90022A26335
:102EA000226306E02AB1626B22B30022032323636C
:102EB000626340F24802C2F20002126885F3108891
:102EC00009688A4201D0006810B101B0F0BD00BFAE
:102ED0004EF60450CEF200004FF080510160EFF347
:102EE00005800028F1D1EFF3108062B680F31088DE
:102EF00001B0F0BDE26A41F2107CC2F2000C5CF855
:102F000022304FF0000EC4F830E02BB15A6A5C62F8
:102F10001462C4E90832CCE74CF8224040F2500E6B
:102F200040F2540CC2F2000EC2F2000C0123DEF893
:102F30000060DCF8007093403343BA42C4E90844AF
:102F4000CEF80030B5D20B68CCF80020D3B1DB6BE3
:102F50009A42AED20C6085F3108800680028B4D184
:102F60004EF60450CEF200004FF080510160EFF3B6
:102F700005800028A9D1EFF3108062B680F3108895
:102F800001B0F0BD0C6094E770B5044640F2480013
:102F9000C2F200000668EFF3108572B6A6420DD1AA
:102FA000204650F84C1F0131022928BF00F070F96B
:102FB000E06940F27001C2F20001086040F2600076
:102FC000C2F20000016840F24C0C01390160A16BB3
:102FD000C2F2000C012916D1236AE26A0021A34241
:102FE000A1631BD0616A41F2107E59620B62C2F28A
:102FF000000E5EF82210A14208BF4EF82230DCF825
:103000000010A1422AD085F31088DCF800108E420F
:1030100002D00068002845D070BD00BF41F2107397
:10302000C2F2000343F8221040F25003C2F2000340
:103030004FF0010E19680EFA02F29143002919604F
:1030400042D040F2540291FAA1F1C2F20002B1FA68
:1030500081F11160DCF80010A142D4D140F254019A
:10306000C2F20001096841F21072C2F2000252F885
:103070002110CCF8001085F3108800680028CBD10F
:103080004EF60450CEF200004FF080510160EFF395
:1030900005800028C0D1EFF3108062B680F310885D
:1030A00070BD00BF4EF60450CEF200004FF08051CC
:1030B0000160EFF30580002818BF70BDEFF31080AA
:1030C00062B680F3108870BD40F25401C2F2000174
:1030D00020220A600021CCF8001085F310880068D7
:1030E000002899D14EF60450CEF200004FF08051E6
:1030F0000160EFF3058000287FF48EAFEFF31080BE
:1031000062B680F3108870BD40F24800C2F2000041
:10311000016840F27402EFF3108072B6C2F200024E
:103120000023136009B10A6B12B180F31088704755
:10313000D1E9073240F2700CC2F2000C8A428B6176
:10314000CCF80030F1D0CB6AC96B8B42EDD140F2A4
:10315000540141F2107CC2F20001C2F2000C096875
:103160004CF823205CF8211040F24C02C2F200021D
:10317000116080F310887047EFF3108272B6016B14
:1031800004290BD140F26001C2F200010B68013347
:103190000B6082F31088FFF75DBE00BF836ED0F82E
:1031A000AC1082F31088002B08BF7047184700004E
:1031B00040F26001EFF3108072B6C2F200010A68BB
:1031C00001320A6080F3108841F61400C2F2000058
:1031D000FFF740BE2DE9F04387B041F2947640F20C
:1031E0006C04C2F2000644F64D18C2F20004002539
:1031F00030468021C4F254182560C4E90155C4E961
:103200000355FDF76BF941F6C40106F18000C2F2E7
:1032100000014FF4806204F11C0327C38DE82600EF
:1032200041F6140043F2866143F22932C2F20000F3
:10323000C0F60001C0F600024346C4E90566CDE9C8
:1032400003550595FFF7ACFCE0B141F6140943F2D4
:10325000866643F22937C2F20009C0F60006C0F6BE
:10326000000700BF04F1200207CACDE903258DE85D
:103270000700484631463A4643460595FFF790FC1D
:103280000028EFD1C4E90B5507B0BDE8F08300007A
:1032900001684A1C022A27D38269002A18BF704796
:1032A0004A1E202940F28401C2F20001096888BF49
:1032B0001F2201EB820140F28802C2F20002126872
:1032C00040F28003C2F200038A1A1B6828BF9918D3
:1032D0000A682AB1536950611861C0E9042302E009
:1032E000C0E904000860816170470000816900291D
:1032F00008BF70470269824208D0436953611A616E
:103300000B6883420AD00021816170470A688242BB
:10331000F9D100220A6000218161704791610A6041
:1033200000218161704700002DE9F04F83B044F621
:103330004D11C4F2541188421CBF03B0BDE8F08F98
:1033400040F2840640F2780440F27C0BC2F20006A0
:103350000027C2F200040DF10409C2F2000B0DF1C6
:10336000080804E0206800286AD081F31088EFF391
:10337000108072B631680A68002A029218BFC2F83B
:1033800018800F6040F288023168C2F200021268B1
:1033900004319142316005D140F28001C2F2000156
:1033A00009683160276080F31088EFF3108172B6EE
:1033B00005E000BF8AF31088EFF3108172B6029D1A
:1033C000002DCFD0286900228542019214D06A696D
:1033D000C0F81880426110612A680290212A10D337
:1033E000A2F120002860C5F818902D610195CBF856
:1033F000005081F3108816E000202A680290212AEC
:10340000EED2D5E90132E868002B2B600FBF002314
:103410002D6101954B46AB61CBF8005081F31088CC
:10342000002A18BF9047EFF3108A72B60198CBF8C4
:103430000070A842BED12846AF61FFF729FFB9E767
:1034400041F61400C2F2000003220263012240F29E
:1034500060038263C2F200031A6801321A6081F3CA
:103460001088FFF791FD82E72DE9F04381B0074610
:1034700000284FF0020000F09E8088460899342909
:1034800040F0998040F26000EFF3108172B6C2F212
:1034900000001546026899460132026081F31088E7
:1034A00040F23801C2F200010B68D91BB1FA81F178
:1034B0004FEA51162FD040F23C01C2F200010968D8
:1034C00049B30222DB6ADE1BB6FA86F64FEA5616CD
:1034D00021D0541E8C421ED2DB6ADE1BB6FA86F661
:1034E0004FEA561617D08A4215D2DB6ADE1BB6FAAF
:1034F00086F64FEA56160ED0541C8C420BD2DB6A6D
:10350000DE1BB6FA86F64FEA561604D0941C8C429F
:1035100002F10402D6D3EFF3108172B60268013AC9
:10352000026081F31088FFF76FFC1EB1022001B02A
:10353000BDE8F08335B1B9F1640F07D2052001B0C1
:10354000BDE8F083032001B0BDE8F08340F24800FD
:10355000C2F20000016840F21400C2F200000268EA
:10356000EFF305831A4315D041F614030068C2F245
:103570000003EFF3058202430020994208BF1320A5
:10358000B2F1F03F38BF1320994214D0B2F1F03FAE
:1035900006D210E041F61400C2F20000814209D0C8
:1035A000384641462A464B4601B0BDE8F043FFF796
:1035B00071BA00BF132001B0BDE8F083FDF7C0FD74
:1035C000FFF75CF8FEF7AAFFFEF78CFFFFF734F871
:1035D000FEF740FF41F6B45040F2AC01C2F20000E9
:1035E000C2F200011422FEF7B1FAFFF723F800BF80
:1035F000FEE7000080B582B041F6FC5041F6306233
:103600004FF0340CC2F200000AA1C2F200024FF4E3
:103610008063CDF800C0FFF727FF00281CBF02B071
:1036200080BD41F6FC50C2F2000002B0BDE880400F
:10363000FDF700B8547820417070206D656D6F7291
:103640007920706F6F6C000002E008C8121F08C17B
:10365000002AFAD170477047002001E001C1121F13
:10366000002AFBD1704700000000000000000102AA
:103670000304060708090000000001020304000615
:1036800010160006101653797374656D2054696D19
:10369000657220546872656164000000C0360008DD
:1036A000000000201800000048360008D836000846
:1036B00018000020202600005836000800000000F6
:1036C00000000108000004080100000010000000D4
:0836D0000024F400F0F0F0F01A
:040000050800018965
:00000001FF
