:020000040800F2
:1000000090050020C501000817250008F91900080F
:1000100015250008ED0200083B280008000000003C
:100020000000000000000000000000001B25000888
:100030008503000800000000192500081D250008A0
:10004000DF010008DF010008DF010008DF01000810
:10005000DF010008DF010008DF010008DF01000800
:10006000DF010008DF010008DF010008DF010008F0
:10007000DF010008F1020008DF010008FD020008AE
:10008000DF010008DF010008DF010008DF010008D0
:10009000DF010008DF010008DF010008DF010008C0
:1000A000DF010008DF010008DF010008DF010008B0
:1000B000DF010008DF010008DF010008DF010008A0
:1000C000DF010008DF010008DF010008DF01000890
:1000D000DF010008DF010008DF010008DF01000880
:1000E000DF010008DF010008DF010008DF01000870
:1000F000DF010008DF010008DF010008DF01000860
:10010000DF010008DF010008DF010008DF0100084F
:10011000DF010008DF010008DF010008DF0100083F
:10012000DF010008DF010008DF010008DF0100082F
:10013000DF010008DF010008DF010008DF0100081F
:10014000DF010008DF010008DF010008DF0100080F
:10015000DF010008DF010008DF010008DF010008FF
:10016000091A0008FD190008DF010008DF01000876
:10017000DF010008DF010008DF01000800000000C7
:10018000DF010008DF010008CD250008DF010008BD
:10019000DF010008DF010008DF010008DF010008BF
:1001A000DF010008DF010008DF010008DFF810D0E0
:1001B00000F08AF8004800477D280008AFF300806F
:1001C000900500200648804706480047FEE7FEE706
:1001D000FEE7FEE7FEE7FEE7FEE7FEE7FEE7FEE7F7
:1001E000BD250008AD0100082DE9F05F054600209F
:1001F00092469B4688460646814640241BE0284698
:1002000041464746224600F04EF853465A46C01A29
:10021000914110D311461846224600F035F82D1AA8
:1002200067EB01084F4622460120002100F02CF820
:1002300017EB00094E41201EA4F10104DFDC484603
:1002400031462A464346BDE8F09FD2B201E000F8AD
:10025000012B491EFBD270470022F6E710B513466A
:100260000A4604461946FFF7F0FF204610BD30B598
:1002700004460020034600E05B1C934203D2E05C8E
:10028000CD5C401BF8D030BD202A04DB203A00FAB8
:1002900002F1002070479140C2F1200320FA03F3DD
:1002A000194390407047202A04DB203A21FA02F0DB
:1002B0000021704721FA02F3D040C2F120029140A0
:1002C0000843194670470000064C074D06E0E068F9
:1002D00040F0010394E8070098471034AC42F6D38D
:1002E000FFF768FFC8280008E8280008FEE70000BC
:1002F000014800F0A9B8000088000020014800F083
:10030000A3B80000E800002001681823CAB2103A20
:10031000B2FBF3F2054B6FF30901032A9B5CC36543
:1003200000D9091D8165084670470000A82800080B
:1003300010B5014600208B698A6A4FF0C07453B132
:10034000B3F5005F15D072B1012A0CD0022A0AD091
:10035000032A09D104E01AB1012A06D0022A03D1E6
:10036000C96AC90100D5012010BDC96AA142FAD0ED
:1003700010BD002AF7D0012AF2D0022AF3D0032AB6
:10038000F3D010BD704772B6FEE72DE9F041044688
:10039000876D00F0B3FA064694F835000025022870
:1003A00006D08020606584F834500120BDE8F081DB
:1003B0002068016821F0160101602068416921F080
:1003C00080014161206C08B9A06C20B120680168EF
:1003D00021F0080101602068016821F0010101603D
:1003E0000CE000F08BFA801B052807D920206065FF
:1003F000032084F8350084F83450D7E7206800687B
:10040000C007EED194F85C103F208840B86001200E
:1004100084F8350084F834500020C7E790F8351090
:10042000022903D08021416501207047052180F811
:1004300035100068016821F001010160002070475B
:1004400090F83500704700002DE9F84304464FF05E
:100450000009CDF8009063484FF41651A56D00686F
:10046000B0FBF1F72E6894F85C10082000FA01F157
:1004700031420FD021680A6852070BD50A6822F072
:1004800004020A6094F85C108840A860606D40F037
:100490000100606594F85C104FF0010808FA01F063
:1004A000304208D021684969090604D5A860606D0A
:1004B00040F00200606594F85C10042088403042EF
:1004C00008D021680968890704D5A860606D40F0EC
:1004D0000400606594F85C1010208840304218D009
:1004E00021680968090714D5A860206801684903D4
:1004F00004D50068000308D5A16C07E00168C905B0
:1005000003D4016821F008010160216C09B1204683
:10051000884794F85C1020208840304231D0216810
:100520000968C9062DD5A86094F83500052820680B
:10053000016806D0490347D5006800031DD4616CEB
:100540001CE021F0160101602068416921F0800162
:100550004161206C08B9A06C20B12068016821F0CD
:100560000801016094F85C103F208840A86084F87E
:10057000358084F83490216D1FE0E16B09B120468D
:100580008847606D00282BD0606DC00714D005200F
:1005900084F835002068016821F0010101600098AD
:1005A000401C0090B84203D820680068C007F6D10C
:1005B00084F8358084F83490E16C002910D001B0C3
:1005C0002046BDE8F04308470168C905D5D4016855
:1005D00021F01001016084F8358084F83490CCE774
:1005E000BDE8F883300000202DE9F041044600F01A
:1005F00085F906465CB1022084F83500002584F8B0
:1006000034502068016821F0010101600DE00120F3
:10061000BDE8F08100F072F9801B052805D9202083
:100620006065032084F83500F2E720680068C007A1
:10063000F0D12268116820480140D4E90103184331
:10064000D4E903363343184363691843A369184355
:10065000E3691843236A18430843616A042903D1F4
:10066000D4E90B1319430843106020684069666A97
:1006700020F0070130460E43012704280CD1A06A60
:100680000643E06A40B12046FFF752FE20B1402009
:10069000606584F83570BAE7206846612046FFF748
:1006A00033FE94F85C203F2191408160656584F8B9
:1006B00035700020ACE700003F8010F02DE9F84FC6
:1006C000DFF8F8A10022012403254FF00F090AF1F9
:1006D000040BAAF1040E00BF0B6804FA02F63340C3
:1006E000B34270D10F7907F00307012F01D0022F19
:1006F00016D187684FEA420805FA08FC27EA0C077A
:10070000D1F80CC00CFA08FC4CEA070CC0F808C081
:100710004768B7430E79C6F3001696403E434660DD
:100720000E79F643B6070AD0C7684FEA420C05FABD
:100730000CF6B7438E6806FA0CF63E43C6600E7997
:1007400006F00306022E10D1D60800EB8608D8F872
:10075000206057074FEAD76C09FA0CF7BE430F69C0
:1007600007FA0CF73743C8F8207006684FEA420CC6
:1007700005FA0CF7BE430F7907F0030707FA0CF7E9
:10078000374307604E6816F4403F1CD04C4E376824
:1007900047F480473760366822F0030706F4804646
:1007A0000096484E07EB060CDCF8086897073F0FE9
:1007B00009FA07F826EA0806DFF80C81404503D15C
:1007C0004FF0000841E072E0DFF80081404502D1BF
:1007D0004FF0010839E0DFF8F880404502D14FF0D2
:1007E000020832E0DFF8EC80404502D14FF0030808
:1007F0002BE0DFF8E480404502D14FF0040824E00C
:10080000DFF8D880404502D14FF005081DE0DFF841
:10081000D080404502D14FF0060816E0DFF8C480D2
:10082000404502D14FF007080FE0DFF8BC8040459B
:1008300002D14FF0080808E0DFF8B080404502D14F
:100840004FF0090801E04FF00A0808FA07F848EAF3
:100850000608CCF80888DAF800605746D1F804C0DA
:100860009E435FEACC2C00D51E433E60DBF800605F
:100870005F46D1F804C09E435FEA8C2C00D51E432E
:100880003E60DEF800607746D1F804C09E435FEA20
:100890008C3C00D51E433E60084F083F3E68D1F8AF
:1008A00004C09E435FEACC3C00D51E433E60521C10
:1008B000102AFFF411AFBDE8F88F0000083C01409A
:1008C0004438024000300140000002400004024071
:1008D00000080240000C02400010024000140240D8
:1008E00000180240001C0240002002400024024088
:1008F0000AB1816170470904FBE700000148806884
:10090000704700002400002090F83D20202A01D0EC
:1009100002207047242280F83D200268136823F0EB
:10092000010313600268536A23F0100353620268E4
:10093000536A0B43536201680A6842F001020A607D
:10094000202180F83D100020704790F83D20202A9B
:1009500001D002207047242280F83D2002681368ED
:1009600023F00103136003685A6A22F00F020A435E
:1009700091B2596201680A6842F001020A602021BE
:1009800080F83D1000207047704770472DE9F04116
:10099000016804464A694E6890F83E000025D74336
:1009A000FA0506D4F243D20503D46FF48072012510
:1009B0004A61B90508D4F143C90505D422686FF42A
:1009C000007145F002055161790525D4F143C9054F
:1009D00022D4638D94F83D10226B202808D13BB9B6
:1009E000212910D029290ED0282901D1212A0AD065
:1009F00022686FF48061516145F00405102806D02B
:100A0000402804D008E0204601F0E6FB04E020681E
:100A1000016841F400710160380508D4F043C00555
:100A200005D421686FF4006045F008054861002D89
:100A300007D0206C284320642046BDE8F04101F037
:100A40004FB8BDE8F0812DE9F047026800215368F6
:100A5000C66A90F83E4090F83D50102C12D0402CC1
:100A600010D0046C002C7DD05469E443A6077AD4DE
:100A7000DE43B60577D4036C03B19169BDE8F04756
:100A800001F086BB976951694FF42A0CC9435FEAAC
:100A9000C1784FF02A4904D066452AD04E4528D067
:100AA00010E0DE43B6050DD4C16A614501D10121D4
:100AB00003E0C16A494501D10821C162BDE8F047A0
:100AC00001F0CCBA0E0716D4DE43B60513D4416C40
:100AD000C9B21161416B09B1C96B29B9816B002998
:100AE00007D0C96B002904D00068416841F4006157
:100AF0004160BDE8F0878E0706D4DE43B60503D417
:100B0000BDE8F04701F01EBAFE43526876074FEA8F
:100B100002521DD4002AECDB0A0608D4DA4352053F
:100B200005D4490705D5BDE8F04701F0AFB949073D
:100B3000DFD4D9438905DCD4212D05D0402CD8D170
:100B4000BDE8F04701F0D0BABDE8F04701F05CB96C
:100B5000002ACEDB4A060BD4DA43520508D44907F3
:100B600008D501E00DE00EE0BDE8F04701F0D2B895
:100B70004907BED4D9438905BBD4BDE8F04701F08D
:100B80005BB8916970E7E10606D4D943890503D4BF
:100B9000BDE8F04701F068BB2821212D27D0292D81
:100BA00025D0650655D4DD436D0552D4640752D572
:100BB00090F83D30448D002C9BD01269446A22701D
:100BC000426A521C4262428D521E4285428D002A68
:100BD0008FD12A2B8DD10268536823F48063536030
:100BE0002222026380F83D1000F08CF981E725068F
:100BF00023D4DD436D0520D4640720D590F83D3023
:100C0000448D002CF2D0446A24781461426A521C4C
:100C10004262428D521E4285428D002AE6D1292B26
:100C2000E4D10268536823F4806353602122026395
:100C300080F83D1000F067F95BE76107D6D4D9432F
:100C40008905D3D4418D0029D0D0416A097811613A
:100C50000AE06107CAD4D9438905C7D4418D002968
:100C6000C4D01169426A1170416A491C4162418DC8
:100C7000491E41853DE7704770B5040025D094F8C2
:100C80003D00002520B984F83C50204600F0BEF815
:100C9000242084F83D002068016821F001010160F2
:100CA0002068016841F4004101602068016821F476
:100CB0000041016000F094FA4D4A6168914201D808
:100CC0004C4900E04C49884201D2012070BD4B499B
:100CD0002368B0FBF1F15E6826F03F060E435E60CC
:100CE0006368934206D94FF4967359434FF47A736D
:100CF000B1FBF3F12368491C1E6A26F03F0631431D
:100D000019626168914210D84900401EB0FBF1F2AF
:100D1000521CC2F30B02042A01D2042022E0B0FBD1
:100D2000F1F0401CC0F30B001CE0A268F2B301EB31
:100D3000C10303EB0116431EB3FBF6F35B1C43F444
:100D400080431B0549D092B301EBC10202EB0111B4
:100D5000401EB0FBF1F0401CC0F30B0040F480409B
:100D600040F400402168CA694CF6FF739A4310436F
:100D7000C861D4E9071001432068026822F0C0026C
:100D800011430160D4E9030101432068826848F2FD
:100D9000FF339A4311438160D4E905010843216878
:100DA000CA6822F0FF021043C86001E00EE016E0BE
:100DB0002068016841F0010101602564202084F869
:100DC0003D00256384F83E50002070BD01EB4106D4
:100DD000431EB3FBF6F35B1CB3E70120C2E701EB54
:100DE0004101401EB0FBF1F0401CC0F30B00B7E71F
:100DF000A086010080841E0000093D0040420F00D3
:100E00007047704770477047704700002DE9F04108
:100E100086B0064614216846FFF71EFA344930684A
:100E2000884262D133480024016841F080010160AA
:100E30000068694600F0800005904FF4C070009093
:100E40001220CDE9010403200390042004902A48D5
:100E5000FFF734FC27481030016841F400010160BD
:100E60000068274D00F400000590244828604FF0EA
:100E7000C067C5E901744FF48068C5E903486C6137
:100E8000AC61EC612C6228466C62FFF7ADFB08B1E7
:100E9000FFF779FAB563AE63194D18486035303005
:100EA000E5E802074020A5E81101800045F8144953
:100EB000C5E9064012482C6260306C62FFF794FB73
:100EC00008B1FFF760FA7563002211464820AE634F
:100ED00000F082F8482000F071F800221146492005
:100EE00000F07AF8492000F069F806B0BDE8F0811A
:100EF000005C004030380240001C0240406002406C
:100F000088000020704770470248816802781144C9
:100F100081607047240000200B4810B5016841F43F
:100F200000710160016841F480610160016841F471
:100F300080710160032000F06FF80F2000F006F8C8
:100F400000F024F8002010BD003C024070B50D4DAB
:100F500004464FF47A712878B1FBF0F00A49096829
:100F6000B1FBF0F000F042FB48B9102C07D2002290
:100F70002146501E00F030F800206C6070BD01204A
:100F800070BD000024000020300000200A4808B591
:100F9000016841F480410160006800F480400090E5
:100FA0000548001F016841F080510160006800F0B1
:100FB0008050009008BD000044380240002809DB42
:100FC00000F01F02012191404009800000F1E02063
:100FD000C0F8001170470000F0B40E4B1B680C46BF
:100FE000C3F30223C3F10705042D00D90425191DFD
:100FF000072901D2002300E0DB1E012606FA05F1D5
:10100000491E214099409E40761E16403143F0BC57
:1010100001F014BC0CED00E0064900F0070208687E
:101020004FF6FF03184040EA0220034A10430860CD
:10103000704700000CED00E00000FA052DE9F843D0
:101040001748016841F0805101600068154F00F0B9
:101050008050012600903E64FFF750FC05464FF497
:101060007A78114C05E000BFFFF748FC401B404573
:101070000DD86068C003F7D57E64FFF73FFC0546D6
:10108000464607E0FFF73AFC401BB04202D9032076
:10109000BDE8F88360688003F4D50020F8E700001D
:1010A0004038024000000E42007000402DE9F04739
:1010B0000E46050065D0DFF81481D8F80000F7B2BD
:1010C00000F00F00B04207D288F80070D8F8000096
:1010D00000F00F00B04254D128683D4C810712D572
:1010E000400703D5206840F4E050206028780007CE
:1010F00003D5206840F4604020602068A96820F093
:10110000F000084320602878C0072DD03049686877
:101110000839012812D0022813D0032811D00968F9
:10112000890700292DDA216821F00301014321609C
:10113000FFF7E4FB814641F2883A0EE00968890333
:10114000EFE709688901ECE7FFF7D8FBA0EB09019D
:10115000514502D90320BDE8F0872068696800F096
:101160000C00B0EB810FEFD1D8F80010404601F031
:101170000F01B14207D90770006800F00F00B042BC
:1011800001D00120E7E72878400705D52068E96805
:1011900020F4E050084320602878000706D5206836
:1011A000296920F4604040EAC100206000F038F86E
:1011B0002168084AC1F30311515CC8400649086020
:1011C00006480068FFF7C2FE0020C4E7003C02406A
:1011D00008380240B0280008300000202800002015
:1011E0000448054900680968044AC1F38221515C3A
:1011F000C84070473000002008380240C02800086E
:101200000448054900680968044AC1F34231515C49
:10121000C84070473000002008380240C02800084D
:10122000154810B5006810F00C02144813D0411096
:10123000042A0FD0082A0ED10F4C241F22682368DD
:1012400002F03F025B0207D52068C0F38810A0FBC4
:10125000010106E0084610BD2168C1F38811A1FB19
:1012600000010023FEF7C0FF2168C1F30141491CC2
:101270004900B0FBF1F010BD083802400024F40032
:101280002DE9F84F04006ED02078DFF84C93C007AA
:10129000A9F104054AD009F104000168C1F38101F4
:1012A000012908D00068C0F3810002280AD1D9F8CA
:1012B0000000400206D52868800337D56068002802
:1012C000E1D033E06068B0F5803F10D0B0F5A02FDA
:1012D000286810D020F480302860286820F480200E
:1012E00028606068A8B1FFF709FB06460DE0286892
:1012F00040F48030F4E740F480202860F7E700BF36
:10130000FFF7FCFA801B642873D828688003F7D5A0
:101310000CE0FFF7F3FA064605E000BFFFF7EEFA30
:10132000801B6428F0D828688003F7D42078DFF881
:10133000AC8280074FF0000A3ED5A748001D016827
:1013400011F00C0F08D00068C0F3810002280BD107
:10135000D9F80000400207D42868800716D5E06855
:10136000012800D112E033E1E068B8B10120C8F8EB
:101370000000FFF7C3FA064605E000BFFFF7BEFA1C
:10138000801B0228C0D828688007F7D52868216903
:1013900020F0F80040EAC10028600DE0C8F800A085
:1013A000FFF7ACFA064604E0FFF7A8FA801B022814
:1013B0001FD828688007F7D42078000722D5864FE9
:1013C00087486169703771B101210160FFF796FAB2
:1013D000064604E0FFF792FA801B022809D8386815
:1013E0008007F7D50EE0C0F800A0FFF787FA0646A1
:1013F00005E082E0FFF782FA801B02287DD838687A
:101400008007F7D42078400768D5DFF8CCB10027F3
:101410000BF13C0BDBF80000C0000BD4DBF8001034
:1014200041F08051CBF80010DBF80000012700F0FC
:10143000805000906B4E3068C00510D4306840F486
:1014400080703060FFF75AFA009005E0FFF756FA17
:101450000099401A022850D83068C005F6D55E4E73
:10146000A0686C3601280FD00528306810D020F015
:1014700001003060306820F004003060A068B8B12E
:10148000FFF73CFA00900FE0306840F00100F4E70D
:1014900040F004003060F7E7FFF730FA0099411A96
:1014A00041F28830814266D830688007F4D50EE07A
:1014B000FFF724FA009007E0FFF720FA0099411A9D
:1014C00041F28830814256D830688007F4D42FB179
:1014D000DBF8001021F08051CBF80010A069C8B3F0
:1014E0003D49091D0968C1F3810102294AD002283A
:1014F000504607D0C8F8600000E03CE0FFF7FEF976
:1015000004463BE04746C8F86000FFF7F7F9064697
:1015100005E000BFFFF7F2F9801B02282BD82868EE
:101520008001F7D4D4E907010843A16A2E4A49088B
:1015300002EB0141626A41EA8211084394F82C10DF
:1015400040EA0161C9F8001001203866FFF7D6F9BA
:10155000044606E03EE000BFFFF7D0F9001B02287A
:1015600009D828688001F7D534E000BFFFF7C6F935
:10157000001B022802D90320BDE8F88F28688001EB
:10158000F4D427E00128F7D0D9F80000E26900F48C
:10159000800191421CD1226A00F03F01914217D193
:1015A00047F6C071626A0140B1EB821F10D1A26A96
:1015B0004FF0FF3300F4403103EB5202B1EB024F26
:1015C00006D194F82C1000F07060B0EB016F01D0E0
:1015D0000120D1E70020CFE7043802400000474255
:1015E000800E4742007000400000FFFF10B5401E13
:1015F000B0F1807F01D3012010BD4FF0E024606185
:101600000F21601701F01AF90020A0610720206166
:10161000002010BD70477047F8B50168044608689F
:10162000CA684B6910F00F0F4FF0000559D003F056
:10163000010602F49077374365D0C10705D0D10584
:1016400003D5616C41F001016164410705D5D907FB
:1016500003D0616C41F002016164810705D5D907AF
:1016600003D0616C41F004016164010707D502F009
:101670002001314303D0616C41F008016164616C69
:1016800000293AD0800604D5900602D5204600F005
:10169000D2FF20684069616CC0F38010090700D454
:1016A00060B3204600F0A0FF20684069400621D5C5
:1016B0002068143050E8001F21F0400140E800127B
:1016C000002AF5D1E06BA8B16E490165E06BFEF729
:1016D000A5FE002811D0E06B016D01B0BDE8F0401F
:1016E000084783060FD593060DD52046BDE8F84080
:1016F00000F0A1BF2046FFF78EFFF8BD2046FFF7A0
:101700008AFF6564F8BD266B2023012E7DD1C606B5
:101710007BD5D60679D508684868009048694FF0AF
:101720000206400641D5E16B086840680004000CE1
:10173000E8D0A28D8242E5D9E085C869B0F5807F06
:101740002DD020680C3050E8001F21F4807140E853
:101750000012002AF5D12068143050E8001F21F053
:10176000010140E80012002AF5D12068143050E849
:10177000001F21F0400140E80012002AF5D184F852
:101780004230256320680C3050E8001F21F0100122
:1017900040E80012002AF5D1E06BFEF7F6FD666323
:1017A000A08DE18D401A81B22AE0A08DE18D401A12
:1017B00081B2E08D0028A5D00029A3D022680C3288
:1017C00052E8000F20F4907042E80007002FF5D196
:1017D0002068143050E8002F22F0010240E8002772
:1017E000002FF5D184F84230256320680C3050E892
:1017F000002F22F0100240E80023002BF5D1666391
:101800002046FFF707FFF8BDFFE705062BD51506B5
:1018100029D594F841002128F5D1A068B0F5805F62
:1018200001D12069B0B1206A411C21622168007891
:101830004860E08C401E0004000CE084E3D1206886
:10184000C16821F08001C1602068C16841F0400199
:10185000C160D8E7206A0088C0F308004860206AA9
:10186000801C2062E5E74006CDD55006CBD5CA687E
:10187000204622F04002CA6084F8413000F0AEF801
:10188000C1E70000D925000870B5040004D094F821
:101890004100002510B106E0012070BD84F84050E1
:1018A000204600F023F8242084F841002068C16815
:1018B00021F40051C160204600F01EFF206801693C
:1018C00021F4904101612068416921F02A014161C0
:1018D0002068C16841F40051C1606564202084F82B
:1018E000410084F842006563002070BD10B586B0E9
:1018F000044614216846FEF7AFFC17492068884269
:1019000028D116480021026842F080420260006837
:1019100000F08040059011481038026842F0200223
:101920000260006800F020000590C02000900220B6
:10193000CDE901010320039008200490694608487E
:10194000FEF7BCFE002211465220FFF745FB522055
:10195000FFF734FB06B010BD00780040403802406D
:101960000014024090F84230202B01D00220704732
:1019700021B11AB10023036300F044BF0120704776
:1019800070B5144988421ED1134A002002F10801A3
:10199000135C0B54401C0828FADB0F490822083955
:1019A00001F11000FEF763FC0B4D0124133D00B95B
:1019B0002C7009490822103901F11800FEF757FC74
:1019C00000B96C70AC70BDE8704008220249014853
:1019D000FFF7C8BF480100201300002004498842D7
:1019E00005D100224FF480610248FEF781BF7047A5
:1019F00048010020000C0240FEE700000148FEF70D
:101A0000C5BF0000340000200148FFF71CB80000EB
:101A10003400002038B5806B002190F83D202B4B1E
:101A200046F2A8141B68B3FBF4F3C3EBC30303EB48
:101A3000830300933BB15B1E009303681B689B0507
:101A400005D5009BF6E7036C43F020030364436B6A
:101A500003B1D963836B03B1D96303681C6824F4B1
:101A600080641C604185436B03B11965836B03B1CE
:101A7000196503681C6824F001041C6090F83D405F
:101A80002023602C0BD0282434EA02020FD080F8E7
:101A90003D3080F83E1000BFFFF7EDF838BD80F80C
:101AA0003D3080F83E100164FEF76EFF38BD0268DD
:101AB000136843F0010313600268136843F4806302
:101AC0001360016380F83D40E6E70000300000202D
:101AD00000684169C943090601D4002101617047CA
:101AE00070B5044690F83D0094F83E10102901D0DE
:101AF000402906D1222804D121680A6822F4006214
:101B00000A60282131EA00024FF000054FF020065C
:101B100026D021684968090505D4602803D084F8D7
:101B20003D6084F83E50256320684168090537D53B
:101B3000416821F400614160606B90F835203C49B8
:101B4000012A11D00165606BFEF768FC38B320688C
:101B5000016821F00101016084F83D60606B1CE0C8
:101B6000256384F83D10DFE7A06B0165A06BFEF7ED
:101B700055FCA0B120684169C943490605D40069F4
:101B8000616A0870606A401C60622068016821F028
:101B90000101016084F83D60A06B016D884710E091
:101BA00094F83D10602910D04169C943490605D415
:101BB0000069616A0870606A401C60622046FFF735
:101BC0005AF8206CC1071CD115E084F83D602564EB
:101BD0004169C943490605D40069616A0870606AB1
:101BE000401C60622068016821F00101016020460C
:101BF000FEF7CAFEE5E7810703D4410701D40007D9
:101C000004D52068416821F4E061416094F83D000A
:101C1000216C49070BD5282809D10648E0622563C5
:101C200084F83D6084F83E502046FFF7E9F870BD27
:101C3000151A00080000FFFF10B5C26A438D016845
:101C4000042B06D0438D032B08D0438D022B1DD0CF
:101C500012E04A6822F480624A600CE04B6823F488
:101C600080634B60042A06D0022A04D001680A6807
:101C700022F480620A6001680969426A1170416A4F
:101C8000491C4162418D491E418510BD012A34D055
:101C9000102A32D0042A34D0022A32D00B6843F4FE
:101CA00000730B6001680969436A1970416A491C35
:101CB0004162438D5B1E438503681B690B70416A5B
:101CC000491C4162418D491E418501684B6823F4DE
:101CD00040734B60202180F83D1090F83E30002189
:101CE000402B80F83E1010D0082A02D0202A00D0C5
:101CF00012210163FFF785F810BD0B6823F48063A0
:101D0000CFE70B6843F48063CBE70163FFF77BF811
:101D100010BD000038B590F83D10222910D1C36ADB
:101D2000418D03290DD901680969426A1170416A20
:101D3000491C4162418D491E4185418D032906D0D0
:101D400038BDC26A022A02D0012906D029B1006832
:101D5000416821F48061416038BD2A4A46F2A814E6
:101D600000211268B2FBF4F202EB820200920268D8
:101D70002024009D6D1E009526D01568AD05F8D471
:101D8000156825F4806515600268556825F4E065DE
:101D9000556002681269456A2A70426A521C4262A2
:101DA000428D521E428580F83D4090F83E2080F8DA
:101DB0003E10402A21D0082B02D0202B00D0122127
:101DC0000163FFF71EF838BD036C43F02003036482
:101DD000536823F4E063536002681269436A1A701F
:101DE000426A521C4262428D521E428580F83D403A
:101DF00080F83E10FEF73FFF38BD0163FFF703F8A0
:101E000038BD00003000002010B5C26A90F83D10C7
:101E100021290BD1418D51B1416A026809781161C4
:101E2000416A491C4162418D491E418510BD2023F4
:101E30000021082A13D0202A11D012F5803F0ED09D
:101E40000268546824F4E06454601122026380F84C
:101E50003E1080F83D3000BFFEF7D4FF10BD026891
:101E6000546824F4E06454600268146844F4007414
:101E70001460016380F83D3090F83E2080F83E10F9
:101E8000402AE9D1FEF7C0FF10BD000010B590F860
:101E90003D1090F83E30C26A048DB4B1212903D0C0
:101EA000402B11D122290FD1418DE1B390F83E1082
:101EB000402942D0416A026809781161416A491C8F
:101EC0004162418D491E418510BD2129E8D1202361
:101ED0000021082A13D0202A11D012F5803F0ED0FD
:101EE0000268546824F4E06454601122026380F8AC
:101EF0003E1080F83D3000BFFEF784FF10BD026841
:101F0000546824F4E06454600268146844F4007473
:101F10001460016380F83D3090F83E2080F83E1058
:101F2000402AE9D100E002E0FEF76EFF10BD006834
:101F3000416821F48061416010BDBDE8104000F0AF
:101F4000D3B8000078B590F83E50C26A036B90F8A1
:101F50003D6000240168222E7AD1066D0EB9402D15
:101F600076D0056D1DB90569B5F5404F09D0458D91
:101F700005B3468D384D012E0ED0438D022B3AD03D
:101F80005DE04A698A6900920A6842F480720A60D8
:101F9000016D491C016578BDAA4213D10A6822F47B
:101FA00080620A6001684A68120503D50A6822F453
:101FB000806216E04A698A6900920A6842F40072F7
:101FC0000A6039E0082A10D0202A0ED0122B0AD03D
:101FD000042A03D0022A01D0102AE7D10A6842F469
:101FE00080620A6024E0012AE0D00A6822F480625C
:101FF0000A600168DEE7042A21D0022A1FD0102AD5
:102000001DD00B6823F480630B6001680B6843F4F8
:1020100000630B6001684B681B0509D5AA4212D00A
:10202000012A10D0082A0ED0102A0CD0202A0AD05B
:1020300001684A6989690091046578BD08E00B6808
:1020400043F48063E5E74A6842F480524A60EFE770
:10205000486988690090F0E70000FFFF90F83E10A3
:10206000402910D00169B1F5804F19D0016DA9B395
:10207000016D012910D1416C5FF0F10201F4407152
:1020800042EAD11106E0016D0029416C05D0C9B2C8
:1020900041F0010100680161704701F0FE01F9E7BC
:1020A00090F83D102129416C09D0C9B241F00101DD
:1020B00002681161416B29B1C96B49B902E001F0B5
:1020C000FE01F5E7816B0029E6D0C96B0029E3D05A
:1020D0000068416841F4006141607047FFE7416C6E
:1020E000F02201F44071CBE710B590F83D10026D7D
:1020F0004AB1026D012A14D0026D022A16D0BDE841
:102100001040FFF7E5BCC16C0129816C02D0C1F31E
:10211000072108E00268C9B21161016D891C0165DF
:1021200010BD816CC9B20268116123E022291CD064
:10213000428D0AB1212920D0428D002AF0D12129D7
:10214000EED101684A6822F4E0624A6001680A68D8
:1021500042F400720A6000210163202280F83D20D1
:1021600080F83E10FEF750FE10BD01680A6842F488
:1021700080720A60016D491CD1E7416A02680978E2
:102180001161416A491C4162418D491E418510BD62
:1021900038B50C4690F83D2000212825954302686B
:1021A0000B4605D051699169009180F83C3038BDEB
:1021B000556825F480655560E243540700D5012138
:1021C000120601D5828900E0028B80F83C3092B281
:1021D000FEF7DBFB38BD00002DE9F04190F83D3003
:1021E0000446C26A002120261E4F00686FF48065F5
:1021F000082A01D0202A01D1282B04D0212B17D066
:102200004561BDE8F081E762426822F4E062426025
:10221000206845612068026822F4806202602163C0
:1022200084F83D6084F83E102046FEF7E9FDE8E7BB
:10223000E7622122226384F83D6084F83E10416801
:1022400021F4E0614160206845612068016821F463
:10225000806101602046FFF73BFC2046FEF753FEFD
:10226000CFE700000000FFFFF8B590F83D6004469E
:102270000068416821F4E0614160206800254169FF
:102280000091016841F0010101602068016821F4BA
:102290008061016020684168090520D5474F222EE2
:1022A00048D02A2E46D0616B096849686185618DE6
:1022B00019B1216C41F004012164416821F40061ED
:1022C0004160606BFEF7BCF8012808D0606B0765C1
:1022D000606BFEF7A3F810B1606B016D8847608DED
:1022E00008B320684169C943490708D40069616A95
:1022F0000870606A401C6062608D401E60852068C6
:102300004169C943490608D40069616A0870606A76
:10231000401C6062608D401E6085608D18B1206C2D
:1023200040F004002064206C00B32046BDE8F84073
:10233000FFF7D6BBA16B096849686185618D19B14A
:10234000216C41F004012164416821F40061416085
:10235000A06BFEF775F80128C1D0A06B0765A06BD4
:10236000FEF75CF80028BAD0A06BB6E72A2E06D19B
:102370002563282084F83D002046FEF7C3FD94F82D
:102380003D10202028290DD0216B222901D0222E9A
:1023900007D1256384F83D0084F83E502046FEF7BF
:1023A000B1FDF8BD0649E162256384F83D0084F87B
:1023B0003E502046FEF724FDF8BD0000151A000827
:1023C0000000FFFF0D4808B5016841F400110160ED
:1023D0000068002200F40010009011460D20FEF766
:1023E000FBFD0D20FEF7EAFD002211460F20FEF74F
:1023F000F3FDBDE808400F20FEF7E0BD3038024095
:1024000070B586B014216846FDF726FF1A480024EF
:10241000016841F020010160016801F0200105918F
:10242000016841F080010160016801F080010591BF
:10243000016841F008010160016801F0080105919F
:10244000016841F00101016000680C4E00F00100DC
:102450004FF480650590002229463046FEF748FA81
:1024600001200095CDE90104694630460394FEF74A
:1024700025F906B070BD000030380240000C024063
:10248000144810B5124901601349416000214FF40E
:1024900080428160C0E9031241618161C1610162D2
:1024A000FEF7EAFB08B1FDF76EFF00210948FEF7D1
:1024B0002BFA08B1FDF767FF00210648FEF745FA41
:1024C000002803D0BDE81040FDF75DBF10BD00003F
:1024D000005C004034000020A08601000C4810B5CC
:1024E0000A4901604FF416514160002181600C22BD
:1024F000C160C0E904128161C161FFF7C5F900281C
:1025000003D0BDE81040FDF73EBF10BD007800408D
:1025100048010020FEE7FEE770477047FEF7F4BC75
:1025200030B593B030216846FDF796FE14210CA813
:10253000FDF792FE1F480025016841F080510160BF
:10254000006800F0805011901B48016841F4404140
:1025500001600068022400F44040119001200090C6
:10256000000401908001CDE9064008AA0420B421AE
:1025700082E813000B906846FEF782FE08B172B63F
:10258000FEE7FEF75BFD08B172B6FEE70CA90F206F
:1025900081E831004FF4A0500F904FF4805010901C
:1025A00005210CA8FEF782FD002801D072B6FEE7D7
:1025B00013B030BD4038024000700040024801684E
:1025C00041F470010160704788ED00E00148FFF7B9
:1025D00023B800004801002010B5806B0021C185A0
:1025E000C184FFF718F810BD01680C3151E8002FC5
:1025F00022F4907241E80023002BF5D101681431D8
:1026000051E8002F22F0010241E80023002BF5D110
:10261000016B012909D101680C3151E8002F22F02A
:10262000100241E80023002BF5D1202180F8421050
:1026300000210163704708B590F84210222901D0AB
:10264000022008BD82684FF480539A4201D101698B
:1026500021B1816A9A421BD04AB10AE00268816ABC
:102660005268C2F308020A80816A891C08E0026984
:1026700072B10268526802F07F020A70816A491CD6
:102680008162C18D491E0904090CC18503D01BE07C
:1026900002685268F1E70168CA6822F02002CA6045
:1026A0000168CA6822F48072CA6001684A6922F02F
:1026B00001024A61202180F8421000214163026B2F
:1026C000012A03D0FFF75CF9002008BD016301680F
:1026D0000C3151E8002F22F0100241E80023002BBA
:1026E000F5D101680A68D20602D50A6849680091E6
:1026F000818DFEF78FFFE7E770B50446006801693A
:10270000E26821F44051114301612169A068E26946
:1027100008436169114308432168CA6849F20C63A0
:102720009A430243CA6020684169A26921F440715A
:102730001143416131492068884202D030498842C2
:1027400002D1FEF75DFD01E0FEF74AFDE2690023DC
:10275000192164253226B2F5004F626828D0A0FB0B
:102760000101930F9200FDF73FFD0146B0FBF5F02C
:102770006FF01802504301EB800006EB0010B0FB35
:10278000F5F000F0F002B1FBF5F002EB0012B1FB46
:10279000F5F06FF01803584301EB800006EB0010D2
:1027A000B0FBF5F000F00F0021681044886070BDA8
:1027B000A0FB010192185B41FDF716FD0146B0FB3D
:1027C000F5F00201B1FBF5F06FF01803584301EB8F
:1027D000800006EBC000B0FBF5F000F0F80002EB63
:1027E0004002B1FBF5F0584301EB800006EBC0005E
:1027F000B0FBF5F000F00700D6E700000010014044
:102800000014014081628285C28500214164222139
:1028100080F84210016921B10168CA6842F48072EF
:10282000CA6001684A6942F001024A610068C168F1
:1028300041F02001C16000207047FEE70907090E42
:10284000002804DB00F1E02080F80014704700F05D
:102850000F0000F1E02080F8141D704702E008C866
:10286000121F08C1002AFAD170477047002001E00A
:1028700001C1121F002AFBD170470000FEF74CFB7C
:10288000FFF74EFEFFF7BCFDFFF79CFDFFF726FEAE
:10289000FFF7F6FD082202490248FFF763F8FEE75A
:1028A0001300002048010020000610160006101634
:1028B00000000000000000000102030406070809F0
:1028C0000000000001020304E828000800000020C6
:1028D000340000005C2800081C2900083400002097
:1028E0005C0500006C280008000000010300C00027
:1028F000084430010300000066C5E000000000004D
:1029000000000000000000000000000001000000C6
:0C29100010000000000000000024F40093
:04000005080001AD41
:00000001FF
